{
  "abi": [
    {
      "inputs": [],
      "stateMutability": "nonpayable",
      "type": "constructor"
    },
    {
      "anonymous": false,
      "inputs": [
        {
          "components": [
            {
              "components": [
                {
                  "internalType": "bytes32",
                  "name": "x",
                  "type": "bytes32"
                },
                {
                  "internalType": "bytes32",
                  "name": "y",
                  "type": "bytes32"
                }
              ],
              "internalType": "struct PrivateTreasury.Point",
              "name": "P",
              "type": "tuple"
            },
            {
              "components": [
                {
                  "internalType": "bytes32",
                  "name": "x",
                  "type": "bytes32"
                },
                {
                  "internalType": "bytes32",
                  "name": "y",
                  "type": "bytes32"
                }
              ],
              "internalType": "struct PrivateTreasury.Point",
              "name": "Q",
              "type": "tuple"
            },
            {
              "internalType": "uint256",
              "name": "v",
              "type": "uint256"
            }
          ],
          "indexed": false,
          "internalType": "struct PrivateTreasury.Leaf",
          "name": "lf",
          "type": "tuple"
        }
      ],
      "name": "NewLeaf",
      "type": "event"
    },
    {
      "inputs": [],
      "name": "POSEIDON_T3_ADDR",
      "outputs": [
        {
          "internalType": "address",
          "name": "",
          "type": "address"
        }
      ],
      "stateMutability": "view",
      "type": "function"
    },
    {
      "inputs": [],
      "name": "POSEIDON_T6_ADDR",
      "outputs": [
        {
          "internalType": "address",
          "name": "",
          "type": "address"
        }
      ],
      "stateMutability": "view",
      "type": "function"
    },
    {
      "inputs": [],
      "name": "VERIFIER_ADDR",
      "outputs": [
        {
          "internalType": "address",
          "name": "",
          "type": "address"
        }
      ],
      "stateMutability": "view",
      "type": "function"
    },
    {
      "inputs": [
        {
          "components": [
            {
              "components": [
                {
                  "internalType": "bytes32",
                  "name": "x",
                  "type": "bytes32"
                },
                {
                  "internalType": "bytes32",
                  "name": "y",
                  "type": "bytes32"
                }
              ],
              "internalType": "struct PrivateTreasury.Point",
              "name": "P",
              "type": "tuple"
            },
            {
              "components": [
                {
                  "internalType": "bytes32",
                  "name": "x",
                  "type": "bytes32"
                },
                {
                  "internalType": "bytes32",
                  "name": "y",
                  "type": "bytes32"
                }
              ],
              "internalType": "struct PrivateTreasury.Point",
              "name": "Q",
              "type": "tuple"
            },
            {
              "internalType": "uint256",
              "name": "v",
              "type": "uint256"
            }
          ],
          "internalType": "struct PrivateTreasury.Leaf",
          "name": "lf",
          "type": "tuple"
        }
      ],
      "name": "_hashLeaf",
      "outputs": [
        {
          "internalType": "uint256",
          "name": "",
          "type": "uint256"
        }
      ],
      "stateMutability": "view",
      "type": "function"
    },
    {
      "inputs": [
        {
          "internalType": "uint256",
          "name": "l",
          "type": "uint256"
        },
        {
          "internalType": "uint256",
          "name": "r",
          "type": "uint256"
        }
      ],
      "name": "_hashLeftRight",
      "outputs": [
        {
          "internalType": "uint256",
          "name": "",
          "type": "uint256"
        }
      ],
      "stateMutability": "view",
      "type": "function"
    },
    {
      "inputs": [
        {
          "components": [
            {
              "internalType": "bytes32",
              "name": "x",
              "type": "bytes32"
            },
            {
              "internalType": "bytes32",
              "name": "y",
              "type": "bytes32"
            }
          ],
          "internalType": "struct PrivateTreasury.Point",
          "name": "pk",
          "type": "tuple"
        },
        {
          "internalType": "string",
          "name": "label",
          "type": "string"
        }
      ],
      "name": "create",
      "outputs": [],
      "stateMutability": "nonpayable",
      "type": "function"
    },
    {
      "inputs": [
        {
          "components": [
            {
              "internalType": "bytes32",
              "name": "x",
              "type": "bytes32"
            },
            {
              "internalType": "bytes32",
              "name": "y",
              "type": "bytes32"
            }
          ],
          "internalType": "struct PrivateTreasury.Point",
          "name": "P",
          "type": "tuple"
        },
        {
          "components": [
            {
              "internalType": "bytes32",
              "name": "x",
              "type": "bytes32"
            },
            {
              "internalType": "bytes32",
              "name": "y",
              "type": "bytes32"
            }
          ],
          "internalType": "struct PrivateTreasury.Point",
          "name": "Q",
          "type": "tuple"
        }
      ],
      "name": "deposit",
      "outputs": [],
      "stateMutability": "payable",
      "type": "function"
    },
    {
      "inputs": [
        {
          "internalType": "uint256",
          "name": "",
          "type": "uint256"
        }
      ],
      "name": "directory",
      "outputs": [
        {
          "components": [
            {
              "internalType": "bytes32",
              "name": "x",
              "type": "bytes32"
            },
            {
              "internalType": "bytes32",
              "name": "y",
              "type": "bytes32"
            }
          ],
          "internalType": "struct PrivateTreasury.Point",
          "name": "pk",
          "type": "tuple"
        },
        {
          "internalType": "string",
          "name": "label",
          "type": "string"
        }
      ],
      "stateMutability": "view",
      "type": "function"
    },
    {
      "inputs": [],
      "name": "getDirectoryLength",
      "outputs": [
        {
          "internalType": "uint256",
          "name": "",
          "type": "uint256"
        }
      ],
      "stateMutability": "view",
      "type": "function"
    },
    {
      "inputs": [],
      "name": "getNumDeposits",
      "outputs": [
        {
          "internalType": "uint256",
          "name": "",
          "type": "uint256"
        }
      ],
      "stateMutability": "view",
      "type": "function"
    },
    {
      "inputs": [],
      "name": "root",
      "outputs": [
        {
          "internalType": "uint256",
          "name": "",
          "type": "uint256"
        }
      ],
      "stateMutability": "view",
      "type": "function"
    },
    {
      "inputs": [
        {
          "internalType": "uint256",
          "name": "",
          "type": "uint256"
        }
      ],
      "name": "spentLeaves",
      "outputs": [
        {
          "internalType": "bool",
          "name": "",
          "type": "bool"
        }
      ],
      "stateMutability": "view",
      "type": "function"
    },
    {
      "inputs": [
        {
          "internalType": "uint256",
          "name": "amount",
          "type": "uint256"
        },
        {
          "components": [
            {
              "internalType": "bytes32",
              "name": "x",
              "type": "bytes32"
            },
            {
              "internalType": "bytes32",
              "name": "y",
              "type": "bytes32"
            }
          ],
          "internalType": "struct PrivateTreasury.Point",
          "name": "changeP",
          "type": "tuple"
        },
        {
          "components": [
            {
              "internalType": "bytes32",
              "name": "x",
              "type": "bytes32"
            },
            {
              "internalType": "bytes32",
              "name": "y",
              "type": "bytes32"
            }
          ],
          "internalType": "struct PrivateTreasury.Point",
          "name": "changeQ",
          "type": "tuple"
        },
        {
          "internalType": "uint256[2]",
          "name": "a",
          "type": "uint256[2]"
        },
        {
          "internalType": "uint256[2][2]",
          "name": "b",
          "type": "uint256[2][2]"
        },
        {
          "internalType": "uint256[2]",
          "name": "c",
          "type": "uint256[2]"
        },
        {
          "internalType": "uint256[11]",
          "name": "publicSignals",
          "type": "uint256[11]"
        }
      ],
      "name": "withdraw",
      "outputs": [],
      "stateMutability": "payable",
      "type": "function"
    }
  ],
  "bytecode": {
    "object": "0x60806040526000600155604380546001600160a01b0319908116735fbdb2315678afecb367f032d93f642f64180aa317909155604480548216738464135c8f25da09e49bc8782676a84730c318bc179055604580549091167371c95911e9a5d330f4d621842ec243ee1343292e1790553480156200007c57600080fd5b506000805460ff191660209081179091557f12817f4161f2f5ded33f26c55735a77e80e4f8975483c8c2704745128417f71160038190558060015b8360ff168160ff16101562000125576000620000d483806200013f565b90508060038360ff1660208110620000f057620000f0620001ce565b015580602360ff8416602081106200010c576200010c620001ce565b01559150806200011c81620001e4565b915050620000b7565b506200013281806200013f565b600255506200025f915050565b6044546040805180820182528481526020810184905290516314d2f97b60e11b81526000926001600160a01b0316916329a5f2f69162000183919060040162000212565b602060405180830381865afa158015620001a1573d6000803e3d6000fd5b505050506040513d601f19601f82011682018060405250810190620001c7919062000245565b9392505050565b634e487b7160e01b600052603260045260246000fd5b600060ff821660ff81036200020957634e487b7160e01b600052601160045260246000fd5b60010192915050565b60408101818360005b60028110156200023c5781518352602092830192909101906001016200021b565b50505092915050565b6000602082840312156200025857600080fd5b5051919050565b6113a9806200026f6000396000f3fe6080604052600436106100c25760003560e01c80639fdc0ea61161007f578063d37ad4be11610059578063d37ad4be1461022d578063ebf0c71714610242578063ec74f59014610258578063f163536b1461027857600080fd5b80639fdc0ea6146101dd578063a64863a2146101f2578063ca3e9ecf1461021a57600080fd5b80632e5ca4d3146100c75780633728abae146100fa5780633f42bf661461011a5780636502b6cb1461015a5780637bb885be1461016f5780637d611a26146101af575b600080fd5b3480156100d357600080fd5b506100e76100e2366004610bf6565b6102a0565b6040519081526020015b60405180910390f35b34801561010657600080fd5b506100e7610115366004610c5e565b61034c565b34801561012657600080fd5b5061014a610135366004610c80565b60476020526000908152604090205460ff1681565b60405190151581526020016100f1565b61016d610168366004610d6f565b6103d6565b005b34801561017b57600080fd5b50610197735fbdb2315678afecb367f032d93f642f64180aa381565b6040516001600160a01b0390911681526020016100f1565b3480156101bb57600080fd5b506101cf6101ca366004610c80565b6106f3565b6040516100f1929190610e3c565b3480156101e957600080fd5b506046546100e7565b3480156101fe57600080fd5b50610197738464135c8f25da09e49bc8782676a84730c318bc81565b61016d610228366004610e9c565b6107c4565b34801561023957600080fd5b506001546100e7565b34801561024e57600080fd5b506100e760025481565b34801561026457600080fd5b5061016d610273366004610ed1565b61082e565b34801561028457600080fd5b506101977371c95911e9a5d330f4d621842ec243ee1343292e81565b6045546040805160a08101825283515181528351602090810151818301528085018051518385015251015160608201528382015160808201529051630926f44b60e31b81526000926001600160a01b031691634937a258916103059190600401610f55565b602060405180830381865afa158015610322573d6000803e3d6000fd5b505050506040513d601f19601f820116820180604052508101906103469190610f86565b92915050565b6044546040805180820182528481526020810184905290516314d2f97b60e11b81526000926001600160a01b0316916329a5f2f69161038e9190600401610fc8565b602060405180830381865afa1580156103ab573d6000803e3d6000fd5b505050506040513d601f19601f820116820180604052508101906103cf9190610f86565b9392505050565b6002548151146104535760405162461bcd60e51b815260206004820152603c60248201527f4d65726b6c6520726f6f74206173736f63696174656420772f2070726f6f662060448201527f646f65736e2774206d61746368206f6e2d636861696e20726f6f742e0000000060648201526084015b60405180910390fd5b60435460405163b9c6ea8760e01b81526001600160a01b039091169063b9c6ea8790610489908790879087908790600401610fec565b602060405180830381865afa1580156104a6573d6000803e3d6000fd5b505050506040513d601f19601f820116820180604052508101906104ca9190611070565b6105165760405162461bcd60e51b815260206004820152601860248201527f496e76616c6964207769746864726177616c2070726f6f660000000000000000604482015260640161044a565b600060015b600581116106305760008382600b811061053757610537610fd6565b6020020151905060008461054c6005856110a8565b600b811061055c5761055c610fd6565b6020020151905060018311801561059357508461057b600560016110a8565b600b811061058b5761058b610fd6565b602002015181145b1561059f575050610630565b60008181526047602052604090205460ff16156105f65760405162461bcd60e51b815260206004820152601560248201527411195c1bdcda5d08185b1c9958591e481cdc195b9d605a1b604482015260640161044a565b6000818152604760205260409020805460ff1916600117905561061982856110a8565b935050508080610628906110bb565b91505061051b565b50878110156106a75760405162461bcd60e51b815260206004820152603760248201527f576974686472617720616d6f756e74203e2076616c75652073746f726564206960448201527f6e2074686520737065636966696564206c65617665732e000000000000000000606482015260840161044a565b6106bb87876106b68b856110d4565b6108d2565b604051339089156108fc02908a906000818181858888f193505050501580156106e8573d6000803e3d6000fd5b505050505050505050565b6046818154811061070357600080fd5b6000918252602091829020604080518082019091526003909202018054825260018101549282019290925260028201805491935090610741906110e7565b80601f016020809104026020016040519081016040528092919081815260200182805461076d906110e7565b80156107ba5780601f1061078f576101008083540402835291602001916107ba565b820191906000526020600020905b81548152906001019060200180831161079d57829003601f168201915b5050505050905082565b6000341161081f5760405162461bcd60e51b815260206004820152602260248201527f4465706f73697465642065746865722076616c7565206d757374206265203e20604482015261181760f11b606482015260840161044a565b61082a8282346108d2565b5050565b604660405180604001604052808580360381019061084c919061111b565b815260200184848080601f0160208091040260200160405190810160405280939291908181526020018383808284376000920182905250939094525050835460018181018655948252602091829020845180516003909302909101918255820151948101949094558201519192916002830191506108ca9082611182565b505050505050565b60006040518060600160405280858036038101906108f0919061111b565b81526020016109043686900386018661111b565b8152602090810184905260408051835180518252830151818401528383015180518284015290920151606083015282015160808201529091507f0570a54f1916569668bb02c5d54e6e6faaf265f1cfeb92ab6b712c9ce9661bd39060a00160405180910390a161097b610976826102a0565b610982565b5050505050565b60007f30644e72e131a029b85045b68181585d2833e84879b9709143e1f593f00000018210610a295760405162461bcd60e51b815260206004820152604760248201527f496e6372656d656e74616c4d65726b6c65547265653a20696e736572744c656160448201527f6620617267756d656e74206d757374206265203c20534e41524b5f5343414c416064820152661497d19251531160ca1b608482015260a40161044a565b60015460005460ff16610a3d816002611326565b8210610a975760405162461bcd60e51b815260206004820152602360248201527f496e6372656d656e74616c4d65726b6c65547265653a207472656520697320666044820152621d5b1b60ea1b606482015260840161044a565b83600080805b60005460ff9081169082161015610b3e57610ab9600287611332565b600003610afb5783925060038160ff1660208110610ad957610ad9610fd6565b015491508360238260ff1660208110610af457610af4610fd6565b0155610b19565b60238160ff1660208110610b1157610b11610fd6565b015492508391505b610b23838361034c565b60019690961c95935080610b3681611354565b915050610a9d565b50826002819055506001806000828254610b5891906110a8565b9091555094979650505050505050565b634e487b7160e01b600052604160045260246000fd5b6040805190810167ffffffffffffffff81118282101715610ba157610ba1610b68565b60405290565b600060408284031215610bb957600080fd5b6040516040810181811067ffffffffffffffff82111715610bdc57610bdc610b68565b604052823581526020928301359281019290925250919050565b600060a08284031215610c0857600080fd5b6040516060810181811067ffffffffffffffff82111715610c2b57610c2b610b68565b604052610c388484610ba7565b8152610c478460408501610ba7565b602082015260809290920135604083015250919050565b60008060408385031215610c7157600080fd5b50508035926020909101359150565b600060208284031215610c9257600080fd5b5035919050565b600060408284031215610cab57600080fd5b50919050565b600082601f830112610cc257600080fd5b610cca610b7e565b806040840185811115610cdc57600080fd5b845b81811015610cf6578035845260209384019301610cde565b509095945050505050565b600082601f830112610d1257600080fd5b60405161016080820182811067ffffffffffffffff82111715610d3757610d37610b68565b60405283018185821115610d4a57600080fd5b845b82811015610d64578035825260209182019101610d4c565b509195945050505050565b6000806000806000806000610300888a031215610d8b57600080fd5b873596506020610d9d8a828b01610c99565b9650610dac8a60608b01610c99565b9550610dbb8a60a08b01610cb1565b94508960ff8a0112610dcc57600080fd5b610dd4610b7e565b806101608b018c811115610de757600080fd5b60e08c015b81811015610e0c57610dfe8e82610cb1565b845292840192604001610dec565b50819650610e1a8d82610cb1565b955050505050610e2e896101a08a01610d01565b905092959891949750929550565b8251815260208084015190820152606060408201526000825180606084015260005b81811015610e7b5760208186018101516080868401015201610e5e565b506000608082850101526080601f19601f8301168401019150509392505050565b60008060808385031215610eaf57600080fd5b610eb98484610c99565b9150610ec88460408501610c99565b90509250929050565b600080600060608486031215610ee657600080fd5b610ef08585610c99565b9250604084013567ffffffffffffffff80821115610f0d57600080fd5b818601915086601f830112610f2157600080fd5b813581811115610f3057600080fd5b876020828501011115610f4257600080fd5b6020830194508093505050509250925092565b60a08101818360005b6005811015610f7d578151835260209283019290910190600101610f5e565b50505092915050565b600060208284031215610f9857600080fd5b5051919050565b8060005b6002811015610fc2578151845260209384019390910190600101610fa3565b50505050565b604081016103468284610f9f565b634e487b7160e01b600052603260045260246000fd5b6102608101610ffb8287610f9f565b60408083018660005b600281101561102b57611018838351610f9f565b9183019160209190910190600101611004565b5050505061103c60c0830185610f9f565b61010082018360005b600b811015611064578151835260209283019290910190600101611045565b50505095945050505050565b60006020828403121561108257600080fd5b815180151581146103cf57600080fd5b634e487b7160e01b600052601160045260246000fd5b8082018082111561034657610346611092565b6000600182016110cd576110cd611092565b5060010190565b8181038181111561034657610346611092565b600181811c908216806110fb57607f821691505b602082108103610cab57634e487b7160e01b600052602260045260246000fd5b60006040828403121561112d57600080fd5b6103cf8383610ba7565b601f82111561117d57600081815260208120601f850160051c8101602086101561115e5750805b601f850160051c820191505b818110156108ca5782815560010161116a565b505050565b815167ffffffffffffffff81111561119c5761119c610b68565b6111b0816111aa84546110e7565b84611137565b602080601f8311600181146111e557600084156111cd5750858301515b600019600386901b1c1916600185901b1785556108ca565b600085815260208120601f198616915b82811015611214578886015182559484019460019091019084016111f5565b50858210156112325787850151600019600388901b60f8161c191681555b5050505050600190811b01905550565b600181815b8085111561127d57816000190482111561126357611263611092565b8085161561127057918102915b93841c9390800290611247565b509250929050565b60008261129457506001610346565b816112a157506000610346565b81600181146112b757600281146112c1576112dd565b6001915050610346565b60ff8411156112d2576112d2611092565b50506001821b610346565b5060208310610133831016604e8410600b8410161715611300575081810a610346565b61130a8383611242565b806000190482111561131e5761131e611092565b029392505050565b60006103cf8383611285565b60008261134f57634e487b7160e01b600052601260045260246000fd5b500690565b600060ff821660ff810361136a5761136a611092565b6001019291505056fea26469706673582212203ff27ba03adcd70aece0f060334ffe01712280478a4295cab2f57bedce1ee86b64736f6c63430008110033",
    "linkReferences": {}
  },
  "methodIdentifiers": {
    "POSEIDON_T3_ADDR()": "a64863a2",
    "POSEIDON_T6_ADDR()": "f163536b",
    "VERIFIER_ADDR()": "7bb885be",
    "_hashLeaf(((bytes32,bytes32),(bytes32,bytes32),uint256))": "2e5ca4d3",
    "_hashLeftRight(uint256,uint256)": "3728abae",
    "create((bytes32,bytes32),string)": "ec74f590",
    "deposit((bytes32,bytes32),(bytes32,bytes32))": "ca3e9ecf",
    "directory(uint256)": "7d611a26",
    "getDirectoryLength()": "9fdc0ea6",
    "getNumDeposits()": "d37ad4be",
    "root()": "ebf0c717",
    "spentLeaves(uint256)": "3f42bf66",
    "withdraw(uint256,(bytes32,bytes32),(bytes32,bytes32),uint256[2],uint256[2][2],uint256[2],uint256[11])": "6502b6cb"
  },
  "id": 8
}