{
  "abi": [
    {
      "inputs": [],
      "stateMutability": "nonpayable",
      "type": "constructor"
    },
    {
      "anonymous": false,
      "inputs": [
        {
          "components": [
            {
              "components": [
                {
                  "internalType": "bytes32",
                  "name": "x",
                  "type": "bytes32"
                },
                {
                  "internalType": "bytes32",
                  "name": "y",
                  "type": "bytes32"
                }
              ],
              "internalType": "struct PrivateTreasury.Point",
              "name": "P",
              "type": "tuple"
            },
            {
              "components": [
                {
                  "internalType": "bytes32",
                  "name": "x",
                  "type": "bytes32"
                },
                {
                  "internalType": "bytes32",
                  "name": "y",
                  "type": "bytes32"
                }
              ],
              "internalType": "struct PrivateTreasury.Point",
              "name": "Q",
              "type": "tuple"
            },
            {
              "internalType": "uint256",
              "name": "v",
              "type": "uint256"
            }
          ],
          "indexed": false,
          "internalType": "struct PrivateTreasury.Leaf",
          "name": "lf",
          "type": "tuple"
        }
      ],
      "name": "NewLeaf",
      "type": "event"
    },
    {
      "inputs": [],
      "name": "POSEIDON_T3_ADDR",
      "outputs": [
        {
          "internalType": "address",
          "name": "",
          "type": "address"
        }
      ],
      "stateMutability": "view",
      "type": "function"
    },
    {
      "inputs": [],
      "name": "POSEIDON_T6_ADDR",
      "outputs": [
        {
          "internalType": "address",
          "name": "",
          "type": "address"
        }
      ],
      "stateMutability": "view",
      "type": "function"
    },
    {
      "inputs": [],
      "name": "VERIFIER_ADDR",
      "outputs": [
        {
          "internalType": "address",
          "name": "",
          "type": "address"
        }
      ],
      "stateMutability": "view",
      "type": "function"
    },
    {
      "inputs": [
        {
          "components": [
            {
              "components": [
                {
                  "internalType": "bytes32",
                  "name": "x",
                  "type": "bytes32"
                },
                {
                  "internalType": "bytes32",
                  "name": "y",
                  "type": "bytes32"
                }
              ],
              "internalType": "struct PrivateTreasury.Point",
              "name": "P",
              "type": "tuple"
            },
            {
              "components": [
                {
                  "internalType": "bytes32",
                  "name": "x",
                  "type": "bytes32"
                },
                {
                  "internalType": "bytes32",
                  "name": "y",
                  "type": "bytes32"
                }
              ],
              "internalType": "struct PrivateTreasury.Point",
              "name": "Q",
              "type": "tuple"
            },
            {
              "internalType": "uint256",
              "name": "v",
              "type": "uint256"
            }
          ],
          "internalType": "struct PrivateTreasury.Leaf",
          "name": "lf",
          "type": "tuple"
        }
      ],
      "name": "_hashLeaf",
      "outputs": [
        {
          "internalType": "uint256",
          "name": "",
          "type": "uint256"
        }
      ],
      "stateMutability": "view",
      "type": "function"
    },
    {
      "inputs": [
        {
          "internalType": "uint256",
          "name": "l",
          "type": "uint256"
        },
        {
          "internalType": "uint256",
          "name": "r",
          "type": "uint256"
        }
      ],
      "name": "_hashLeftRight",
      "outputs": [
        {
          "internalType": "uint256",
          "name": "",
          "type": "uint256"
        }
      ],
      "stateMutability": "view",
      "type": "function"
    },
    {
      "inputs": [
        {
          "components": [
            {
              "internalType": "bytes32",
              "name": "x",
              "type": "bytes32"
            },
            {
              "internalType": "bytes32",
              "name": "y",
              "type": "bytes32"
            }
          ],
          "internalType": "struct PrivateTreasury.Point",
          "name": "pk",
          "type": "tuple"
        },
        {
          "internalType": "string",
          "name": "label",
          "type": "string"
        }
      ],
      "name": "create",
      "outputs": [],
      "stateMutability": "nonpayable",
      "type": "function"
    },
    {
      "inputs": [
        {
          "components": [
            {
              "internalType": "bytes32",
              "name": "x",
              "type": "bytes32"
            },
            {
              "internalType": "bytes32",
              "name": "y",
              "type": "bytes32"
            }
          ],
          "internalType": "struct PrivateTreasury.Point",
          "name": "P",
          "type": "tuple"
        },
        {
          "components": [
            {
              "internalType": "bytes32",
              "name": "x",
              "type": "bytes32"
            },
            {
              "internalType": "bytes32",
              "name": "y",
              "type": "bytes32"
            }
          ],
          "internalType": "struct PrivateTreasury.Point",
          "name": "Q",
          "type": "tuple"
        }
      ],
      "name": "deposit",
      "outputs": [],
      "stateMutability": "payable",
      "type": "function"
    },
    {
      "inputs": [
        {
          "internalType": "uint256",
          "name": "",
          "type": "uint256"
        }
      ],
      "name": "directory",
      "outputs": [
        {
          "components": [
            {
              "internalType": "bytes32",
              "name": "x",
              "type": "bytes32"
            },
            {
              "internalType": "bytes32",
              "name": "y",
              "type": "bytes32"
            }
          ],
          "internalType": "struct PrivateTreasury.Point",
          "name": "pk",
          "type": "tuple"
        },
        {
          "internalType": "string",
          "name": "label",
          "type": "string"
        }
      ],
      "stateMutability": "view",
      "type": "function"
    },
    {
      "inputs": [],
      "name": "getDirectoryLength",
      "outputs": [
        {
          "internalType": "uint256",
          "name": "",
          "type": "uint256"
        }
      ],
      "stateMutability": "view",
      "type": "function"
    },
    {
      "inputs": [],
      "name": "getNumDeposits",
      "outputs": [
        {
          "internalType": "uint256",
          "name": "",
          "type": "uint256"
        }
      ],
      "stateMutability": "view",
      "type": "function"
    },
    {
      "inputs": [],
      "name": "root",
      "outputs": [
        {
          "internalType": "uint256",
          "name": "",
          "type": "uint256"
        }
      ],
      "stateMutability": "view",
      "type": "function"
    },
    {
      "inputs": [
        {
          "internalType": "uint256[2]",
          "name": "a",
          "type": "uint256[2]"
        },
        {
          "internalType": "uint256[2][2]",
          "name": "b",
          "type": "uint256[2][2]"
        },
        {
          "internalType": "uint256[2]",
          "name": "c",
          "type": "uint256[2]"
        },
        {
          "internalType": "uint256[11]",
          "name": "publicSignals",
          "type": "uint256[11]"
        }
      ],
      "name": "withdraw",
      "outputs": [],
      "stateMutability": "payable",
      "type": "function"
    }
  ],
  "bytecode": {
    "object": "0x60806040526000600155604380546001600160a01b031990811673dc64a140aa3e981100a9beca4e685f962f0cf6c917909155604480548216738464135c8f25da09e49bc8782676a84730c318bc179055604580549091167371c95911e9a5d330f4d621842ec243ee1343292e1790553480156200007c57600080fd5b506000805460ff191660209081179091557f12817f4161f2f5ded33f26c55735a77e80e4f8975483c8c2704745128417f71160038190558060015b8360ff168160ff16101562000125576000620000d483806200013f565b90508060038360ff1660208110620000f057620000f0620001ce565b015580602360ff8416602081106200010c576200010c620001ce565b01559150806200011c81620001e4565b915050620000b7565b506200013281806200013f565b600255506200025f915050565b6044546040805180820182528481526020810184905290516314d2f97b60e11b81526000926001600160a01b0316916329a5f2f69162000183919060040162000212565b602060405180830381865afa158015620001a1573d6000803e3d6000fd5b505050506040513d601f19601f82011682018060405250810190620001c7919062000245565b9392505050565b634e487b7160e01b600052603260045260246000fd5b600060ff821660ff81036200020957634e487b7160e01b600052601160045260246000fd5b60010192915050565b60408101818360005b60028110156200023c5781518352602092830192909101906001016200021b565b50505092915050565b6000602082840312156200025857600080fd5b5051919050565b61124c806200026f6000396000f3fe6080604052600436106100a75760003560e01c8063b049c59611610064578063b049c596146101aa578063ca3e9ecf146101bf578063d37ad4be146101d2578063ebf0c717146101e7578063ec74f590146101fd578063f163536b1461021d57600080fd5b80632e5ca4d3146100ac5780633728abae146100df5780637bb885be146100ff5780637d611a261461013f5780639fdc0ea61461016d578063a64863a214610182575b600080fd5b3480156100b857600080fd5b506100cc6100c7366004610b0f565b610245565b6040519081526020015b60405180910390f35b3480156100eb57600080fd5b506100cc6100fa366004610b77565b6102f1565b34801561010b57600080fd5b5061012773dc64a140aa3e981100a9beca4e685f962f0cf6c981565b6040516001600160a01b0390911681526020016100d6565b34801561014b57600080fd5b5061015f61015a366004610b99565b61037b565b6040516100d6929190610bb2565b34801561017957600080fd5b506046546100cc565b34801561018e57600080fd5b50610127738464135c8f25da09e49bc8782676a84730c318bc81565b6101bd6101b8366004610c62565b61044c565b005b6101bd6101cd366004610d58565b6106ca565b3480156101de57600080fd5b506001546100cc565b3480156101f357600080fd5b506100cc60025481565b34801561020957600080fd5b506101bd610218366004610d8d565b6107d3565b34801561022957600080fd5b506101277371c95911e9a5d330f4d621842ec243ee1343292e81565b6045546040805160a08101825283515181528351602090810151818301528085018051518385015251015160608201528382015160808201529051630926f44b60e31b81526000926001600160a01b031691634937a258916102aa9190600401610e11565b602060405180830381865afa1580156102c7573d6000803e3d6000fd5b505050506040513d601f19601f820116820180604052508101906102eb9190610e42565b92915050565b6044546040805180820182528481526020810184905290516314d2f97b60e11b81526000926001600160a01b0316916329a5f2f6916103339190600401610e7e565b602060405180830381865afa158015610350573d6000803e3d6000fd5b505050506040513d601f19601f820116820180604052508101906103749190610e42565b9392505050565b6046818154811061038b57600080fd5b60009182526020918290206040805180820190915260039092020180548252600181015492820192909252600282018054919350906103c990610e8c565b80601f01602080910402602001604051908101604052809291908181526020018280546103f590610e8c565b80156104425780601f1061041757610100808354040283529160200191610442565b820191906000526020600020905b81548152906001019060200180831161042557829003601f168201915b5050505050905082565b6002548151146104c95760405162461bcd60e51b815260206004820152603c60248201527f4d65726b6c6520726f6f74206173736f63696174656420772f2070726f6f662060448201527f646f65736e2774206d61746368206f6e2d636861696e20726f6f742e0000000060648201526084015b60405180910390fd5b60435460405163b9c6ea8760e01b81526001600160a01b039091169063b9c6ea87906104ff908790879087908790600401610ed6565b602060405180830381865afa15801561051c573d6000803e3d6000fd5b505050506040513d601f19601f820116820180604052508101906105409190610f5a565b61058c5760405162461bcd60e51b815260206004820152601860248201527f496e76616c6964207769746864726177616c2070726f6f66000000000000000060448201526064016104c0565b60015b600581116106c35760008282600b81106105ab576105ab610ec0565b602002015190506000836105c0600585610f92565b600b81106105d0576105d0610ec0565b602002015190506001831180156106075750836105ef60056001610f92565b600b81106105ff576105ff610ec0565b602002015181145b156106135750506106c3565b60008181526047602052604090205460ff161561066a5760405162461bcd60e51b815260206004820152601560248201527411195c1bdcda5d08185b1c9958591e481cdc195b9d605a1b60448201526064016104c0565b600081815260476020526040808220805460ff1916600117905551339184156108fc02918591818181858888f193505050501580156106ad573d6000803e3d6000fd5b50505080806106bb90610fa5565b91505061058f565b5050505050565b600034116107255760405162461bcd60e51b815260206004820152602260248201527f4465706f73697465642065746865722076616c7565206d757374206265203e20604482015261181760f11b60648201526084016104c0565b60006040518060600160405280848036038101906107439190610fbe565b815260200161075736859003850185610fbe565b81523460209182015260408051835180518252830151818401528383015180518284015290920151606083015282015160808201529091507f0570a54f1916569668bb02c5d54e6e6faaf265f1cfeb92ab6b712c9ce9661bd39060a00160405180910390a16107cd6107c882610245565b610877565b50505050565b60466040518060400160405280858036038101906107f19190610fbe565b815260200184848080601f01602080910402602001604051908101604052809392919081815260200183838082843760009201829052509390945250508354600181810186559482526020918290208451805160039093029091019182558201519481019490945582015191929160028301915061086f9082611025565b505050505050565b60007f30644e72e131a029b85045b68181585d2833e84879b9709143e1f593f0000001821061091e5760405162461bcd60e51b815260206004820152604760248201527f496e6372656d656e74616c4d65726b6c65547265653a20696e736572744c656160448201527f6620617267756d656e74206d757374206265203c20534e41524b5f5343414c416064820152661497d19251531160ca1b608482015260a4016104c0565b60015460005460ff166109328160026111c9565b821061098c5760405162461bcd60e51b815260206004820152602360248201527f496e6372656d656e74616c4d65726b6c65547265653a207472656520697320666044820152621d5b1b60ea1b60648201526084016104c0565b83600080805b60005460ff9081169082161015610a33576109ae6002876111d5565b6000036109f05783925060038160ff16602081106109ce576109ce610ec0565b015491508360238260ff16602081106109e9576109e9610ec0565b0155610a0e565b60238160ff1660208110610a0657610a06610ec0565b015492508391505b610a1883836102f1565b60019690961c95935080610a2b816111f7565b915050610992565b50826002819055506001806000828254610a4d9190610f92565b9091555094979650505050505050565b634e487b7160e01b600052604160045260246000fd5b6040805190810167ffffffffffffffff81118282101715610a9657610a96610a5d565b60405290565b604051610160810167ffffffffffffffff81118282101715610a9657610a96610a5d565b600060408284031215610ad257600080fd5b6040516040810181811067ffffffffffffffff82111715610af557610af5610a5d565b604052823581526020928301359281019290925250919050565b600060a08284031215610b2157600080fd5b6040516060810181811067ffffffffffffffff82111715610b4457610b44610a5d565b604052610b518484610ac0565b8152610b608460408501610ac0565b602082015260809290920135604083015250919050565b60008060408385031215610b8a57600080fd5b50508035926020909101359150565b600060208284031215610bab57600080fd5b5035919050565b8251815260208084015190820152606060408201526000825180606084015260005b81811015610bf15760208186018101516080868401015201610bd4565b506000608082850101526080601f19601f8301168401019150509392505050565b600082601f830112610c2357600080fd5b610c2b610a73565b806040840185811115610c3d57600080fd5b845b81811015610c57578035845260209384019301610c3f565b509095945050505050565b600080600080610260808688031215610c7a57600080fd5b610c848787610c12565b9450604087605f880112610c9757600080fd5b610c9f610a73565b8060c089018a811115610cb157600080fd5b838a015b81811015610cd657610cc78c82610c12565b84526020909301928401610cb5565b50819750610ce48b82610c12565b9650505050508661011f870112610cfa57600080fd5b610d02610a9c565b908601908088831115610d1457600080fd5b61010088015b83811015610d32578035835260209283019201610d1a565b509598949750929550505050565b600060408284031215610d5257600080fd5b50919050565b60008060808385031215610d6b57600080fd5b610d758484610d40565b9150610d848460408501610d40565b90509250929050565b600080600060608486031215610da257600080fd5b610dac8585610d40565b9250604084013567ffffffffffffffff80821115610dc957600080fd5b818601915086601f830112610ddd57600080fd5b813581811115610dec57600080fd5b876020828501011115610dfe57600080fd5b6020830194508093505050509250925092565b60a08101818360005b6005811015610e39578151835260209283019290910190600101610e1a565b50505092915050565b600060208284031215610e5457600080fd5b5051919050565b8060005b60028110156107cd578151845260209384019390910190600101610e5f565b604081016102eb8284610e5b565b600181811c90821680610ea057607f821691505b602082108103610d5257634e487b7160e01b600052602260045260246000fd5b634e487b7160e01b600052603260045260246000fd5b6102608101610ee58287610e5b565b60408083018660005b6002811015610f1557610f02838351610e5b565b9183019160209190910190600101610eee565b50505050610f2660c0830185610e5b565b61010082018360005b600b811015610f4e578151835260209283019290910190600101610f2f565b50505095945050505050565b600060208284031215610f6c57600080fd5b8151801515811461037457600080fd5b634e487b7160e01b600052601160045260246000fd5b808201808211156102eb576102eb610f7c565b600060018201610fb757610fb7610f7c565b5060010190565b600060408284031215610fd057600080fd5b6103748383610ac0565b601f82111561102057600081815260208120601f850160051c810160208610156110015750805b601f850160051c820191505b8181101561086f5782815560010161100d565b505050565b815167ffffffffffffffff81111561103f5761103f610a5d565b6110538161104d8454610e8c565b84610fda565b602080601f83116001811461108857600084156110705750858301515b600019600386901b1c1916600185901b17855561086f565b600085815260208120601f198616915b828110156110b757888601518255948401946001909101908401611098565b50858210156110d55787850151600019600388901b60f8161c191681555b5050505050600190811b01905550565b600181815b8085111561112057816000190482111561110657611106610f7c565b8085161561111357918102915b93841c93908002906110ea565b509250929050565b600082611137575060016102eb565b81611144575060006102eb565b816001811461115a576002811461116457611180565b60019150506102eb565b60ff84111561117557611175610f7c565b50506001821b6102eb565b5060208310610133831016604e8410600b84101617156111a3575081810a6102eb565b6111ad83836110e5565b80600019048211156111c1576111c1610f7c565b029392505050565b60006103748383611128565b6000826111f257634e487b7160e01b600052601260045260246000fd5b500690565b600060ff821660ff810361120d5761120d610f7c565b6001019291505056fea2646970667358221220060791612d269ffb0ac47bf483a2b6919b501867a54ea593d8059a6aa6f5758264736f6c63430008110033",
    "linkReferences": {}
  },
  "methodIdentifiers": {
    "POSEIDON_T3_ADDR()": "a64863a2",
    "POSEIDON_T6_ADDR()": "f163536b",
    "VERIFIER_ADDR()": "7bb885be",
    "_hashLeaf(((bytes32,bytes32),(bytes32,bytes32),uint256))": "2e5ca4d3",
    "_hashLeftRight(uint256,uint256)": "3728abae",
    "create((bytes32,bytes32),string)": "ec74f590",
    "deposit((bytes32,bytes32),(bytes32,bytes32))": "ca3e9ecf",
    "directory(uint256)": "7d611a26",
    "getDirectoryLength()": "9fdc0ea6",
    "getNumDeposits()": "d37ad4be",
    "root()": "ebf0c717",
    "withdraw(uint256[2],uint256[2][2],uint256[2],uint256[11])": "b049c596"
  },
  "id": 8
}