{
  "abi": [
    {
      "inputs": [],
      "name": "VERIFIER_ADDR",
      "outputs": [
        {
          "internalType": "address",
          "name": "",
          "type": "address"
        }
      ],
      "stateMutability": "view",
      "type": "function"
    },
    {
      "inputs": [
        {
          "components": [
            {
              "internalType": "bytes32",
              "name": "x",
              "type": "bytes32"
            },
            {
              "internalType": "bytes32",
              "name": "y",
              "type": "bytes32"
            }
          ],
          "internalType": "struct PrivateTreasury.Point",
          "name": "pk",
          "type": "tuple"
        },
        {
          "internalType": "string",
          "name": "label",
          "type": "string"
        }
      ],
      "name": "create",
      "outputs": [],
      "stateMutability": "nonpayable",
      "type": "function"
    },
    {
      "inputs": [
        {
          "components": [
            {
              "internalType": "bytes32",
              "name": "x",
              "type": "bytes32"
            },
            {
              "internalType": "bytes32",
              "name": "y",
              "type": "bytes32"
            }
          ],
          "internalType": "struct PrivateTreasury.Point",
          "name": "P",
          "type": "tuple"
        },
        {
          "components": [
            {
              "internalType": "bytes32",
              "name": "x",
              "type": "bytes32"
            },
            {
              "internalType": "bytes32",
              "name": "y",
              "type": "bytes32"
            }
          ],
          "internalType": "struct PrivateTreasury.Point",
          "name": "Q",
          "type": "tuple"
        }
      ],
      "name": "deposit",
      "outputs": [],
      "stateMutability": "payable",
      "type": "function"
    },
    {
      "inputs": [
        {
          "internalType": "uint256",
          "name": "",
          "type": "uint256"
        }
      ],
      "name": "deposits",
      "outputs": [
        {
          "components": [
            {
              "internalType": "bytes32",
              "name": "x",
              "type": "bytes32"
            },
            {
              "internalType": "bytes32",
              "name": "y",
              "type": "bytes32"
            }
          ],
          "internalType": "struct PrivateTreasury.Point",
          "name": "P",
          "type": "tuple"
        },
        {
          "components": [
            {
              "internalType": "bytes32",
              "name": "x",
              "type": "bytes32"
            },
            {
              "internalType": "bytes32",
              "name": "y",
              "type": "bytes32"
            }
          ],
          "internalType": "struct PrivateTreasury.Point",
          "name": "Q",
          "type": "tuple"
        },
        {
          "internalType": "uint256",
          "name": "v",
          "type": "uint256"
        },
        {
          "internalType": "bool",
          "name": "spent",
          "type": "bool"
        }
      ],
      "stateMutability": "view",
      "type": "function"
    },
    {
      "inputs": [
        {
          "internalType": "uint256",
          "name": "",
          "type": "uint256"
        }
      ],
      "name": "directory",
      "outputs": [
        {
          "components": [
            {
              "internalType": "bytes32",
              "name": "x",
              "type": "bytes32"
            },
            {
              "internalType": "bytes32",
              "name": "y",
              "type": "bytes32"
            }
          ],
          "internalType": "struct PrivateTreasury.Point",
          "name": "pk",
          "type": "tuple"
        },
        {
          "internalType": "string",
          "name": "label",
          "type": "string"
        }
      ],
      "stateMutability": "view",
      "type": "function"
    },
    {
      "inputs": [],
      "name": "getDirectoryLength",
      "outputs": [
        {
          "internalType": "uint256",
          "name": "",
          "type": "uint256"
        }
      ],
      "stateMutability": "view",
      "type": "function"
    },
    {
      "inputs": [],
      "name": "getNumDeposits",
      "outputs": [
        {
          "internalType": "uint256",
          "name": "",
          "type": "uint256"
        }
      ],
      "stateMutability": "view",
      "type": "function"
    },
    {
      "inputs": [
        {
          "internalType": "uint256[2]",
          "name": "a",
          "type": "uint256[2]"
        },
        {
          "internalType": "uint256[2][2]",
          "name": "b",
          "type": "uint256[2][2]"
        },
        {
          "internalType": "uint256[2]",
          "name": "c",
          "type": "uint256[2]"
        },
        {
          "internalType": "uint256[4]",
          "name": "publicSignals",
          "type": "uint256[4]"
        }
      ],
      "name": "withdraw",
      "outputs": [],
      "stateMutability": "nonpayable",
      "type": "function"
    }
  ],
  "bytecode": {
    "object": "0x6080604052600080546001600160a01b0319167309635f643e140090a9a8dcd712ed6285858cebef17905534801561003657600080fd5b50610af2806100466000396000f3fe60806040526004361061007b5760003560e01c8063b02c43d01161004e578063b02c43d014610134578063ca3e9ecf1461018d578063d37ad4be146101a0578063ec74f590146101b557600080fd5b8063551c4fd2146100805780637bb885be146100a25780637d611a26146100e75780639fdc0ea614610115575b600080fd5b34801561008c57600080fd5b506100a061009b366004610636565b6101d5565b005b3480156100ae57600080fd5b506100ca7309635f643e140090a9a8dcd712ed6285858cebef81565b6040516001600160a01b0390911681526020015b60405180910390f35b3480156100f357600080fd5b50610107610102366004610714565b6102a3565b6040516100de92919061072d565b34801561012157600080fd5b506001545b6040519081526020016100de565b34801561014057600080fd5b5061015461014f366004610714565b610374565b604080518551815260209586015186820152845191810191909152939092015160608401526080830152151560a082015260c0016100de565b6100a061019b3660046107a5565b6103de565b3480156101ac57600080fd5b50600254610126565b3480156101c157600080fd5b506100a06101d03660046107da565b6104e0565b600054604051635fe8c13b60e01b81526001600160a01b0390911690635fe8c13b9061020b908790879087908790600401610881565b602060405180830381865afa158015610228573d6000803e3d6000fd5b505050506040513d601f19601f8201168201806040525081019061024c9190610905565b61029d5760405162461bcd60e51b815260206004820152601860248201527f496e76616c6964207769746864726177616c2070726f6f66000000000000000060448201526064015b60405180910390fd5b50505050565b600181815481106102b357600080fd5b60009182526020918290206040805180820190915260039092020180548252600181015492820192909252600282018054919350906102f19061092e565b80601f016020809104026020016040519081016040528092919081815260200182805461031d9061092e565b801561036a5780601f1061033f5761010080835404028352916020019161036a565b820191906000526020600020905b81548152906001019060200180831161034d57829003601f168201915b5050505050905082565b6002818154811061038457600080fd5b60009182526020918290206040805180820182526006909302909101805483526001810154838501528151808301909252600281015482526003810154938201939093526004830154600590930154919350919060ff1684565b600034116104395760405162461bcd60e51b815260206004820152602260248201527f4465706f73697465642065746865722076616c7565206d757374206265203e20604482015261181760f11b6064820152608401610294565b60026040518060800160405280848036038101906104579190610962565b815260200161046b36859003850185610962565b8152346020808301919091526000604092830181905284546001808201875595825290829020845180516006909302909101918255820151948101949094558281015180516002860155015160038401558101516004830155606001516005909101805460ff19169115159190911790555050565b60016040518060400160405280858036038101906104fe9190610962565b815260200184848080601f01602080910402602001604051908101604052809392919081815260200183838082843760009201829052509390945250508354600181810186559482526020918290208451805160039093029091019182558201519481019490945582015191929160028301915061057c90826109fc565b505050505050565b634e487b7160e01b600052604160045260246000fd5b6040805190810167ffffffffffffffff811182821017156105bd576105bd610584565b60405290565b6040516080810167ffffffffffffffff811182821017156105bd576105bd610584565b600082601f8301126105f757600080fd5b6105ff61059a565b80604084018581111561061157600080fd5b845b8181101561062b578035845260209384019301610613565b509095945050505050565b60008060008061018080868803121561064e57600080fd5b61065887876105e6565b9450604087605f88011261066b57600080fd5b61067361059a565b8060c089018a81111561068557600080fd5b838a015b818110156106aa5761069b8c826105e6565b84526020909301928401610689565b508197506106b88b826105e6565b9650505050508661011f8701126106ce57600080fd5b6106d66105c3565b9086019080888311156106e857600080fd5b61010088015b838110156107065780358352602092830192016106ee565b509598949750929550505050565b60006020828403121561072657600080fd5b5035919050565b8251815260208084015190820152606060408201526000825180606084015260005b8181101561076c576020818601810151608086840101520161074f565b506000608082850101526080601f19601f8301168401019150509392505050565b60006040828403121561079f57600080fd5b50919050565b600080608083850312156107b857600080fd5b6107c2848461078d565b91506107d1846040850161078d565b90509250929050565b6000806000606084860312156107ef57600080fd5b6107f9858561078d565b9250604084013567ffffffffffffffff8082111561081657600080fd5b818601915086601f83011261082a57600080fd5b81358181111561083957600080fd5b87602082850101111561084b57600080fd5b6020830194508093505050509250925092565b8060005b600281101561029d578151845260209384019390910190600101610862565b6101808101610890828761085e565b60408083018660005b60028110156108c0576108ad83835161085e565b9183019160209190910190600101610899565b505050506108d160c083018561085e565b61010082018360005b60048110156108f95781518352602092830192909101906001016108da565b50505095945050505050565b60006020828403121561091757600080fd5b8151801515811461092757600080fd5b9392505050565b600181811c9082168061094257607f821691505b60208210810361079f57634e487b7160e01b600052602260045260246000fd5b60006040828403121561097457600080fd5b6040516040810181811067ffffffffffffffff8211171561099757610997610584565b604052823581526020928301359281019290925250919050565b601f8211156109f757600081815260208120601f850160051c810160208610156109d85750805b601f850160051c820191505b8181101561057c578281556001016109e4565b505050565b815167ffffffffffffffff811115610a1657610a16610584565b610a2a81610a24845461092e565b846109b1565b602080601f831160018114610a5f5760008415610a475750858301515b600019600386901b1c1916600185901b17855561057c565b600085815260208120601f198616915b82811015610a8e57888601518255948401946001909101908401610a6f565b5085821015610aac5787850151600019600388901b60f8161c191681555b5050505050600190811b0190555056fea2646970667358221220f292174f3ac716d15e69d7b4d70085eb82b4e11fdadf31285d2ef49101b1f3c564736f6c63430008100033",
    "linkReferences": {}
  },
  "methodIdentifiers": {
    "VERIFIER_ADDR()": "7bb885be",
    "create((bytes32,bytes32),string)": "ec74f590",
    "deposit((bytes32,bytes32),(bytes32,bytes32))": "ca3e9ecf",
    "deposits(uint256)": "b02c43d0",
    "directory(uint256)": "7d611a26",
    "getDirectoryLength()": "9fdc0ea6",
    "getNumDeposits()": "d37ad4be",
    "withdraw(uint256[2],uint256[2][2],uint256[2],uint256[4])": "551c4fd2"
  },
  "id": 7
}