{
  "abi": [
    {
      "inputs": [],
      "name": "VERIFIER_ADDR",
      "outputs": [
        {
          "internalType": "address",
          "name": "",
          "type": "address"
        }
      ],
      "stateMutability": "view",
      "type": "function"
    },
    {
      "inputs": [
        {
          "components": [
            {
              "internalType": "bytes32",
              "name": "x",
              "type": "bytes32"
            },
            {
              "internalType": "bytes32",
              "name": "y",
              "type": "bytes32"
            }
          ],
          "internalType": "struct PrivateTreasury.Point",
          "name": "pk",
          "type": "tuple"
        },
        {
          "internalType": "string",
          "name": "label",
          "type": "string"
        }
      ],
      "name": "create",
      "outputs": [],
      "stateMutability": "nonpayable",
      "type": "function"
    },
    {
      "inputs": [
        {
          "components": [
            {
              "internalType": "bytes32",
              "name": "x",
              "type": "bytes32"
            },
            {
              "internalType": "bytes32",
              "name": "y",
              "type": "bytes32"
            }
          ],
          "internalType": "struct PrivateTreasury.Point",
          "name": "P",
          "type": "tuple"
        },
        {
          "components": [
            {
              "internalType": "bytes32",
              "name": "x",
              "type": "bytes32"
            },
            {
              "internalType": "bytes32",
              "name": "y",
              "type": "bytes32"
            }
          ],
          "internalType": "struct PrivateTreasury.Point",
          "name": "Q",
          "type": "tuple"
        }
      ],
      "name": "deposit",
      "outputs": [],
      "stateMutability": "payable",
      "type": "function"
    },
    {
      "inputs": [
        {
          "internalType": "uint256",
          "name": "",
          "type": "uint256"
        }
      ],
      "name": "deposits",
      "outputs": [
        {
          "components": [
            {
              "internalType": "bytes32",
              "name": "x",
              "type": "bytes32"
            },
            {
              "internalType": "bytes32",
              "name": "y",
              "type": "bytes32"
            }
          ],
          "internalType": "struct PrivateTreasury.Point",
          "name": "P",
          "type": "tuple"
        },
        {
          "components": [
            {
              "internalType": "bytes32",
              "name": "x",
              "type": "bytes32"
            },
            {
              "internalType": "bytes32",
              "name": "y",
              "type": "bytes32"
            }
          ],
          "internalType": "struct PrivateTreasury.Point",
          "name": "Q",
          "type": "tuple"
        },
        {
          "internalType": "uint256",
          "name": "v",
          "type": "uint256"
        },
        {
          "internalType": "bool",
          "name": "spent",
          "type": "bool"
        }
      ],
      "stateMutability": "view",
      "type": "function"
    },
    {
      "inputs": [
        {
          "internalType": "uint256",
          "name": "",
          "type": "uint256"
        }
      ],
      "name": "directory",
      "outputs": [
        {
          "components": [
            {
              "internalType": "bytes32",
              "name": "x",
              "type": "bytes32"
            },
            {
              "internalType": "bytes32",
              "name": "y",
              "type": "bytes32"
            }
          ],
          "internalType": "struct PrivateTreasury.Point",
          "name": "pk",
          "type": "tuple"
        },
        {
          "internalType": "string",
          "name": "label",
          "type": "string"
        }
      ],
      "stateMutability": "view",
      "type": "function"
    },
    {
      "inputs": [],
      "name": "getDirectoryLength",
      "outputs": [
        {
          "internalType": "uint256",
          "name": "",
          "type": "uint256"
        }
      ],
      "stateMutability": "view",
      "type": "function"
    },
    {
      "inputs": [],
      "name": "getNumDeposits",
      "outputs": [
        {
          "internalType": "uint256",
          "name": "",
          "type": "uint256"
        }
      ],
      "stateMutability": "view",
      "type": "function"
    },
    {
      "inputs": [
        {
          "internalType": "uint256",
          "name": "depIdx",
          "type": "uint256"
        },
        {
          "internalType": "uint256[4]",
          "name": "publicSignals",
          "type": "uint256[4]"
        },
        {
          "internalType": "uint256[2]",
          "name": "a",
          "type": "uint256[2]"
        },
        {
          "internalType": "uint256[2]",
          "name": "b_0",
          "type": "uint256[2]"
        },
        {
          "internalType": "uint256[2]",
          "name": "b_1",
          "type": "uint256[2]"
        },
        {
          "internalType": "uint256[2]",
          "name": "c",
          "type": "uint256[2]"
        }
      ],
      "name": "withdraw",
      "outputs": [],
      "stateMutability": "nonpayable",
      "type": "function"
    }
  ],
  "bytecode": {
    "object": "0x6080604052600080546001600160a01b031916733aa5ebb10dc797cac828524e59a333d0a371443c17905534801561003657600080fd5b50610ad3806100466000396000f3fe60806040526004361061007b5760003560e01c8063b02c43d01161004e578063b02c43d014610134578063ca3e9ecf1461018d578063d37ad4be146101a0578063ec74f590146101b557600080fd5b80637bb885be146100805780637d611a26146100c557806389eb85c7146100f35780639fdc0ea614610115575b600080fd5b34801561008c57600080fd5b506100a8733aa5ebb10dc797cac828524e59a333d0a371443c81565b6040516001600160a01b0390911681526020015b60405180910390f35b3480156100d157600080fd5b506100e56100e036600461058f565b6101d5565b6040516100bc9291906105a8565b3480156100ff57600080fd5b5061011361010e3660046106b7565b6102a6565b005b34801561012157600080fd5b506001545b6040519081526020016100bc565b34801561014057600080fd5b5061015461014f36600461058f565b610387565b604080518551815260209586015186820152845191810191909152939092015160608401526080830152151560a082015260c0016100bc565b61011361019b366004610780565b6103f1565b3480156101ac57600080fd5b50600254610126565b3480156101c157600080fd5b506101136101d03660046107b5565b6104f3565b600181815481106101e557600080fd5b600091825260209182902060408051808201909152600390920201805482526001810154928201929092526002820180549193509061022390610839565b80601f016020809104026020016040519081016040528092919081815260200182805461024f90610839565b801561029c5780601f106102715761010080835404028352916020019161029c565b820191906000526020600020905b81548152906001019060200180831161027f57829003601f168201915b5050505050905082565b600054604080518082018252858152602081018590529051635fe8c13b60e01b81526001600160a01b0390921691635fe8c13b916102ed9188919086908b90600401610896565b602060405180830381865afa15801561030a573d6000803e3d6000fd5b505050506040513d601f19601f8201168201806040525081019061032e919061091a565b61037f5760405162461bcd60e51b815260206004820152601860248201527f496e76616c6964207769746864726177616c2070726f6f66000000000000000060448201526064015b60405180910390fd5b505050505050565b6002818154811061039757600080fd5b60009182526020918290206040805180820182526006909302909101805483526001810154838501528151808301909252600281015482526003810154938201939093526004830154600590930154919350919060ff1684565b6000341161044c5760405162461bcd60e51b815260206004820152602260248201527f4465706f73697465642065746865722076616c7565206d757374206265203e20604482015261181760f11b6064820152608401610376565b600260405180608001604052808480360381019061046a9190610943565b815260200161047e36859003850185610943565b8152346020808301919091526000604092830181905284546001808201875595825290829020845180516006909302909101918255820151948101949094558281015180516002860155015160038401558101516004830155606001516005909101805460ff19169115159190911790555050565b60016040518060400160405280858036038101906105119190610943565b815260200184848080601f01602080910402602001604051908101604052809392919081815260200183838082843760009201829052509390945250508354600181810186559482526020918290208451805160039093029091019182558201519481019490945582015191929160028301915061037f90826109dd565b6000602082840312156105a157600080fd5b5035919050565b8251815260208084015190820152606060408201526000825180606084015260005b818110156105e757602081860181015160808684010152016105ca565b506000608082850101526080601f19601f8301168401019150509392505050565b634e487b7160e01b600052604160045260246000fd5b6040516080810167ffffffffffffffff8111828210171561064157610641610608565b60405290565b600082601f83011261065857600080fd5b6040516040810181811067ffffffffffffffff8211171561067b5761067b610608565b806040525080604084018581111561069257600080fd5b845b818110156106ac578035835260209283019201610694565b509195945050505050565b6000806000806000806101a087890312156106d157600080fd5b86359550602088603f8901126106e657600080fd5b6106ee61061e565b8060a08a018b81111561070057600080fd5b838b015b8181101561071b5780358452928401928401610704565b508198506107298c82610647565b97505050505061073c8860e08901610647565b925061074c886101208901610647565b915061075c886101608901610647565b90509295509295509295565b60006040828403121561077a57600080fd5b50919050565b6000806080838503121561079357600080fd5b61079d8484610768565b91506107ac8460408501610768565b90509250929050565b6000806000606084860312156107ca57600080fd5b6107d48585610768565b9250604084013567ffffffffffffffff808211156107f157600080fd5b818601915086601f83011261080557600080fd5b81358181111561081457600080fd5b87602082850101111561082657600080fd5b6020830194508093505050509250925092565b600181811c9082168061084d57607f821691505b60208210810361077a57634e487b7160e01b600052602260045260246000fd5b8060005b6002811015610890578151845260209384019390910190600101610871565b50505050565b61018081016108a5828761086d565b60408083018660005b60028110156108d5576108c283835161086d565b91830191602091909101906001016108ae565b505050506108e660c083018561086d565b61010082018360005b600481101561090e5781518352602092830192909101906001016108ef565b50505095945050505050565b60006020828403121561092c57600080fd5b8151801515811461093c57600080fd5b9392505050565b60006040828403121561095557600080fd5b6040516040810181811067ffffffffffffffff8211171561097857610978610608565b604052823581526020928301359281019290925250919050565b601f8211156109d857600081815260208120601f850160051c810160208610156109b95750805b601f850160051c820191505b8181101561037f578281556001016109c5565b505050565b815167ffffffffffffffff8111156109f7576109f7610608565b610a0b81610a058454610839565b84610992565b602080601f831160018114610a405760008415610a285750858301515b600019600386901b1c1916600185901b17855561037f565b600085815260208120601f198616915b82811015610a6f57888601518255948401946001909101908401610a50565b5085821015610a8d5787850151600019600388901b60f8161c191681555b5050505050600190811b0190555056fea2646970667358221220fdb701afc88d1bbea48208494fb6ec51690abc9f7bb0e9f01848b748d2cc688564736f6c63430008100033",
    "linkReferences": {}
  },
  "methodIdentifiers": {
    "VERIFIER_ADDR()": "7bb885be",
    "create((bytes32,bytes32),string)": "ec74f590",
    "deposit((bytes32,bytes32),(bytes32,bytes32))": "ca3e9ecf",
    "deposits(uint256)": "b02c43d0",
    "directory(uint256)": "7d611a26",
    "getDirectoryLength()": "9fdc0ea6",
    "getNumDeposits()": "d37ad4be",
    "withdraw(uint256,uint256[4],uint256[2],uint256[2],uint256[2],uint256[2])": "89eb85c7"
  },
  "id": 7
}