{
  "abi": [
    {
      "inputs": [
        {
          "components": [
            {
              "internalType": "bytes32",
              "name": "x",
              "type": "bytes32"
            },
            {
              "internalType": "bytes32",
              "name": "y",
              "type": "bytes32"
            }
          ],
          "internalType": "struct PrivateTreasury.Point",
          "name": "pk",
          "type": "tuple"
        },
        {
          "internalType": "string",
          "name": "label",
          "type": "string"
        }
      ],
      "name": "create",
      "outputs": [],
      "stateMutability": "nonpayable",
      "type": "function"
    },
    {
      "inputs": [
        {
          "components": [
            {
              "internalType": "bytes32",
              "name": "x",
              "type": "bytes32"
            },
            {
              "internalType": "bytes32",
              "name": "y",
              "type": "bytes32"
            }
          ],
          "internalType": "struct PrivateTreasury.Point",
          "name": "P",
          "type": "tuple"
        },
        {
          "components": [
            {
              "internalType": "bytes32",
              "name": "x",
              "type": "bytes32"
            },
            {
              "internalType": "bytes32",
              "name": "y",
              "type": "bytes32"
            }
          ],
          "internalType": "struct PrivateTreasury.Point",
          "name": "Q",
          "type": "tuple"
        }
      ],
      "name": "deposit",
      "outputs": [],
      "stateMutability": "payable",
      "type": "function"
    },
    {
      "inputs": [
        {
          "internalType": "uint256",
          "name": "",
          "type": "uint256"
        }
      ],
      "name": "deposits",
      "outputs": [
        {
          "components": [
            {
              "internalType": "bytes32",
              "name": "x",
              "type": "bytes32"
            },
            {
              "internalType": "bytes32",
              "name": "y",
              "type": "bytes32"
            }
          ],
          "internalType": "struct PrivateTreasury.Point",
          "name": "P",
          "type": "tuple"
        },
        {
          "components": [
            {
              "internalType": "bytes32",
              "name": "x",
              "type": "bytes32"
            },
            {
              "internalType": "bytes32",
              "name": "y",
              "type": "bytes32"
            }
          ],
          "internalType": "struct PrivateTreasury.Point",
          "name": "Q",
          "type": "tuple"
        },
        {
          "internalType": "uint256",
          "name": "v",
          "type": "uint256"
        },
        {
          "internalType": "bool",
          "name": "spent",
          "type": "bool"
        }
      ],
      "stateMutability": "view",
      "type": "function"
    },
    {
      "inputs": [
        {
          "internalType": "uint256",
          "name": "",
          "type": "uint256"
        }
      ],
      "name": "directory",
      "outputs": [
        {
          "components": [
            {
              "internalType": "bytes32",
              "name": "x",
              "type": "bytes32"
            },
            {
              "internalType": "bytes32",
              "name": "y",
              "type": "bytes32"
            }
          ],
          "internalType": "struct PrivateTreasury.Point",
          "name": "pk",
          "type": "tuple"
        },
        {
          "internalType": "string",
          "name": "label",
          "type": "string"
        }
      ],
      "stateMutability": "view",
      "type": "function"
    },
    {
      "inputs": [],
      "name": "getDirectoryLength",
      "outputs": [
        {
          "internalType": "uint256",
          "name": "",
          "type": "uint256"
        }
      ],
      "stateMutability": "view",
      "type": "function"
    },
    {
      "inputs": [],
      "name": "getNumDeposits",
      "outputs": [
        {
          "internalType": "uint256",
          "name": "",
          "type": "uint256"
        }
      ],
      "stateMutability": "view",
      "type": "function"
    },
    {
      "inputs": [
        {
          "internalType": "uint256",
          "name": "depIdx",
          "type": "uint256"
        },
        {
          "internalType": "uint256[2]",
          "name": "a",
          "type": "uint256[2]"
        },
        {
          "internalType": "uint256[2][2]",
          "name": "b",
          "type": "uint256[2][2]"
        },
        {
          "internalType": "uint256[2]",
          "name": "c",
          "type": "uint256[2]"
        },
        {
          "internalType": "uint256[4]",
          "name": "publicSignals",
          "type": "uint256[4]"
        }
      ],
      "name": "withdraw",
      "outputs": [
        {
          "internalType": "bool",
          "name": "",
          "type": "bool"
        }
      ],
      "stateMutability": "nonpayable",
      "type": "function"
    }
  ],
  "bytecode": {
    "object": "0x608060405234801561001057600080fd5b5061092d806100206000396000f3fe6080604052600436106100705760003560e01c8063b02c43d01161004e578063b02c43d0146100fd578063ca3e9ecf14610156578063d37ad4be1461016b578063ec74f5901461018057600080fd5b806310bfb87a146100755780637d611a26146100b05780639fdc0ea6146100de575b600080fd5b34801561008157600080fd5b5061009b610090366004610537565b600095945050505050565b60405190151581526020015b60405180910390f35b3480156100bc57600080fd5b506100d06100cb36600461061f565b6101a0565b6040516100a7929190610638565b3480156100ea57600080fd5b506000545b6040519081526020016100a7565b34801561010957600080fd5b5061011d61011836600461061f565b610271565b604080518551815260209586015186820152845191810191909152939092015160608401526080830152151560a082015260c0016100a7565b6101696101643660046106b0565b6102db565b005b34801561017757600080fd5b506001546100ef565b34801561018c57600080fd5b5061016961019b3660046106e5565b6103e1565b600081815481106101b057600080fd5b60009182526020918290206040805180820190915260039092020180548252600181015492820192909252600282018054919350906101ee90610769565b80601f016020809104026020016040519081016040528092919081815260200182805461021a90610769565b80156102675780601f1061023c57610100808354040283529160200191610267565b820191906000526020600020905b81548152906001019060200180831161024a57829003601f168201915b5050505050905082565b6001818154811061028157600080fd5b60009182526020918290206040805180820182526006909302909101805483526001810154838501528151808301909252600281015482526003810154938201939093526004830154600590930154919350919060ff1684565b6000341161033a5760405162461bcd60e51b815260206004820152602260248201527f4465706f73697465642065746865722076616c7565206d757374206265203e20604482015261181760f11b606482015260840160405180910390fd5b6001604051806080016040528084803603810190610358919061079d565b815260200161036c3685900385018561079d565b8152346020808301919091526000604092830181905284546001808201875595825290829020845180516006909302909101918255820151948101949094558281015180516002860155015160038401558101516004830155606001516005909101805460ff19169115159190911790555050565b60006040518060400160405280858036038101906103ff919061079d565b815260200184848080601f01602080910402602001604051908101604052809392919081815260200183838082843760009201829052509390945250508354600181810186559482526020918290208451805160039093029091019182558201519481019490945582015191929160028301915061047d9082610837565b505050505050565b634e487b7160e01b600052604160045260246000fd5b6040805190810167ffffffffffffffff811182821017156104be576104be610485565b60405290565b6040516080810167ffffffffffffffff811182821017156104be576104be610485565b600082601f8301126104f857600080fd5b61050061049b565b80604084018581111561051257600080fd5b845b8181101561052c578035845260209384019301610514565b509095945050505050565b60008060008060006101a080878903121561055157600080fd5b86359550602061056389828a016104e7565b955088607f89011261057457600080fd5b61057c61049b565b8060e08a018b81111561058e57600080fd5b60608b015b818110156105b3576105a58d826104e7565b845292840192604001610593565b508197506105c18c826104e7565b96505050508861013f8901126105d657600080fd5b6105de6104c4565b91880191808a8411156105f057600080fd5b6101208a015b8481101561060d57803583529183019183016105f6565b50809450505050509295509295909350565b60006020828403121561063157600080fd5b5035919050565b8251815260208084015190820152606060408201526000825180606084015260005b81811015610677576020818601810151608086840101520161065a565b506000608082850101526080601f19601f8301168401019150509392505050565b6000604082840312156106aa57600080fd5b50919050565b600080608083850312156106c357600080fd5b6106cd8484610698565b91506106dc8460408501610698565b90509250929050565b6000806000606084860312156106fa57600080fd5b6107048585610698565b9250604084013567ffffffffffffffff8082111561072157600080fd5b818601915086601f83011261073557600080fd5b81358181111561074457600080fd5b87602082850101111561075657600080fd5b6020830194508093505050509250925092565b600181811c9082168061077d57607f821691505b6020821081036106aa57634e487b7160e01b600052602260045260246000fd5b6000604082840312156107af57600080fd5b6040516040810181811067ffffffffffffffff821117156107d2576107d2610485565b604052823581526020928301359281019290925250919050565b601f82111561083257600081815260208120601f850160051c810160208610156108135750805b601f850160051c820191505b8181101561047d5782815560010161081f565b505050565b815167ffffffffffffffff81111561085157610851610485565b6108658161085f8454610769565b846107ec565b602080601f83116001811461089a57600084156108825750858301515b600019600386901b1c1916600185901b17855561047d565b600085815260208120601f198616915b828110156108c9578886015182559484019460019091019084016108aa565b50858210156108e75787850151600019600388901b60f8161c191681555b5050505050600190811b0190555056fea2646970667358221220e69281ab0a1eba0626c19589ee2b9235e302d200306d5cdee2484dd4f24a89cd64736f6c63430008100033",
    "linkReferences": {}
  },
  "methodIdentifiers": {
    "create((bytes32,bytes32),string)": "ec74f590",
    "deposit((bytes32,bytes32),(bytes32,bytes32))": "ca3e9ecf",
    "deposits(uint256)": "b02c43d0",
    "directory(uint256)": "7d611a26",
    "getDirectoryLength()": "9fdc0ea6",
    "getNumDeposits()": "d37ad4be",
    "withdraw(uint256,uint256[2],uint256[2][2],uint256[2],uint256[4])": "10bfb87a"
  },
  "id": 7
}