{
  "abi": [
    {
      "inputs": [],
      "name": "VERIFIER_ADDR",
      "outputs": [
        {
          "internalType": "address",
          "name": "",
          "type": "address"
        }
      ],
      "stateMutability": "view",
      "type": "function"
    },
    {
      "inputs": [
        {
          "components": [
            {
              "internalType": "bytes32",
              "name": "x",
              "type": "bytes32"
            },
            {
              "internalType": "bytes32",
              "name": "y",
              "type": "bytes32"
            }
          ],
          "internalType": "struct PrivateTreasury.Point",
          "name": "pk",
          "type": "tuple"
        },
        {
          "internalType": "string",
          "name": "label",
          "type": "string"
        }
      ],
      "name": "create",
      "outputs": [],
      "stateMutability": "nonpayable",
      "type": "function"
    },
    {
      "inputs": [
        {
          "components": [
            {
              "internalType": "bytes32",
              "name": "x",
              "type": "bytes32"
            },
            {
              "internalType": "bytes32",
              "name": "y",
              "type": "bytes32"
            }
          ],
          "internalType": "struct PrivateTreasury.Point",
          "name": "P",
          "type": "tuple"
        },
        {
          "components": [
            {
              "internalType": "bytes32",
              "name": "x",
              "type": "bytes32"
            },
            {
              "internalType": "bytes32",
              "name": "y",
              "type": "bytes32"
            }
          ],
          "internalType": "struct PrivateTreasury.Point",
          "name": "Q",
          "type": "tuple"
        }
      ],
      "name": "deposit",
      "outputs": [],
      "stateMutability": "payable",
      "type": "function"
    },
    {
      "inputs": [
        {
          "internalType": "uint256",
          "name": "",
          "type": "uint256"
        }
      ],
      "name": "deposits",
      "outputs": [
        {
          "components": [
            {
              "internalType": "bytes32",
              "name": "x",
              "type": "bytes32"
            },
            {
              "internalType": "bytes32",
              "name": "y",
              "type": "bytes32"
            }
          ],
          "internalType": "struct PrivateTreasury.Point",
          "name": "P",
          "type": "tuple"
        },
        {
          "components": [
            {
              "internalType": "bytes32",
              "name": "x",
              "type": "bytes32"
            },
            {
              "internalType": "bytes32",
              "name": "y",
              "type": "bytes32"
            }
          ],
          "internalType": "struct PrivateTreasury.Point",
          "name": "Q",
          "type": "tuple"
        },
        {
          "internalType": "uint256",
          "name": "v",
          "type": "uint256"
        },
        {
          "internalType": "bool",
          "name": "spent",
          "type": "bool"
        }
      ],
      "stateMutability": "view",
      "type": "function"
    },
    {
      "inputs": [
        {
          "internalType": "uint256",
          "name": "",
          "type": "uint256"
        }
      ],
      "name": "directory",
      "outputs": [
        {
          "components": [
            {
              "internalType": "bytes32",
              "name": "x",
              "type": "bytes32"
            },
            {
              "internalType": "bytes32",
              "name": "y",
              "type": "bytes32"
            }
          ],
          "internalType": "struct PrivateTreasury.Point",
          "name": "pk",
          "type": "tuple"
        },
        {
          "internalType": "string",
          "name": "label",
          "type": "string"
        }
      ],
      "stateMutability": "view",
      "type": "function"
    },
    {
      "inputs": [],
      "name": "getDirectoryLength",
      "outputs": [
        {
          "internalType": "uint256",
          "name": "",
          "type": "uint256"
        }
      ],
      "stateMutability": "view",
      "type": "function"
    },
    {
      "inputs": [],
      "name": "getNumDeposits",
      "outputs": [
        {
          "internalType": "uint256",
          "name": "",
          "type": "uint256"
        }
      ],
      "stateMutability": "view",
      "type": "function"
    },
    {
      "inputs": [
        {
          "internalType": "bytes",
          "name": "proof",
          "type": "bytes"
        },
        {
          "internalType": "uint256[]",
          "name": "pubSignals",
          "type": "uint256[]"
        }
      ],
      "name": "withdraw",
      "outputs": [],
      "stateMutability": "nonpayable",
      "type": "function"
    }
  ],
  "bytecode": {
    "object": "0x6080604052600080546001600160a01b03191673322813fd9a801c5507c9de605d63cea4f2ce6c4417905534801561003657600080fd5b50610a9d806100466000396000f3fe60806040526004361061007b5760003560e01c8063b02c43d01161004e578063b02c43d014610134578063ca3e9ecf1461018d578063d37ad4be146101a0578063ec74f590146101b557600080fd5b80635f4eb10f146100805780637bb885be146100a25780637d611a26146100e75780639fdc0ea614610115575b600080fd5b34801561008c57600080fd5b506100a061009b366004610645565b6101d5565b005b3480156100ae57600080fd5b506100ca73322813fd9a801c5507c9de605d63cea4f2ce6c4481565b6040516001600160a01b0390911681526020015b60405180910390f35b3480156100f357600080fd5b506101076101023660046106fd565b61029d565b6040516100de92919061075c565b34801561012157600080fd5b506001545b6040519081526020016100de565b34801561014057600080fd5b5061015461014f3660046106fd565b61036e565b604080518551815260209586015186820152845191810191909152939092015160608401526080830152151560a082015260c0016100de565b6100a061019b3660046107a0565b6103d8565b3480156101ac57600080fd5b50600254610126565b3480156101c157600080fd5b506100a06101d03660046107d5565b6104da565b600054604051631e8e1e1360e01b81526001600160a01b0390911690631e8e1e13906102079085908590600401610859565b602060405180830381865afa158015610224573d6000803e3d6000fd5b505050506040513d601f19601f8201168201806040525081019061024891906108b0565b6102995760405162461bcd60e51b815260206004820152601860248201527f496e76616c6964207769746864726177616c2070726f6f66000000000000000060448201526064015b60405180910390fd5b5050565b600181815481106102ad57600080fd5b60009182526020918290206040805180820190915260039092020180548252600181015492820192909252600282018054919350906102eb906108d9565b80601f0160208091040260200160405190810160405280929190818152602001828054610317906108d9565b80156103645780601f1061033957610100808354040283529160200191610364565b820191906000526020600020905b81548152906001019060200180831161034757829003601f168201915b5050505050905082565b6002818154811061037e57600080fd5b60009182526020918290206040805180820182526006909302909101805483526001810154838501528151808301909252600281015482526003810154938201939093526004830154600590930154919350919060ff1684565b600034116104335760405162461bcd60e51b815260206004820152602260248201527f4465706f73697465642065746865722076616c7565206d757374206265203e20604482015261181760f11b6064820152608401610290565b6002604051806080016040528084803603810190610451919061090d565b81526020016104653685900385018561090d565b8152346020808301919091526000604092830181905284546001808201875595825290829020845180516006909302909101918255820151948101949094558281015180516002860155015160038401558101516004830155606001516005909101805460ff19169115159190911790555050565b60016040518060400160405280858036038101906104f8919061090d565b815260200184848080601f01602080910402602001604051908101604052809392919081815260200183838082843760009201829052509390945250508354600181810186559482526020918290208451805160039093029091019182558201519481019490945582015191929160028301915061057690826109a7565b505050505050565b634e487b7160e01b600052604160045260246000fd5b604051601f8201601f1916810167ffffffffffffffff811182821017156105bd576105bd61057e565b604052919050565b600082601f8301126105d657600080fd5b8135602067ffffffffffffffff8211156105f2576105f261057e565b8160051b610601828201610594565b928352848101820192828101908785111561061b57600080fd5b83870192505b8483101561063a57823582529183019190830190610621565b979650505050505050565b6000806040838503121561065857600080fd5b823567ffffffffffffffff8082111561067057600080fd5b818501915085601f83011261068457600080fd5b81356020828211156106985761069861057e565b6106aa601f8301601f19168201610594565b82815288828487010111156106be57600080fd5b828286018383013760009281018201929092529094508501359150808211156106e657600080fd5b506106f3858286016105c5565b9150509250929050565b60006020828403121561070f57600080fd5b5035919050565b6000815180845260005b8181101561073c57602081850181015186830182015201610720565b506000602082860101526020601f19601f83011685010191505092915050565b82518152602080840151908201526060604082015260006107806060830184610716565b949350505050565b60006040828403121561079a57600080fd5b50919050565b600080608083850312156107b357600080fd5b6107bd8484610788565b91506107cc8460408501610788565b90509250929050565b6000806000606084860312156107ea57600080fd5b6107f48585610788565b9250604084013567ffffffffffffffff8082111561081157600080fd5b818601915086601f83011261082557600080fd5b81358181111561083457600080fd5b87602082850101111561084657600080fd5b6020830194508093505050509250925092565b60408152600061086c6040830185610716565b82810360208481019190915284518083528582019282019060005b818110156108a357845183529383019391830191600101610887565b5090979650505050505050565b6000602082840312156108c257600080fd5b815180151581146108d257600080fd5b9392505050565b600181811c908216806108ed57607f821691505b60208210810361079a57634e487b7160e01b600052602260045260246000fd5b60006040828403121561091f57600080fd5b6040516040810181811067ffffffffffffffff821117156109425761094261057e565b604052823581526020928301359281019290925250919050565b601f8211156109a257600081815260208120601f850160051c810160208610156109835750805b601f850160051c820191505b818110156105765782815560010161098f565b505050565b815167ffffffffffffffff8111156109c1576109c161057e565b6109d5816109cf84546108d9565b8461095c565b602080601f831160018114610a0a57600084156109f25750858301515b600019600386901b1c1916600185901b178555610576565b600085815260208120601f198616915b82811015610a3957888601518255948401946001909101908401610a1a565b5085821015610a575787850151600019600388901b60f8161c191681555b5050505050600190811b0190555056fea2646970667358221220183f79cca587075f14554c5537addfc85eff2b6c4644ef7f1ba15a35e091c5fe64736f6c63430008100033",
    "linkReferences": {}
  },
  "methodIdentifiers": {
    "VERIFIER_ADDR()": "7bb885be",
    "create((bytes32,bytes32),string)": "ec74f590",
    "deposit((bytes32,bytes32),(bytes32,bytes32))": "ca3e9ecf",
    "deposits(uint256)": "b02c43d0",
    "directory(uint256)": "7d611a26",
    "getDirectoryLength()": "9fdc0ea6",
    "getNumDeposits()": "d37ad4be",
    "withdraw(bytes,uint256[])": "5f4eb10f"
  },
  "id": 7
}