{
  "abi": [
    {
      "anonymous": false,
      "inputs": [
        {
          "components": [
            {
              "components": [
                {
                  "internalType": "bytes32",
                  "name": "x",
                  "type": "bytes32"
                },
                {
                  "internalType": "bytes32",
                  "name": "y",
                  "type": "bytes32"
                }
              ],
              "internalType": "struct PrivateTreasury.Point",
              "name": "P",
              "type": "tuple"
            },
            {
              "components": [
                {
                  "internalType": "bytes32",
                  "name": "x",
                  "type": "bytes32"
                },
                {
                  "internalType": "bytes32",
                  "name": "y",
                  "type": "bytes32"
                }
              ],
              "internalType": "struct PrivateTreasury.Point",
              "name": "Q",
              "type": "tuple"
            },
            {
              "internalType": "uint256",
              "name": "v",
              "type": "uint256"
            },
            {
              "internalType": "bool",
              "name": "spent",
              "type": "bool"
            }
          ],
          "indexed": false,
          "internalType": "struct PrivateTreasury.Leaf",
          "name": "lf",
          "type": "tuple"
        }
      ],
      "name": "NewLeaf",
      "type": "event"
    },
    {
      "inputs": [],
      "name": "POSEIDON_T3_ADDR",
      "outputs": [
        {
          "internalType": "address",
          "name": "",
          "type": "address"
        }
      ],
      "stateMutability": "view",
      "type": "function"
    },
    {
      "inputs": [],
      "name": "POSEIDON_T6_ADDR",
      "outputs": [
        {
          "internalType": "address",
          "name": "",
          "type": "address"
        }
      ],
      "stateMutability": "view",
      "type": "function"
    },
    {
      "inputs": [],
      "name": "VERIFIER_ADDR",
      "outputs": [
        {
          "internalType": "address",
          "name": "",
          "type": "address"
        }
      ],
      "stateMutability": "view",
      "type": "function"
    },
    {
      "inputs": [
        {
          "internalType": "uint256",
          "name": "l",
          "type": "uint256"
        },
        {
          "internalType": "uint256",
          "name": "r",
          "type": "uint256"
        }
      ],
      "name": "_hashLeftRight",
      "outputs": [
        {
          "internalType": "uint256",
          "name": "",
          "type": "uint256"
        }
      ],
      "stateMutability": "view",
      "type": "function"
    },
    {
      "inputs": [
        {
          "components": [
            {
              "internalType": "bytes32",
              "name": "x",
              "type": "bytes32"
            },
            {
              "internalType": "bytes32",
              "name": "y",
              "type": "bytes32"
            }
          ],
          "internalType": "struct PrivateTreasury.Point",
          "name": "pk",
          "type": "tuple"
        },
        {
          "internalType": "string",
          "name": "label",
          "type": "string"
        }
      ],
      "name": "create",
      "outputs": [],
      "stateMutability": "nonpayable",
      "type": "function"
    },
    {
      "inputs": [
        {
          "components": [
            {
              "internalType": "bytes32",
              "name": "x",
              "type": "bytes32"
            },
            {
              "internalType": "bytes32",
              "name": "y",
              "type": "bytes32"
            }
          ],
          "internalType": "struct PrivateTreasury.Point",
          "name": "P",
          "type": "tuple"
        },
        {
          "components": [
            {
              "internalType": "bytes32",
              "name": "x",
              "type": "bytes32"
            },
            {
              "internalType": "bytes32",
              "name": "y",
              "type": "bytes32"
            }
          ],
          "internalType": "struct PrivateTreasury.Point",
          "name": "Q",
          "type": "tuple"
        }
      ],
      "name": "deposit",
      "outputs": [],
      "stateMutability": "payable",
      "type": "function"
    },
    {
      "inputs": [
        {
          "internalType": "uint256",
          "name": "",
          "type": "uint256"
        }
      ],
      "name": "deposits",
      "outputs": [
        {
          "components": [
            {
              "internalType": "bytes32",
              "name": "x",
              "type": "bytes32"
            },
            {
              "internalType": "bytes32",
              "name": "y",
              "type": "bytes32"
            }
          ],
          "internalType": "struct PrivateTreasury.Point",
          "name": "P",
          "type": "tuple"
        },
        {
          "components": [
            {
              "internalType": "bytes32",
              "name": "x",
              "type": "bytes32"
            },
            {
              "internalType": "bytes32",
              "name": "y",
              "type": "bytes32"
            }
          ],
          "internalType": "struct PrivateTreasury.Point",
          "name": "Q",
          "type": "tuple"
        },
        {
          "internalType": "uint256",
          "name": "v",
          "type": "uint256"
        },
        {
          "internalType": "bool",
          "name": "spent",
          "type": "bool"
        }
      ],
      "stateMutability": "view",
      "type": "function"
    },
    {
      "inputs": [
        {
          "internalType": "uint256",
          "name": "",
          "type": "uint256"
        }
      ],
      "name": "directory",
      "outputs": [
        {
          "components": [
            {
              "internalType": "bytes32",
              "name": "x",
              "type": "bytes32"
            },
            {
              "internalType": "bytes32",
              "name": "y",
              "type": "bytes32"
            }
          ],
          "internalType": "struct PrivateTreasury.Point",
          "name": "pk",
          "type": "tuple"
        },
        {
          "internalType": "string",
          "name": "label",
          "type": "string"
        }
      ],
      "stateMutability": "view",
      "type": "function"
    },
    {
      "inputs": [],
      "name": "getDirectoryLength",
      "outputs": [
        {
          "internalType": "uint256",
          "name": "",
          "type": "uint256"
        }
      ],
      "stateMutability": "view",
      "type": "function"
    },
    {
      "inputs": [],
      "name": "getNumDeposits",
      "outputs": [
        {
          "internalType": "uint256",
          "name": "",
          "type": "uint256"
        }
      ],
      "stateMutability": "view",
      "type": "function"
    },
    {
      "inputs": [
        {
          "internalType": "uint256",
          "name": "leafIdx",
          "type": "uint256"
        },
        {
          "internalType": "uint256[2]",
          "name": "a",
          "type": "uint256[2]"
        },
        {
          "internalType": "uint256[2][2]",
          "name": "b",
          "type": "uint256[2][2]"
        },
        {
          "internalType": "uint256[2]",
          "name": "c",
          "type": "uint256[2]"
        },
        {
          "internalType": "uint256[4]",
          "name": "publicSignals",
          "type": "uint256[4]"
        }
      ],
      "name": "withdraw",
      "outputs": [],
      "stateMutability": "payable",
      "type": "function"
    }
  ],
  "bytecode": {
    "object": "0x6080604052600080546001600160a01b0319908116735fbdb2315678afecb367f032d93f642f64180aa31790915560018054821673bcf26943c0197d2ee0e5d05c716be60cc2761508179055600280549091167359f2f1fcfe2474fd5f0b9ba1e73ca90b143eb8d017905534801561007657600080fd5b50610fe6806100866000396000f3fe60806040526004361061009c5760003560e01c8063a64863a211610064578063a64863a21461016c578063b02c43d014610194578063ca3e9ecf146101ed578063d37ad4be14610200578063ec74f59014610215578063f163536b1461023557600080fd5b806310bfb87a146100a15780633728abae146100b65780637bb885be146100e95780637d611a26146101295780639fdc0ea614610157575b600080fd5b6100b46100af366004610a01565b61025d565b005b3480156100c257600080fd5b506100d66100d1366004610ae9565b6104c7565b6040519081526020015b60405180910390f35b3480156100f557600080fd5b50610111735fbdb2315678afecb367f032d93f642f64180aa381565b6040516001600160a01b0390911681526020016100e0565b34801561013557600080fd5b50610149610144366004610b0b565b610553565b6040516100e0929190610b24565b34801561016357600080fd5b506003546100d6565b34801561017857600080fd5b5061011173bcf26943c0197d2ee0e5d05c716be60cc276150881565b3480156101a057600080fd5b506101b46101af366004610b0b565b610624565b604080518551815260209586015186820152845191810191909152939092015160608401526080830152151560a082015260c0016100e0565b6100b46101fb366004610b9c565b61068e565b34801561020c57600080fd5b506004546100d6565b34801561022157600080fd5b506100b4610230366004610bd1565b6108ab565b34801561024157600080fd5b506101117359f2f1fcfe2474fd5f0b9ba1e73ca90b143eb8d081565b600054604051635fe8c13b60e01b81526001600160a01b0390911690635fe8c13b90610293908790879087908790600401610c7e565b602060405180830381865afa1580156102b0573d6000803e3d6000fd5b505050506040513d601f19601f820116820180604052508101906102d49190610d02565b6103255760405162461bcd60e51b815260206004820152601860248201527f496e76616c6964207769746864726177616c2070726f6f66000000000000000060448201526064015b60405180910390fd5b60045485106103765760405162461bcd60e51b815260206004820152601f60248201527f496e76616c696420726571756573746564206465706f73697420696e64657800604482015260640161031c565b60006004868154811061038b5761038b610d2b565b60009182526020909120600690910201600581015490915060ff16156103eb5760405162461bcd60e51b815260206004820152601560248201527411195c1bdcda5d08185b1c9958591e481cdc195b9d605a1b604482015260640161031c565b805482511461040c5760405162461bcd60e51b815260040161031c90610d41565b60018101546020830151146104335760405162461bcd60e51b815260040161031c90610d41565b600281015460408301511461045a5760405162461bcd60e51b815260040161031c90610d9e565b60038101546060830151146104815760405162461bcd60e51b815260040161031c90610d9e565b6004810154604051339180156108fc02916000818181858888f193505050501580156104b1573d6000803e3d6000fd5b50600501805460ff191660011790555050505050565b6001546040805180820182528481526020810184905290516314d2f97b60e11b81526000926001600160a01b0316916329a5f2f6916105099190600401610dfb565b602060405180830381865afa158015610526573d6000803e3d6000fd5b505050506040513d601f19601f8201168201806040525081019061054a9190610e09565b90505b92915050565b6003818154811061056357600080fd5b60009182526020918290206040805180820190915260039092020180548252600181015492820192909252600282018054919350906105a190610e22565b80601f01602080910402602001604051908101604052809291908181526020018280546105cd90610e22565b801561061a5780601f106105ef5761010080835404028352916020019161061a565b820191906000526020600020905b8154815290600101906020018083116105fd57829003601f168201915b5050505050905082565b6004818154811061063457600080fd5b60009182526020918290206040805180820182526006909302909101805483526001810154838501528151808301909252600281015482526003810154938201939093526004830154600590930154919350919060ff1684565b600034116106e95760405162461bcd60e51b815260206004820152602260248201527f4465706f73697465642065746865722076616c7565206d757374206265203e20604482015261181760f11b606482015260840161031c565b60006040518060800160405280848036038101906107079190610e56565b815260200161071b36859003850185610e56565b81523460208083019190915260006040928301819052600480546001810182559152835180517f8a35acfbc15ff81a39ae7d344fd709f28e8600b4aa8c65c6b64bfe7fe36bd19b600690930292830181905590830180517f8a35acfbc15ff81a39ae7d344fd709f28e8600b4aa8c65c6b64bfe7fe36bd19c840155858401805180517f8a35acfbc15ff81a39ae7d344fd709f28e8600b4aa8c65c6b64bfe7fe36bd19d8601558501517f8a35acfbc15ff81a39ae7d344fd709f28e8600b4aa8c65c6b64bfe7fe36bd19e85015586860180517f8a35acfbc15ff81a39ae7d344fd709f28e8600b4aa8c65c6b64bfe7fe36bd19f860155606080890180517f8a35acfbc15ff81a39ae7d344fd709f28e8600b4aa8c65c6b64bfe7fe36bd1a0909701805460ff1916971515979097179096558751948552925184870152905180518488015290940151908201529151608083015251151560a082015290519192507f137ef2dd26724feaf5f7fbb4dac309c055df5c2bbdb3c05a9972afd23d3fd79e919081900360c00190a1505050565b60036040518060400160405280858036038101906108c99190610e56565b815260200184848080601f0160208091040260200160405190810160405280939291908181526020018383808284376000920182905250939094525050835460018181018655948252602091829020845180516003909302909101918255820151948101949094558201519192916002830191506109479082610ef0565b505050505050565b634e487b7160e01b600052604160045260246000fd5b6040805190810167ffffffffffffffff811182821017156109885761098861094f565b60405290565b6040516080810167ffffffffffffffff811182821017156109885761098861094f565b600082601f8301126109c257600080fd5b6109ca610965565b8060408401858111156109dc57600080fd5b845b818110156109f65780358452602093840193016109de565b509095945050505050565b60008060008060006101a0808789031215610a1b57600080fd5b863595506020610a2d89828a016109b1565b955088607f890112610a3e57600080fd5b610a46610965565b8060e08a018b811115610a5857600080fd5b60608b015b81811015610a7d57610a6f8d826109b1565b845292840192604001610a5d565b50819750610a8b8c826109b1565b96505050508861013f890112610aa057600080fd5b610aa861098e565b91880191808a841115610aba57600080fd5b6101208a015b84811015610ad75780358352918301918301610ac0565b50809450505050509295509295909350565b60008060408385031215610afc57600080fd5b50508035926020909101359150565b600060208284031215610b1d57600080fd5b5035919050565b8251815260208084015190820152606060408201526000825180606084015260005b81811015610b635760208186018101516080868401015201610b46565b506000608082850101526080601f19601f8301168401019150509392505050565b600060408284031215610b9657600080fd5b50919050565b60008060808385031215610baf57600080fd5b610bb98484610b84565b9150610bc88460408501610b84565b90509250929050565b600080600060608486031215610be657600080fd5b610bf08585610b84565b9250604084013567ffffffffffffffff80821115610c0d57600080fd5b818601915086601f830112610c2157600080fd5b813581811115610c3057600080fd5b876020828501011115610c4257600080fd5b6020830194508093505050509250925092565b8060005b6002811015610c78578151845260209384019390910190600101610c59565b50505050565b6101808101610c8d8287610c55565b60408083018660005b6002811015610cbd57610caa838351610c55565b9183019160209190910190600101610c96565b50505050610cce60c0830185610c55565b61010082018360005b6004811015610cf6578151835260209283019290910190600101610cd7565b50505095945050505050565b600060208284031215610d1457600080fd5b81518015158114610d2457600080fd5b9392505050565b634e487b7160e01b600052603260045260246000fd5b6020808252603d908201527f5075626c6963207369676e616c7320666f722070726f6f6620646f6e2774206d60408201527f61746368205020666f722074686520746172676574206465706f736974000000606082015260800190565b6020808252603d908201527f5075626c6963207369676e616c7320666f722070726f6f6620646f6e2774206d60408201527f61746368205120666f722074686520746172676574206465706f736974000000606082015260800190565b6040810161054d8284610c55565b600060208284031215610e1b57600080fd5b5051919050565b600181811c90821680610e3657607f821691505b602082108103610b9657634e487b7160e01b600052602260045260246000fd5b600060408284031215610e6857600080fd5b6040516040810181811067ffffffffffffffff82111715610e8b57610e8b61094f565b604052823581526020928301359281019290925250919050565b601f821115610eeb57600081815260208120601f850160051c81016020861015610ecc5750805b601f850160051c820191505b8181101561094757828155600101610ed8565b505050565b815167ffffffffffffffff811115610f0a57610f0a61094f565b610f1e81610f188454610e22565b84610ea5565b602080601f831160018114610f535760008415610f3b5750858301515b600019600386901b1c1916600185901b178555610947565b600085815260208120601f198616915b82811015610f8257888601518255948401946001909101908401610f63565b5085821015610fa05787850151600019600388901b60f8161c191681555b5050505050600190811b0190555056fea2646970667358221220f462c78e028c867bebe3c824e62dc54156025dd6105e9de2d5800bd5e84c685e64736f6c63430008110033",
    "linkReferences": {}
  },
  "methodIdentifiers": {
    "POSEIDON_T3_ADDR()": "a64863a2",
    "POSEIDON_T6_ADDR()": "f163536b",
    "VERIFIER_ADDR()": "7bb885be",
    "_hashLeftRight(uint256,uint256)": "3728abae",
    "create((bytes32,bytes32),string)": "ec74f590",
    "deposit((bytes32,bytes32),(bytes32,bytes32))": "ca3e9ecf",
    "deposits(uint256)": "b02c43d0",
    "directory(uint256)": "7d611a26",
    "getDirectoryLength()": "9fdc0ea6",
    "getNumDeposits()": "d37ad4be",
    "withdraw(uint256,uint256[2],uint256[2][2],uint256[2],uint256[4])": "10bfb87a"
  },
  "id": 7
}