{
  "abi": [
    {
      "inputs": [],
      "stateMutability": "nonpayable",
      "type": "constructor"
    },
    {
      "anonymous": false,
      "inputs": [
        {
          "components": [
            {
              "components": [
                {
                  "internalType": "bytes32",
                  "name": "x",
                  "type": "bytes32"
                },
                {
                  "internalType": "bytes32",
                  "name": "y",
                  "type": "bytes32"
                }
              ],
              "internalType": "struct PrivateTreasury.Point",
              "name": "P",
              "type": "tuple"
            },
            {
              "components": [
                {
                  "internalType": "bytes32",
                  "name": "x",
                  "type": "bytes32"
                },
                {
                  "internalType": "bytes32",
                  "name": "y",
                  "type": "bytes32"
                }
              ],
              "internalType": "struct PrivateTreasury.Point",
              "name": "Q",
              "type": "tuple"
            },
            {
              "internalType": "uint256",
              "name": "v",
              "type": "uint256"
            }
          ],
          "indexed": false,
          "internalType": "struct PrivateTreasury.Leaf",
          "name": "lf",
          "type": "tuple"
        }
      ],
      "name": "NewLeaf",
      "type": "event"
    },
    {
      "inputs": [],
      "name": "POSEIDON_T3_ADDR",
      "outputs": [
        {
          "internalType": "address",
          "name": "",
          "type": "address"
        }
      ],
      "stateMutability": "view",
      "type": "function"
    },
    {
      "inputs": [],
      "name": "POSEIDON_T6_ADDR",
      "outputs": [
        {
          "internalType": "address",
          "name": "",
          "type": "address"
        }
      ],
      "stateMutability": "view",
      "type": "function"
    },
    {
      "inputs": [],
      "name": "VERIFIER_ADDR",
      "outputs": [
        {
          "internalType": "address",
          "name": "",
          "type": "address"
        }
      ],
      "stateMutability": "view",
      "type": "function"
    },
    {
      "inputs": [
        {
          "components": [
            {
              "components": [
                {
                  "internalType": "bytes32",
                  "name": "x",
                  "type": "bytes32"
                },
                {
                  "internalType": "bytes32",
                  "name": "y",
                  "type": "bytes32"
                }
              ],
              "internalType": "struct PrivateTreasury.Point",
              "name": "P",
              "type": "tuple"
            },
            {
              "components": [
                {
                  "internalType": "bytes32",
                  "name": "x",
                  "type": "bytes32"
                },
                {
                  "internalType": "bytes32",
                  "name": "y",
                  "type": "bytes32"
                }
              ],
              "internalType": "struct PrivateTreasury.Point",
              "name": "Q",
              "type": "tuple"
            },
            {
              "internalType": "uint256",
              "name": "v",
              "type": "uint256"
            }
          ],
          "internalType": "struct PrivateTreasury.Leaf",
          "name": "lf",
          "type": "tuple"
        }
      ],
      "name": "_hashLeaf",
      "outputs": [
        {
          "internalType": "uint256",
          "name": "",
          "type": "uint256"
        }
      ],
      "stateMutability": "view",
      "type": "function"
    },
    {
      "inputs": [
        {
          "internalType": "uint256",
          "name": "l",
          "type": "uint256"
        },
        {
          "internalType": "uint256",
          "name": "r",
          "type": "uint256"
        }
      ],
      "name": "_hashLeftRight",
      "outputs": [
        {
          "internalType": "uint256",
          "name": "",
          "type": "uint256"
        }
      ],
      "stateMutability": "view",
      "type": "function"
    },
    {
      "inputs": [
        {
          "components": [
            {
              "internalType": "bytes32",
              "name": "x",
              "type": "bytes32"
            },
            {
              "internalType": "bytes32",
              "name": "y",
              "type": "bytes32"
            }
          ],
          "internalType": "struct PrivateTreasury.Point",
          "name": "pk",
          "type": "tuple"
        },
        {
          "internalType": "string",
          "name": "label",
          "type": "string"
        }
      ],
      "name": "create",
      "outputs": [],
      "stateMutability": "nonpayable",
      "type": "function"
    },
    {
      "inputs": [
        {
          "components": [
            {
              "internalType": "bytes32",
              "name": "x",
              "type": "bytes32"
            },
            {
              "internalType": "bytes32",
              "name": "y",
              "type": "bytes32"
            }
          ],
          "internalType": "struct PrivateTreasury.Point",
          "name": "P",
          "type": "tuple"
        },
        {
          "components": [
            {
              "internalType": "bytes32",
              "name": "x",
              "type": "bytes32"
            },
            {
              "internalType": "bytes32",
              "name": "y",
              "type": "bytes32"
            }
          ],
          "internalType": "struct PrivateTreasury.Point",
          "name": "Q",
          "type": "tuple"
        }
      ],
      "name": "deposit",
      "outputs": [],
      "stateMutability": "payable",
      "type": "function"
    },
    {
      "inputs": [
        {
          "internalType": "uint256",
          "name": "",
          "type": "uint256"
        }
      ],
      "name": "directory",
      "outputs": [
        {
          "components": [
            {
              "internalType": "bytes32",
              "name": "x",
              "type": "bytes32"
            },
            {
              "internalType": "bytes32",
              "name": "y",
              "type": "bytes32"
            }
          ],
          "internalType": "struct PrivateTreasury.Point",
          "name": "pk",
          "type": "tuple"
        },
        {
          "internalType": "string",
          "name": "label",
          "type": "string"
        }
      ],
      "stateMutability": "view",
      "type": "function"
    },
    {
      "inputs": [],
      "name": "getDirectoryLength",
      "outputs": [
        {
          "internalType": "uint256",
          "name": "",
          "type": "uint256"
        }
      ],
      "stateMutability": "view",
      "type": "function"
    },
    {
      "inputs": [],
      "name": "getNumDeposits",
      "outputs": [
        {
          "internalType": "uint256",
          "name": "",
          "type": "uint256"
        }
      ],
      "stateMutability": "view",
      "type": "function"
    },
    {
      "inputs": [
        {
          "internalType": "uint256",
          "name": "",
          "type": "uint256"
        }
      ],
      "name": "leavesTmp",
      "outputs": [
        {
          "components": [
            {
              "internalType": "bytes32",
              "name": "x",
              "type": "bytes32"
            },
            {
              "internalType": "bytes32",
              "name": "y",
              "type": "bytes32"
            }
          ],
          "internalType": "struct PrivateTreasury.Point",
          "name": "P",
          "type": "tuple"
        },
        {
          "components": [
            {
              "internalType": "bytes32",
              "name": "x",
              "type": "bytes32"
            },
            {
              "internalType": "bytes32",
              "name": "y",
              "type": "bytes32"
            }
          ],
          "internalType": "struct PrivateTreasury.Point",
          "name": "Q",
          "type": "tuple"
        },
        {
          "internalType": "uint256",
          "name": "v",
          "type": "uint256"
        }
      ],
      "stateMutability": "view",
      "type": "function"
    },
    {
      "inputs": [],
      "name": "root",
      "outputs": [
        {
          "internalType": "uint256",
          "name": "",
          "type": "uint256"
        }
      ],
      "stateMutability": "view",
      "type": "function"
    },
    {
      "inputs": [
        {
          "internalType": "uint256",
          "name": "",
          "type": "uint256"
        }
      ],
      "name": "spentLeaves",
      "outputs": [
        {
          "internalType": "bool",
          "name": "",
          "type": "bool"
        }
      ],
      "stateMutability": "view",
      "type": "function"
    },
    {
      "inputs": [
        {
          "internalType": "uint256",
          "name": "amount",
          "type": "uint256"
        },
        {
          "components": [
            {
              "internalType": "bytes32",
              "name": "x",
              "type": "bytes32"
            },
            {
              "internalType": "bytes32",
              "name": "y",
              "type": "bytes32"
            }
          ],
          "internalType": "struct PrivateTreasury.Point",
          "name": "changeP",
          "type": "tuple"
        },
        {
          "components": [
            {
              "internalType": "bytes32",
              "name": "x",
              "type": "bytes32"
            },
            {
              "internalType": "bytes32",
              "name": "y",
              "type": "bytes32"
            }
          ],
          "internalType": "struct PrivateTreasury.Point",
          "name": "changeQ",
          "type": "tuple"
        },
        {
          "internalType": "uint256[2]",
          "name": "a",
          "type": "uint256[2]"
        },
        {
          "internalType": "uint256[2][2]",
          "name": "b",
          "type": "uint256[2][2]"
        },
        {
          "internalType": "uint256[2]",
          "name": "c",
          "type": "uint256[2]"
        },
        {
          "internalType": "uint256[11]",
          "name": "publicSignals",
          "type": "uint256[11]"
        }
      ],
      "name": "withdraw",
      "outputs": [],
      "stateMutability": "payable",
      "type": "function"
    }
  ],
  "bytecode": {
    "object": "0x60806040526000600155604380546001600160a01b0319908116735fbdb2315678afecb367f032d93f642f64180aa317909155604480548216738464135c8f25da09e49bc8782676a84730c318bc179055604580549091167371c95911e9a5d330f4d621842ec243ee1343292e1790553480156200007c57600080fd5b506000805460ff191660209081179091557f12817f4161f2f5ded33f26c55735a77e80e4f8975483c8c2704745128417f71160038190558060015b8360ff168160ff16101562000125576000620000d483806200013f565b90508060038360ff1660208110620000f057620000f0620001ce565b015580602360ff8416602081106200010c576200010c620001ce565b01559150806200011c81620001e4565b915050620000b7565b506200013281806200013f565b600255506200025f915050565b6044546040805180820182528481526020810184905290516314d2f97b60e11b81526000926001600160a01b0316916329a5f2f69162000183919060040162000212565b602060405180830381865afa158015620001a1573d6000803e3d6000fd5b505050506040513d601f19601f82011682018060405250810190620001c7919062000245565b9392505050565b634e487b7160e01b600052603260045260246000fd5b600060ff821660ff81036200020957634e487b7160e01b600052601160045260246000fd5b60010192915050565b60408101818360005b60028110156200023c5781518352602092830192909101906001016200021b565b50505092915050565b6000602082840312156200025857600080fd5b5051919050565b611476806200026f6000396000f3fe6080604052600436106100dd5760003560e01c8063a64863a21161007f578063d37ad4be11610059578063d37ad4be1461029a578063ebf0c717146102af578063ec74f590146102c5578063f163536b146102e557600080fd5b8063a64863a21461020d578063b7cb470814610235578063ca3e9ecf1461028757600080fd5b80636502b6cb116100bb5780636502b6cb146101755780637bb885be1461018a5780637d611a26146101ca5780639fdc0ea6146101f857600080fd5b80632e5ca4d3146100e25780633728abae146101155780633f42bf6614610135575b600080fd5b3480156100ee57600080fd5b506101026100fd366004610cc3565b61030d565b6040519081526020015b60405180910390f35b34801561012157600080fd5b50610102610130366004610d2b565b6103b9565b34801561014157600080fd5b50610165610150366004610d4d565b60476020526000908152604090205460ff1681565b604051901515815260200161010c565b610188610183366004610e3c565b610443565b005b34801561019657600080fd5b506101b2735fbdb2315678afecb367f032d93f642f64180aa381565b6040516001600160a01b03909116815260200161010c565b3480156101d657600080fd5b506101ea6101e5366004610d4d565b610760565b60405161010c929190610f09565b34801561020457600080fd5b50604654610102565b34801561021957600080fd5b506101b2738464135c8f25da09e49bc8782676a84730c318bc81565b34801561024157600080fd5b50610255610250366004610d4d565b610831565b60408051845181526020948501518582015283519181019190915292909101516060830152608082015260a00161010c565b610188610295366004610f69565b610891565b3480156102a657600080fd5b50600154610102565b3480156102bb57600080fd5b5061010260025481565b3480156102d157600080fd5b506101886102e0366004610f9e565b6108fb565b3480156102f157600080fd5b506101b27371c95911e9a5d330f4d621842ec243ee1343292e81565b6045546040805160a08101825283515181528351602090810151818301528085018051518385015251015160608201528382015160808201529051630926f44b60e31b81526000926001600160a01b031691634937a258916103729190600401611022565b602060405180830381865afa15801561038f573d6000803e3d6000fd5b505050506040513d601f19601f820116820180604052508101906103b39190611053565b92915050565b6044546040805180820182528481526020810184905290516314d2f97b60e11b81526000926001600160a01b0316916329a5f2f6916103fb9190600401611095565b602060405180830381865afa158015610418573d6000803e3d6000fd5b505050506040513d601f19601f8201168201806040525081019061043c9190611053565b9392505050565b6002548151146104c05760405162461bcd60e51b815260206004820152603c60248201527f4d65726b6c6520726f6f74206173736f63696174656420772f2070726f6f662060448201527f646f65736e2774206d61746368206f6e2d636861696e20726f6f742e0000000060648201526084015b60405180910390fd5b60435460405163b9c6ea8760e01b81526001600160a01b039091169063b9c6ea87906104f69087908790879087906004016110b9565b602060405180830381865afa158015610513573d6000803e3d6000fd5b505050506040513d601f19601f82011682018060405250810190610537919061113d565b6105835760405162461bcd60e51b815260206004820152601860248201527f496e76616c6964207769746864726177616c2070726f6f66000000000000000060448201526064016104b7565b600060015b6005811161069d5760008382600b81106105a4576105a46110a3565b602002015190506000846105b9600585611175565b600b81106105c9576105c96110a3565b602002015190506001831180156106005750846105e860056001611175565b600b81106105f8576105f86110a3565b602002015181145b1561060c57505061069d565b60008181526047602052604090205460ff16156106635760405162461bcd60e51b815260206004820152601560248201527411195c1bdcda5d08185b1c9958591e481cdc195b9d605a1b60448201526064016104b7565b6000818152604760205260409020805460ff191660011790556106868285611175565b93505050808061069590611188565b915050610588565b50878110156107145760405162461bcd60e51b815260206004820152603760248201527f576974686472617720616d6f756e74203e2076616c75652073746f726564206960448201527f6e2074686520737065636966696564206c65617665732e00000000000000000060648201526084016104b7565b61072887876107238b856111a1565b61099f565b604051339089156108fc02908a906000818181858888f19350505050158015610755573d6000803e3d6000fd5b505050505050505050565b6046818154811061077057600080fd5b60009182526020918290206040805180820190915260039092020180548252600181015492820192909252600282018054919350906107ae906111b4565b80601f01602080910402602001604051908101604052809291908181526020018280546107da906111b4565b80156108275780601f106107fc57610100808354040283529160200191610827565b820191906000526020600020905b81548152906001019060200180831161080a57829003601f168201915b5050505050905082565b6048818154811061084157600080fd5b600091825260209182902060408051808201825260059093029091018054835260018101548385015281518083019092526002810154825260038101549382019390935260049092015490925083565b600034116108ec5760405162461bcd60e51b815260206004820152602260248201527f4465706f73697465642065746865722076616c7565206d757374206265203e20604482015261181760f11b60648201526084016104b7565b6108f782823461099f565b5050565b604660405180604001604052808580360381019061091991906111e8565b815260200184848080601f016020809104026020016040519081016040528093929190818152602001838380828437600092018290525093909452505083546001818101865594825260209182902084518051600390930290910191825582015194810194909455820151919291600283019150610997908261124f565b505050505050565b60006040518060600160405280858036038101906109bd91906111e8565b81526020016109d1368690038601866111e8565b8152602090810184905260408051835180518252830151818401528383015180518284015290920151606083015282015160808201529091507f0570a54f1916569668bb02c5d54e6e6faaf265f1cfeb92ab6b712c9ce9661bd39060a00160405180910390a1610a48610a438261030d565b610a4f565b5050505050565b60007f30644e72e131a029b85045b68181585d2833e84879b9709143e1f593f00000018210610af65760405162461bcd60e51b815260206004820152604760248201527f496e6372656d656e74616c4d65726b6c65547265653a20696e736572744c656160448201527f6620617267756d656e74206d757374206265203c20534e41524b5f5343414c416064820152661497d19251531160ca1b608482015260a4016104b7565b60015460005460ff16610b0a8160026113f3565b8210610b645760405162461bcd60e51b815260206004820152602360248201527f496e6372656d656e74616c4d65726b6c65547265653a207472656520697320666044820152621d5b1b60ea1b60648201526084016104b7565b83600080805b60005460ff9081169082161015610c0b57610b866002876113ff565b600003610bc85783925060038160ff1660208110610ba657610ba66110a3565b015491508360238260ff1660208110610bc157610bc16110a3565b0155610be6565b60238160ff1660208110610bde57610bde6110a3565b015492508391505b610bf083836103b9565b60019690961c95935080610c0381611421565b915050610b6a565b50826002819055506001806000828254610c259190611175565b9091555094979650505050505050565b634e487b7160e01b600052604160045260246000fd5b6040805190810167ffffffffffffffff81118282101715610c6e57610c6e610c35565b60405290565b600060408284031215610c8657600080fd5b6040516040810181811067ffffffffffffffff82111715610ca957610ca9610c35565b604052823581526020928301359281019290925250919050565b600060a08284031215610cd557600080fd5b6040516060810181811067ffffffffffffffff82111715610cf857610cf8610c35565b604052610d058484610c74565b8152610d148460408501610c74565b602082015260809290920135604083015250919050565b60008060408385031215610d3e57600080fd5b50508035926020909101359150565b600060208284031215610d5f57600080fd5b5035919050565b600060408284031215610d7857600080fd5b50919050565b600082601f830112610d8f57600080fd5b610d97610c4b565b806040840185811115610da957600080fd5b845b81811015610dc3578035845260209384019301610dab565b509095945050505050565b600082601f830112610ddf57600080fd5b60405161016080820182811067ffffffffffffffff82111715610e0457610e04610c35565b60405283018185821115610e1757600080fd5b845b82811015610e31578035825260209182019101610e19565b509195945050505050565b6000806000806000806000610300888a031215610e5857600080fd5b873596506020610e6a8a828b01610d66565b9650610e798a60608b01610d66565b9550610e888a60a08b01610d7e565b94508960ff8a0112610e9957600080fd5b610ea1610c4b565b806101608b018c811115610eb457600080fd5b60e08c015b81811015610ed957610ecb8e82610d7e565b845292840192604001610eb9565b50819650610ee78d82610d7e565b955050505050610efb896101a08a01610dce565b905092959891949750929550565b8251815260208084015190820152606060408201526000825180606084015260005b81811015610f485760208186018101516080868401015201610f2b565b506000608082850101526080601f19601f8301168401019150509392505050565b60008060808385031215610f7c57600080fd5b610f868484610d66565b9150610f958460408501610d66565b90509250929050565b600080600060608486031215610fb357600080fd5b610fbd8585610d66565b9250604084013567ffffffffffffffff80821115610fda57600080fd5b818601915086601f830112610fee57600080fd5b813581811115610ffd57600080fd5b87602082850101111561100f57600080fd5b6020830194508093505050509250925092565b60a08101818360005b600581101561104a57815183526020928301929091019060010161102b565b50505092915050565b60006020828403121561106557600080fd5b5051919050565b8060005b600281101561108f578151845260209384019390910190600101611070565b50505050565b604081016103b3828461106c565b634e487b7160e01b600052603260045260246000fd5b61026081016110c8828761106c565b60408083018660005b60028110156110f8576110e583835161106c565b91830191602091909101906001016110d1565b5050505061110960c083018561106c565b61010082018360005b600b811015611131578151835260209283019290910190600101611112565b50505095945050505050565b60006020828403121561114f57600080fd5b8151801515811461043c57600080fd5b634e487b7160e01b600052601160045260246000fd5b808201808211156103b3576103b361115f565b60006001820161119a5761119a61115f565b5060010190565b818103818111156103b3576103b361115f565b600181811c908216806111c857607f821691505b602082108103610d7857634e487b7160e01b600052602260045260246000fd5b6000604082840312156111fa57600080fd5b61043c8383610c74565b601f82111561124a57600081815260208120601f850160051c8101602086101561122b5750805b601f850160051c820191505b8181101561099757828155600101611237565b505050565b815167ffffffffffffffff81111561126957611269610c35565b61127d8161127784546111b4565b84611204565b602080601f8311600181146112b2576000841561129a5750858301515b600019600386901b1c1916600185901b178555610997565b600085815260208120601f198616915b828110156112e1578886015182559484019460019091019084016112c2565b50858210156112ff5787850151600019600388901b60f8161c191681555b5050505050600190811b01905550565b600181815b8085111561134a5781600019048211156113305761133061115f565b8085161561133d57918102915b93841c9390800290611314565b509250929050565b600082611361575060016103b3565b8161136e575060006103b3565b8160018114611384576002811461138e576113aa565b60019150506103b3565b60ff84111561139f5761139f61115f565b50506001821b6103b3565b5060208310610133831016604e8410600b84101617156113cd575081810a6103b3565b6113d7838361130f565b80600019048211156113eb576113eb61115f565b029392505050565b600061043c8383611352565b60008261141c57634e487b7160e01b600052601260045260246000fd5b500690565b600060ff821660ff81036114375761143761115f565b6001019291505056fea264697066735822122057deaa6de91d8f06b4372e82e8c06d9749c5db3cfad8c1342ce4745d2b54dc2864736f6c63430008110033",
    "linkReferences": {}
  },
  "methodIdentifiers": {
    "POSEIDON_T3_ADDR()": "a64863a2",
    "POSEIDON_T6_ADDR()": "f163536b",
    "VERIFIER_ADDR()": "7bb885be",
    "_hashLeaf(((bytes32,bytes32),(bytes32,bytes32),uint256))": "2e5ca4d3",
    "_hashLeftRight(uint256,uint256)": "3728abae",
    "create((bytes32,bytes32),string)": "ec74f590",
    "deposit((bytes32,bytes32),(bytes32,bytes32))": "ca3e9ecf",
    "directory(uint256)": "7d611a26",
    "getDirectoryLength()": "9fdc0ea6",
    "getNumDeposits()": "d37ad4be",
    "leavesTmp(uint256)": "b7cb4708",
    "root()": "ebf0c717",
    "spentLeaves(uint256)": "3f42bf66",
    "withdraw(uint256,(bytes32,bytes32),(bytes32,bytes32),uint256[2],uint256[2][2],uint256[2],uint256[11])": "6502b6cb"
  },
  "id": 8
}