{
  "abi": [
    {
      "inputs": [],
      "stateMutability": "nonpayable",
      "type": "constructor"
    },
    {
      "anonymous": false,
      "inputs": [
        {
          "components": [
            {
              "components": [
                {
                  "internalType": "bytes32",
                  "name": "x",
                  "type": "bytes32"
                },
                {
                  "internalType": "bytes32",
                  "name": "y",
                  "type": "bytes32"
                }
              ],
              "internalType": "struct PrivateTreasury.Point",
              "name": "P",
              "type": "tuple"
            },
            {
              "components": [
                {
                  "internalType": "bytes32",
                  "name": "x",
                  "type": "bytes32"
                },
                {
                  "internalType": "bytes32",
                  "name": "y",
                  "type": "bytes32"
                }
              ],
              "internalType": "struct PrivateTreasury.Point",
              "name": "Q",
              "type": "tuple"
            },
            {
              "internalType": "uint256",
              "name": "v",
              "type": "uint256"
            },
            {
              "internalType": "bool",
              "name": "spent",
              "type": "bool"
            }
          ],
          "indexed": false,
          "internalType": "struct PrivateTreasury.Leaf",
          "name": "lf",
          "type": "tuple"
        }
      ],
      "name": "NewLeaf",
      "type": "event"
    },
    {
      "inputs": [],
      "name": "POSEIDON_T3_ADDR",
      "outputs": [
        {
          "internalType": "address",
          "name": "",
          "type": "address"
        }
      ],
      "stateMutability": "view",
      "type": "function"
    },
    {
      "inputs": [],
      "name": "POSEIDON_T6_ADDR",
      "outputs": [
        {
          "internalType": "address",
          "name": "",
          "type": "address"
        }
      ],
      "stateMutability": "view",
      "type": "function"
    },
    {
      "inputs": [],
      "name": "VERIFIER_ADDR",
      "outputs": [
        {
          "internalType": "address",
          "name": "",
          "type": "address"
        }
      ],
      "stateMutability": "view",
      "type": "function"
    },
    {
      "inputs": [
        {
          "components": [
            {
              "components": [
                {
                  "internalType": "bytes32",
                  "name": "x",
                  "type": "bytes32"
                },
                {
                  "internalType": "bytes32",
                  "name": "y",
                  "type": "bytes32"
                }
              ],
              "internalType": "struct PrivateTreasury.Point",
              "name": "P",
              "type": "tuple"
            },
            {
              "components": [
                {
                  "internalType": "bytes32",
                  "name": "x",
                  "type": "bytes32"
                },
                {
                  "internalType": "bytes32",
                  "name": "y",
                  "type": "bytes32"
                }
              ],
              "internalType": "struct PrivateTreasury.Point",
              "name": "Q",
              "type": "tuple"
            },
            {
              "internalType": "uint256",
              "name": "v",
              "type": "uint256"
            },
            {
              "internalType": "bool",
              "name": "spent",
              "type": "bool"
            }
          ],
          "internalType": "struct PrivateTreasury.Leaf",
          "name": "lf",
          "type": "tuple"
        }
      ],
      "name": "_hashLeaf",
      "outputs": [
        {
          "internalType": "uint256",
          "name": "",
          "type": "uint256"
        }
      ],
      "stateMutability": "view",
      "type": "function"
    },
    {
      "inputs": [
        {
          "internalType": "uint256",
          "name": "l",
          "type": "uint256"
        },
        {
          "internalType": "uint256",
          "name": "r",
          "type": "uint256"
        }
      ],
      "name": "_hashLeftRight",
      "outputs": [
        {
          "internalType": "uint256",
          "name": "",
          "type": "uint256"
        }
      ],
      "stateMutability": "view",
      "type": "function"
    },
    {
      "inputs": [
        {
          "components": [
            {
              "internalType": "bytes32",
              "name": "x",
              "type": "bytes32"
            },
            {
              "internalType": "bytes32",
              "name": "y",
              "type": "bytes32"
            }
          ],
          "internalType": "struct PrivateTreasury.Point",
          "name": "pk",
          "type": "tuple"
        },
        {
          "internalType": "string",
          "name": "label",
          "type": "string"
        }
      ],
      "name": "create",
      "outputs": [],
      "stateMutability": "nonpayable",
      "type": "function"
    },
    {
      "inputs": [
        {
          "components": [
            {
              "internalType": "bytes32",
              "name": "x",
              "type": "bytes32"
            },
            {
              "internalType": "bytes32",
              "name": "y",
              "type": "bytes32"
            }
          ],
          "internalType": "struct PrivateTreasury.Point",
          "name": "P",
          "type": "tuple"
        },
        {
          "components": [
            {
              "internalType": "bytes32",
              "name": "x",
              "type": "bytes32"
            },
            {
              "internalType": "bytes32",
              "name": "y",
              "type": "bytes32"
            }
          ],
          "internalType": "struct PrivateTreasury.Point",
          "name": "Q",
          "type": "tuple"
        }
      ],
      "name": "deposit",
      "outputs": [],
      "stateMutability": "payable",
      "type": "function"
    },
    {
      "inputs": [
        {
          "internalType": "uint256",
          "name": "",
          "type": "uint256"
        }
      ],
      "name": "deposits",
      "outputs": [
        {
          "components": [
            {
              "internalType": "bytes32",
              "name": "x",
              "type": "bytes32"
            },
            {
              "internalType": "bytes32",
              "name": "y",
              "type": "bytes32"
            }
          ],
          "internalType": "struct PrivateTreasury.Point",
          "name": "P",
          "type": "tuple"
        },
        {
          "components": [
            {
              "internalType": "bytes32",
              "name": "x",
              "type": "bytes32"
            },
            {
              "internalType": "bytes32",
              "name": "y",
              "type": "bytes32"
            }
          ],
          "internalType": "struct PrivateTreasury.Point",
          "name": "Q",
          "type": "tuple"
        },
        {
          "internalType": "uint256",
          "name": "v",
          "type": "uint256"
        },
        {
          "internalType": "bool",
          "name": "spent",
          "type": "bool"
        }
      ],
      "stateMutability": "view",
      "type": "function"
    },
    {
      "inputs": [
        {
          "internalType": "uint256",
          "name": "",
          "type": "uint256"
        }
      ],
      "name": "directory",
      "outputs": [
        {
          "components": [
            {
              "internalType": "bytes32",
              "name": "x",
              "type": "bytes32"
            },
            {
              "internalType": "bytes32",
              "name": "y",
              "type": "bytes32"
            }
          ],
          "internalType": "struct PrivateTreasury.Point",
          "name": "pk",
          "type": "tuple"
        },
        {
          "internalType": "string",
          "name": "label",
          "type": "string"
        }
      ],
      "stateMutability": "view",
      "type": "function"
    },
    {
      "inputs": [],
      "name": "getDirectoryLength",
      "outputs": [
        {
          "internalType": "uint256",
          "name": "",
          "type": "uint256"
        }
      ],
      "stateMutability": "view",
      "type": "function"
    },
    {
      "inputs": [],
      "name": "getNumDeposits",
      "outputs": [
        {
          "internalType": "uint256",
          "name": "",
          "type": "uint256"
        }
      ],
      "stateMutability": "view",
      "type": "function"
    },
    {
      "inputs": [],
      "name": "root",
      "outputs": [
        {
          "internalType": "uint256",
          "name": "",
          "type": "uint256"
        }
      ],
      "stateMutability": "view",
      "type": "function"
    },
    {
      "inputs": [
        {
          "internalType": "uint256",
          "name": "leafIdx",
          "type": "uint256"
        },
        {
          "internalType": "uint256[2]",
          "name": "a",
          "type": "uint256[2]"
        },
        {
          "internalType": "uint256[2][2]",
          "name": "b",
          "type": "uint256[2][2]"
        },
        {
          "internalType": "uint256[2]",
          "name": "c",
          "type": "uint256[2]"
        },
        {
          "internalType": "uint256[4]",
          "name": "publicSignals",
          "type": "uint256[4]"
        }
      ],
      "name": "withdraw",
      "outputs": [],
      "stateMutability": "payable",
      "type": "function"
    }
  ],
  "bytecode": {
    "object": "0x60806040526000600155604380546001600160a01b0319908116735fbdb2315678afecb367f032d93f642f64180aa31790915560448054821673bcf26943c0197d2ee0e5d05c716be60cc2761508179055604580549091167359f2f1fcfe2474fd5f0b9ba1e73ca90b143eb8d01790553480156200007c57600080fd5b506000805460ff191660209081179091557f12817f4161f2f5ded33f26c55735a77e80e4f8975483c8c2704745128417f71160038190558060015b8360ff168160ff16101562000125576000620000d483806200013f565b90508060038360ff1660208110620000f057620000f0620001ce565b015580602360ff8416602081106200010c576200010c620001ce565b01559150806200011c81620001e4565b915050620000b7565b506200013281806200013f565b600255506200025f915050565b6044546040805180820182528481526020810184905290516314d2f97b60e11b81526000926001600160a01b0316916329a5f2f69162000183919060040162000212565b602060405180830381865afa158015620001a1573d6000803e3d6000fd5b505050506040513d601f19601f82011682018060405250810190620001c7919062000245565b9392505050565b634e487b7160e01b600052603260045260246000fd5b600060ff821660ff81036200020957634e487b7160e01b600052601160045260246000fd5b60010192915050565b60408101818360005b60028110156200023c5781518352602092830192909101906001016200021b565b50505092915050565b6000602082840312156200025857600080fd5b5051919050565b611504806200026f6000396000f3fe6080604052600436106100c25760003560e01c8063a64863a21161007f578063d37ad4be11610059578063d37ad4be14610246578063ebf0c7171461025b578063ec74f59014610271578063f163536b1461029157600080fd5b8063a64863a2146101b2578063b02c43d0146101da578063ca3e9ecf1461023357600080fd5b806310bfb87a146100c757806326d619a2146100dc5780633728abae1461010f5780637bb885be1461012f5780637d611a261461016f5780639fdc0ea61461019d575b600080fd5b6100da6100d5366004610cff565b6102b9565b005b3480156100e857600080fd5b506100fc6100f7366004610e47565b610523565b6040519081526020015b60405180910390f35b34801561011b57600080fd5b506100fc61012a366004610ec1565b6105cf565b34801561013b57600080fd5b50610157735fbdb2315678afecb367f032d93f642f64180aa381565b6040516001600160a01b039091168152602001610106565b34801561017b57600080fd5b5061018f61018a366004610ee3565b610659565b604051610106929190610efc565b3480156101a957600080fd5b506046546100fc565b3480156101be57600080fd5b5061015773bcf26943c0197d2ee0e5d05c716be60cc276150881565b3480156101e657600080fd5b506101fa6101f5366004610ee3565b61072a565b604080518551815260209586015186820152845191810191909152939092015160608401526080830152151560a082015260c001610106565b6100da610241366004610f74565b610794565b34801561025257600080fd5b506047546100fc565b34801561026757600080fd5b506100fc60025481565b34801561027d57600080fd5b506100da61028c366004610fa9565b6109c3565b34801561029d57600080fd5b506101577359f2f1fcfe2474fd5f0b9ba1e73ca90b143eb8d081565b604354604051635fe8c13b60e01b81526001600160a01b0390911690635fe8c13b906102ef908790879087908790600401611050565b602060405180830381865afa15801561030c573d6000803e3d6000fd5b505050506040513d601f19601f8201168201806040525081019061033091906110d4565b6103815760405162461bcd60e51b815260206004820152601860248201527f496e76616c6964207769746864726177616c2070726f6f66000000000000000060448201526064015b60405180910390fd5b60475485106103d25760405162461bcd60e51b815260206004820152601f60248201527f496e76616c696420726571756573746564206465706f73697420696e646578006044820152606401610378565b6000604786815481106103e7576103e76110f1565b60009182526020909120600690910201600581015490915060ff16156104475760405162461bcd60e51b815260206004820152601560248201527411195c1bdcda5d08185b1c9958591e481cdc195b9d605a1b6044820152606401610378565b80548251146104685760405162461bcd60e51b815260040161037890611107565b600181015460208301511461048f5760405162461bcd60e51b815260040161037890611107565b60028101546040830151146104b65760405162461bcd60e51b815260040161037890611164565b60038101546060830151146104dd5760405162461bcd60e51b815260040161037890611164565b6004810154604051339180156108fc02916000818181858888f1935050505015801561050d573d6000803e3d6000fd5b50600501805460ff191660011790555050505050565b6045546040805160a08101825283515181528351602090810151818301528085018051518385015251015160608201528382015160808201529051630926f44b60e31b81526000926001600160a01b031691634937a2589161058891906004016111c1565b602060405180830381865afa1580156105a5573d6000803e3d6000fd5b505050506040513d601f19601f820116820180604052508101906105c991906111f2565b92915050565b6044546040805180820182528481526020810184905290516314d2f97b60e11b81526000926001600160a01b0316916329a5f2f691610611919060040161120b565b602060405180830381865afa15801561062e573d6000803e3d6000fd5b505050506040513d601f19601f8201168201806040525081019061065291906111f2565b9392505050565b6046818154811061066957600080fd5b60009182526020918290206040805180820190915260039092020180548252600181015492820192909252600282018054919350906106a790611219565b80601f01602080910402602001604051908101604052809291908181526020018280546106d390611219565b80156107205780601f106106f557610100808354040283529160200191610720565b820191906000526020600020905b81548152906001019060200180831161070357829003601f168201915b5050505050905082565b6047818154811061073a57600080fd5b60009182526020918290206040805180820182526006909302909101805483526001810154838501528151808301909252600281015482526003810154938201939093526004830154600590930154919350919060ff1684565b600034116107ef5760405162461bcd60e51b815260206004820152602260248201527f4465706f73697465642065746865722076616c7565206d757374206265203e20604482015261181760f11b6064820152608401610378565b600060405180608001604052808480360381019061080d919061124d565b81526020016108213685900385018561124d565b81523460208083019190915260006040928301819052604780546001810182559152835180517fc43c1e24e1884c4e28a16bbd9506f60b5ca9f18fc90635e729d3cfe13abcf001600690930292830181905590830180517fc43c1e24e1884c4e28a16bbd9506f60b5ca9f18fc90635e729d3cfe13abcf002840155858401805180517fc43c1e24e1884c4e28a16bbd9506f60b5ca9f18fc90635e729d3cfe13abcf0038601558501517fc43c1e24e1884c4e28a16bbd9506f60b5ca9f18fc90635e729d3cfe13abcf00485015586860180517fc43c1e24e1884c4e28a16bbd9506f60b5ca9f18fc90635e729d3cfe13abcf005860155606080890180517fc43c1e24e1884c4e28a16bbd9506f60b5ca9f18fc90635e729d3cfe13abcf006909701805460ff1916971515979097179096558751948552925184870152905180518488015290940151908201529151608083015251151560a082015290519192507f137ef2dd26724feaf5f7fbb4dac309c055df5c2bbdb3c05a9972afd23d3fd79e919081900360c00190a16109bd6109b882610523565b610a67565b50505050565b60466040518060400160405280858036038101906109e1919061124d565b815260200184848080601f016020809104026020016040519081016040528093929190818152602001838380828437600092018290525093909452505083546001818101865594825260209182902084518051600390930290910191825582015194810194909455820151919291600283019150610a5f90826112b4565b505050505050565b60007f30644e72e131a029b85045b68181585d2833e84879b9709143e1f593f00000018210610b0e5760405162461bcd60e51b815260206004820152604760248201527f496e6372656d656e74616c4d65726b6c65547265653a20696e736572744c656160448201527f6620617267756d656e74206d757374206265203c20534e41524b5f5343414c416064820152661497d19251531160ca1b608482015260a401610378565b60015460005460ff16610b2281600261146e565b8210610b7c5760405162461bcd60e51b815260206004820152602360248201527f496e6372656d656e74616c4d65726b6c65547265653a207472656520697320666044820152621d5b1b60ea1b6064820152608401610378565b83600080805b60005460ff9081169082161015610c2357610b9e60028761147a565b600003610be05783925060038160ff1660208110610bbe57610bbe6110f1565b015491508360238260ff1660208110610bd957610bd96110f1565b0155610bfe565b60238160ff1660208110610bf657610bf66110f1565b015492508391505b610c0883836105cf565b60019690961c95935080610c1b8161149c565b915050610b82565b50826002819055506001806000828254610c3d91906114bb565b9091555094979650505050505050565b634e487b7160e01b600052604160045260246000fd5b6040805190810167ffffffffffffffff81118282101715610c8657610c86610c4d565b60405290565b6040516080810167ffffffffffffffff81118282101715610c8657610c86610c4d565b600082601f830112610cc057600080fd5b610cc8610c63565b806040840185811115610cda57600080fd5b845b81811015610cf4578035845260209384019301610cdc565b509095945050505050565b60008060008060006101a0808789031215610d1957600080fd5b863595506020610d2b89828a01610caf565b955088607f890112610d3c57600080fd5b610d44610c63565b8060e08a018b811115610d5657600080fd5b60608b015b81811015610d7b57610d6d8d82610caf565b845292840192604001610d5b565b50819750610d898c82610caf565b96505050508861013f890112610d9e57600080fd5b610da6610c8c565b91880191808a841115610db857600080fd5b6101208a015b84811015610dd55780358352918301918301610dbe565b50809450505050509295509295909350565b600060408284031215610df957600080fd5b6040516040810181811067ffffffffffffffff82111715610e1c57610e1c610c4d565b604052823581526020928301359281019290925250919050565b8015158114610e4457600080fd5b50565b600060c08284031215610e5957600080fd5b6040516080810181811067ffffffffffffffff82111715610e7c57610e7c610c4d565b604052610e898484610de7565b8152610e988460408501610de7565b60208201526080830135604082015260a0830135610eb581610e36565b60608201529392505050565b60008060408385031215610ed457600080fd5b50508035926020909101359150565b600060208284031215610ef557600080fd5b5035919050565b8251815260208084015190820152606060408201526000825180606084015260005b81811015610f3b5760208186018101516080868401015201610f1e565b506000608082850101526080601f19601f8301168401019150509392505050565b600060408284031215610f6e57600080fd5b50919050565b60008060808385031215610f8757600080fd5b610f918484610f5c565b9150610fa08460408501610f5c565b90509250929050565b600080600060608486031215610fbe57600080fd5b610fc88585610f5c565b9250604084013567ffffffffffffffff80821115610fe557600080fd5b818601915086601f830112610ff957600080fd5b81358181111561100857600080fd5b87602082850101111561101a57600080fd5b6020830194508093505050509250925092565b8060005b60028110156109bd578151845260209384019390910190600101611031565b610180810161105f828761102d565b60408083018660005b600281101561108f5761107c83835161102d565b9183019160209190910190600101611068565b505050506110a060c083018561102d565b61010082018360005b60048110156110c85781518352602092830192909101906001016110a9565b50505095945050505050565b6000602082840312156110e657600080fd5b815161065281610e36565b634e487b7160e01b600052603260045260246000fd5b6020808252603d908201527f5075626c6963207369676e616c7320666f722070726f6f6620646f6e2774206d60408201527f61746368205020666f722074686520746172676574206465706f736974000000606082015260800190565b6020808252603d908201527f5075626c6963207369676e616c7320666f722070726f6f6620646f6e2774206d60408201527f61746368205120666f722074686520746172676574206465706f736974000000606082015260800190565b60a08101818360005b60058110156111e95781518352602092830192909101906001016111ca565b50505092915050565b60006020828403121561120457600080fd5b5051919050565b604081016105c9828461102d565b600181811c9082168061122d57607f821691505b602082108103610f6e57634e487b7160e01b600052602260045260246000fd5b60006040828403121561125f57600080fd5b6106528383610de7565b601f8211156112af57600081815260208120601f850160051c810160208610156112905750805b601f850160051c820191505b81811015610a5f5782815560010161129c565b505050565b815167ffffffffffffffff8111156112ce576112ce610c4d565b6112e2816112dc8454611219565b84611269565b602080601f83116001811461131757600084156112ff5750858301515b600019600386901b1c1916600185901b178555610a5f565b600085815260208120601f198616915b8281101561134657888601518255948401946001909101908401611327565b50858210156113645787850151600019600388901b60f8161c191681555b5050505050600190811b01905550565b634e487b7160e01b600052601160045260246000fd5b600181815b808511156113c55781600019048211156113ab576113ab611374565b808516156113b857918102915b93841c939080029061138f565b509250929050565b6000826113dc575060016105c9565b816113e9575060006105c9565b81600181146113ff576002811461140957611425565b60019150506105c9565b60ff84111561141a5761141a611374565b50506001821b6105c9565b5060208310610133831016604e8410600b8410161715611448575081810a6105c9565b611452838361138a565b806000190482111561146657611466611374565b029392505050565b600061065283836113cd565b60008261149757634e487b7160e01b600052601260045260246000fd5b500690565b600060ff821660ff81036114b2576114b2611374565b60010192915050565b808201808211156105c9576105c961137456fea26469706673582212208ceedb058a6065dab4d9ce74f2838b4e96ba601b1c6b413fa39d517ab482c02564736f6c63430008110033",
    "linkReferences": {}
  },
  "methodIdentifiers": {
    "POSEIDON_T3_ADDR()": "a64863a2",
    "POSEIDON_T6_ADDR()": "f163536b",
    "VERIFIER_ADDR()": "7bb885be",
    "_hashLeaf(((bytes32,bytes32),(bytes32,bytes32),uint256,bool))": "26d619a2",
    "_hashLeftRight(uint256,uint256)": "3728abae",
    "create((bytes32,bytes32),string)": "ec74f590",
    "deposit((bytes32,bytes32),(bytes32,bytes32))": "ca3e9ecf",
    "deposits(uint256)": "b02c43d0",
    "directory(uint256)": "7d611a26",
    "getDirectoryLength()": "9fdc0ea6",
    "getNumDeposits()": "d37ad4be",
    "root()": "ebf0c717",
    "withdraw(uint256,uint256[2],uint256[2][2],uint256[2],uint256[4])": "10bfb87a"
  },
  "id": 8
}