{
  "abi": [
    {
      "inputs": [],
      "stateMutability": "nonpayable",
      "type": "constructor"
    },
    {
      "anonymous": false,
      "inputs": [
        {
          "components": [
            {
              "components": [
                {
                  "internalType": "bytes32",
                  "name": "x",
                  "type": "bytes32"
                },
                {
                  "internalType": "bytes32",
                  "name": "y",
                  "type": "bytes32"
                }
              ],
              "internalType": "struct PrivateTreasury.Point",
              "name": "P",
              "type": "tuple"
            },
            {
              "components": [
                {
                  "internalType": "bytes32",
                  "name": "x",
                  "type": "bytes32"
                },
                {
                  "internalType": "bytes32",
                  "name": "y",
                  "type": "bytes32"
                }
              ],
              "internalType": "struct PrivateTreasury.Point",
              "name": "Q",
              "type": "tuple"
            },
            {
              "internalType": "uint256",
              "name": "v",
              "type": "uint256"
            }
          ],
          "indexed": false,
          "internalType": "struct PrivateTreasury.Leaf",
          "name": "lf",
          "type": "tuple"
        }
      ],
      "name": "NewLeaf",
      "type": "event"
    },
    {
      "inputs": [],
      "name": "POSEIDON_T3_ADDR",
      "outputs": [
        {
          "internalType": "address",
          "name": "",
          "type": "address"
        }
      ],
      "stateMutability": "view",
      "type": "function"
    },
    {
      "inputs": [],
      "name": "POSEIDON_T6_ADDR",
      "outputs": [
        {
          "internalType": "address",
          "name": "",
          "type": "address"
        }
      ],
      "stateMutability": "view",
      "type": "function"
    },
    {
      "inputs": [],
      "name": "VERIFIER_ADDR",
      "outputs": [
        {
          "internalType": "address",
          "name": "",
          "type": "address"
        }
      ],
      "stateMutability": "view",
      "type": "function"
    },
    {
      "inputs": [
        {
          "components": [
            {
              "components": [
                {
                  "internalType": "bytes32",
                  "name": "x",
                  "type": "bytes32"
                },
                {
                  "internalType": "bytes32",
                  "name": "y",
                  "type": "bytes32"
                }
              ],
              "internalType": "struct PrivateTreasury.Point",
              "name": "P",
              "type": "tuple"
            },
            {
              "components": [
                {
                  "internalType": "bytes32",
                  "name": "x",
                  "type": "bytes32"
                },
                {
                  "internalType": "bytes32",
                  "name": "y",
                  "type": "bytes32"
                }
              ],
              "internalType": "struct PrivateTreasury.Point",
              "name": "Q",
              "type": "tuple"
            },
            {
              "internalType": "uint256",
              "name": "v",
              "type": "uint256"
            }
          ],
          "internalType": "struct PrivateTreasury.Leaf",
          "name": "lf",
          "type": "tuple"
        }
      ],
      "name": "_hashLeaf",
      "outputs": [
        {
          "internalType": "uint256",
          "name": "",
          "type": "uint256"
        }
      ],
      "stateMutability": "view",
      "type": "function"
    },
    {
      "inputs": [
        {
          "internalType": "uint256",
          "name": "l",
          "type": "uint256"
        },
        {
          "internalType": "uint256",
          "name": "r",
          "type": "uint256"
        }
      ],
      "name": "_hashLeftRight",
      "outputs": [
        {
          "internalType": "uint256",
          "name": "",
          "type": "uint256"
        }
      ],
      "stateMutability": "view",
      "type": "function"
    },
    {
      "inputs": [
        {
          "components": [
            {
              "internalType": "bytes32",
              "name": "x",
              "type": "bytes32"
            },
            {
              "internalType": "bytes32",
              "name": "y",
              "type": "bytes32"
            }
          ],
          "internalType": "struct PrivateTreasury.Point",
          "name": "pk",
          "type": "tuple"
        },
        {
          "internalType": "string",
          "name": "label",
          "type": "string"
        }
      ],
      "name": "create",
      "outputs": [],
      "stateMutability": "nonpayable",
      "type": "function"
    },
    {
      "inputs": [
        {
          "components": [
            {
              "internalType": "bytes32",
              "name": "x",
              "type": "bytes32"
            },
            {
              "internalType": "bytes32",
              "name": "y",
              "type": "bytes32"
            }
          ],
          "internalType": "struct PrivateTreasury.Point",
          "name": "P",
          "type": "tuple"
        },
        {
          "components": [
            {
              "internalType": "bytes32",
              "name": "x",
              "type": "bytes32"
            },
            {
              "internalType": "bytes32",
              "name": "y",
              "type": "bytes32"
            }
          ],
          "internalType": "struct PrivateTreasury.Point",
          "name": "Q",
          "type": "tuple"
        }
      ],
      "name": "deposit",
      "outputs": [],
      "stateMutability": "payable",
      "type": "function"
    },
    {
      "inputs": [
        {
          "internalType": "uint256",
          "name": "",
          "type": "uint256"
        }
      ],
      "name": "directory",
      "outputs": [
        {
          "components": [
            {
              "internalType": "bytes32",
              "name": "x",
              "type": "bytes32"
            },
            {
              "internalType": "bytes32",
              "name": "y",
              "type": "bytes32"
            }
          ],
          "internalType": "struct PrivateTreasury.Point",
          "name": "pk",
          "type": "tuple"
        },
        {
          "internalType": "string",
          "name": "label",
          "type": "string"
        }
      ],
      "stateMutability": "view",
      "type": "function"
    },
    {
      "inputs": [],
      "name": "getDirectoryLength",
      "outputs": [
        {
          "internalType": "uint256",
          "name": "",
          "type": "uint256"
        }
      ],
      "stateMutability": "view",
      "type": "function"
    },
    {
      "inputs": [],
      "name": "getNumDeposits",
      "outputs": [
        {
          "internalType": "uint256",
          "name": "",
          "type": "uint256"
        }
      ],
      "stateMutability": "view",
      "type": "function"
    },
    {
      "inputs": [],
      "name": "root",
      "outputs": [
        {
          "internalType": "uint256",
          "name": "",
          "type": "uint256"
        }
      ],
      "stateMutability": "view",
      "type": "function"
    },
    {
      "inputs": [
        {
          "internalType": "uint256[2]",
          "name": "a",
          "type": "uint256[2]"
        },
        {
          "internalType": "uint256[2][2]",
          "name": "b",
          "type": "uint256[2][2]"
        },
        {
          "internalType": "uint256[2]",
          "name": "c",
          "type": "uint256[2]"
        },
        {
          "internalType": "uint256[3]",
          "name": "publicSignals",
          "type": "uint256[3]"
        }
      ],
      "name": "withdraw",
      "outputs": [],
      "stateMutability": "payable",
      "type": "function"
    }
  ],
  "bytecode": {
    "object": "0x60806040526000600155604380546001600160a01b0319908116739fe46736679d2d9a65f0992f2272de9f3c7fa6e017909155604480548216738464135c8f25da09e49bc8782676a84730c318bc179055604580549091167371c95911e9a5d330f4d621842ec243ee1343292e1790553480156200007c57600080fd5b506000805460ff191660209081179091557f12817f4161f2f5ded33f26c55735a77e80e4f8975483c8c2704745128417f71160038190558060015b8360ff168160ff16101562000125576000620000d483806200013f565b90508060038360ff1660208110620000f057620000f0620001ce565b015580602360ff8416602081106200010c576200010c620001ce565b01559150806200011c81620001e4565b915050620000b7565b506200013281806200013f565b600255506200025f915050565b6044546040805180820182528481526020810184905290516314d2f97b60e11b81526000926001600160a01b0316916329a5f2f69162000183919060040162000212565b602060405180830381865afa158015620001a1573d6000803e3d6000fd5b505050506040513d601f19601f82011682018060405250810190620001c7919062000245565b9392505050565b634e487b7160e01b600052603260045260246000fd5b600060ff821660ff81036200020957634e487b7160e01b600052601160045260246000fd5b60010192915050565b60408101818360005b60028110156200023c5781518352602092830192909101906001016200021b565b50505092915050565b6000602082840312156200025857600080fd5b5051919050565b6111f4806200026f6000396000f3fe6080604052600436106100a75760003560e01c8063a64863a211610064578063a64863a214610197578063ca3e9ecf146101bf578063d37ad4be146101d2578063ebf0c717146101e7578063ec74f590146101fd578063f163536b1461021d57600080fd5b80632d2fbf30146100ac5780632e5ca4d3146100c15780633728abae146100f45780637bb885be146101145780637d611a26146101545780639fdc0ea614610182575b600080fd5b6100bf6100ba366004610ad1565b610245565b005b3480156100cd57600080fd5b506100e16100dc366004610bfe565b610485565b6040519081526020015b60405180910390f35b34801561010057600080fd5b506100e161010f366004610c66565b610531565b34801561012057600080fd5b5061013c739fe46736679d2d9a65f0992f2272de9f3c7fa6e081565b6040516001600160a01b0390911681526020016100eb565b34801561016057600080fd5b5061017461016f366004610c88565b6105bb565b6040516100eb929190610ca1565b34801561018e57600080fd5b506046546100e1565b3480156101a357600080fd5b5061013c738464135c8f25da09e49bc8782676a84730c318bc81565b6100bf6101cd366004610d19565b61068c565b3480156101de57600080fd5b506001546100e1565b3480156101f357600080fd5b506100e160025481565b34801561020957600080fd5b506100bf610218366004610d4e565b610795565b34801561022957600080fd5b5061013c7371c95911e9a5d330f4d621842ec243ee1343292e81565b6043546040516308a3cff560e11b81526001600160a01b03909116906311479fea9061027b908790879087908790600401610df5565b602060405180830381865afa158015610298573d6000803e3d6000fd5b505050506040513d601f19601f820116820180604052508101906102bc9190610e79565b61030d5760405162461bcd60e51b815260206004820152601860248201527f496e76616c6964207769746864726177616c2070726f6f66000000000000000060448201526064015b60405180910390fd5b80516020820151604083015160025482146103905760405162461bcd60e51b815260206004820152603c60248201527f4d65726b6c6520726f6f74206173736f63696174656420772f2070726f6f662060448201527f646f65736e2774206d61746368206f6e2d636861696e20726f6f742e000000006064820152608401610304565b60015481106103e15760405162461bcd60e51b815260206004820152601f60248201527f496e76616c696420726571756573746564206465706f73697420696e646578006044820152606401610304565b60008181526047602052604090205460ff16156104385760405162461bcd60e51b815260206004820152601560248201527411195c1bdcda5d08185b1c9958591e481cdc195b9d605a1b6044820152606401610304565b600081815260476020526040808220805460ff1916600117905551339185156108fc02918691818181858888f1935050505015801561047b573d6000803e3d6000fd5b5050505050505050565b6045546040805160a08101825283515181528351602090810151818301528085018051518385015251015160608201528382015160808201529051630926f44b60e31b81526000926001600160a01b031691634937a258916104ea9190600401610eb1565b602060405180830381865afa158015610507573d6000803e3d6000fd5b505050506040513d601f19601f8201168201806040525081019061052b9190610ee2565b92915050565b6044546040805180820182528481526020810184905290516314d2f97b60e11b81526000926001600160a01b0316916329a5f2f6916105739190600401610efb565b602060405180830381865afa158015610590573d6000803e3d6000fd5b505050506040513d601f19601f820116820180604052508101906105b49190610ee2565b9392505050565b604681815481106105cb57600080fd5b600091825260209182902060408051808201909152600390920201805482526001810154928201929092526002820180549193509061060990610f09565b80601f016020809104026020016040519081016040528092919081815260200182805461063590610f09565b80156106825780601f1061065757610100808354040283529160200191610682565b820191906000526020600020905b81548152906001019060200180831161066557829003601f168201915b5050505050905082565b600034116106e75760405162461bcd60e51b815260206004820152602260248201527f4465706f73697465642065746865722076616c7565206d757374206265203e20604482015261181760f11b6064820152608401610304565b60006040518060600160405280848036038101906107059190610f3d565b815260200161071936859003850185610f3d565b81523460209182015260408051835180518252830151818401528383015180518284015290920151606083015282015160808201529091507f0570a54f1916569668bb02c5d54e6e6faaf265f1cfeb92ab6b712c9ce9661bd39060a00160405180910390a161078f61078a82610485565b610839565b50505050565b60466040518060400160405280858036038101906107b39190610f3d565b815260200184848080601f0160208091040260200160405190810160405280939291908181526020018383808284376000920182905250939094525050835460018181018655948252602091829020845180516003909302909101918255820151948101949094558201519192916002830191506108319082610fa4565b505050505050565b60007f30644e72e131a029b85045b68181585d2833e84879b9709143e1f593f000000182106108e05760405162461bcd60e51b815260206004820152604760248201527f496e6372656d656e74616c4d65726b6c65547265653a20696e736572744c656160448201527f6620617267756d656e74206d757374206265203c20534e41524b5f5343414c416064820152661497d19251531160ca1b608482015260a401610304565b60015460005460ff166108f481600261115e565b821061094e5760405162461bcd60e51b815260206004820152602360248201527f496e6372656d656e74616c4d65726b6c65547265653a207472656520697320666044820152621d5b1b60ea1b6064820152608401610304565b83600080805b60005460ff90811690821610156109f55761097060028761116a565b6000036109b25783925060038160ff166020811061099057610990610e9b565b015491508360238260ff16602081106109ab576109ab610e9b565b01556109d0565b60238160ff16602081106109c8576109c8610e9b565b015492508391505b6109da8383610531565b60019690961c959350806109ed8161118c565b915050610954565b50826002819055506001806000828254610a0f91906111ab565b9091555094979650505050505050565b634e487b7160e01b600052604160045260246000fd5b6040805190810167ffffffffffffffff81118282101715610a5857610a58610a1f565b60405290565b6040516060810167ffffffffffffffff81118282101715610a5857610a58610a1f565b600082601f830112610a9257600080fd5b610a9a610a35565b806040840185811115610aac57600080fd5b845b81811015610ac6578035845260209384019301610aae565b509095945050505050565b600080600080610160808688031215610ae957600080fd5b610af38787610a81565b9450604087605f880112610b0657600080fd5b610b0e610a35565b8060c089018a811115610b2057600080fd5b838a015b81811015610b4557610b368c82610a81565b84526020909301928401610b24565b50819750610b538b82610a81565b9650505050508661011f870112610b6957600080fd5b610b71610a5e565b908601908088831115610b8357600080fd5b61010088015b83811015610ba1578035835260209283019201610b89565b509598949750929550505050565b600060408284031215610bc157600080fd5b6040516040810181811067ffffffffffffffff82111715610be457610be4610a1f565b604052823581526020928301359281019290925250919050565b600060a08284031215610c1057600080fd5b6040516060810181811067ffffffffffffffff82111715610c3357610c33610a1f565b604052610c408484610baf565b8152610c4f8460408501610baf565b602082015260809290920135604083015250919050565b60008060408385031215610c7957600080fd5b50508035926020909101359150565b600060208284031215610c9a57600080fd5b5035919050565b8251815260208084015190820152606060408201526000825180606084015260005b81811015610ce05760208186018101516080868401015201610cc3565b506000608082850101526080601f19601f8301168401019150509392505050565b600060408284031215610d1357600080fd5b50919050565b60008060808385031215610d2c57600080fd5b610d368484610d01565b9150610d458460408501610d01565b90509250929050565b600080600060608486031215610d6357600080fd5b610d6d8585610d01565b9250604084013567ffffffffffffffff80821115610d8a57600080fd5b818601915086601f830112610d9e57600080fd5b813581811115610dad57600080fd5b876020828501011115610dbf57600080fd5b6020830194508093505050509250925092565b8060005b600281101561078f578151845260209384019390910190600101610dd6565b6101608101610e048287610dd2565b60408083018660005b6002811015610e3457610e21838351610dd2565b9183019160209190910190600101610e0d565b50505050610e4560c0830185610dd2565b61010082018360005b6003811015610e6d578151835260209283019290910190600101610e4e565b50505095945050505050565b600060208284031215610e8b57600080fd5b815180151581146105b457600080fd5b634e487b7160e01b600052603260045260246000fd5b60a08101818360005b6005811015610ed9578151835260209283019290910190600101610eba565b50505092915050565b600060208284031215610ef457600080fd5b5051919050565b6040810161052b8284610dd2565b600181811c90821680610f1d57607f821691505b602082108103610d1357634e487b7160e01b600052602260045260246000fd5b600060408284031215610f4f57600080fd5b6105b48383610baf565b601f821115610f9f57600081815260208120601f850160051c81016020861015610f805750805b601f850160051c820191505b8181101561083157828155600101610f8c565b505050565b815167ffffffffffffffff811115610fbe57610fbe610a1f565b610fd281610fcc8454610f09565b84610f59565b602080601f8311600181146110075760008415610fef5750858301515b600019600386901b1c1916600185901b178555610831565b600085815260208120601f198616915b8281101561103657888601518255948401946001909101908401611017565b50858210156110545787850151600019600388901b60f8161c191681555b5050505050600190811b01905550565b634e487b7160e01b600052601160045260246000fd5b600181815b808511156110b557816000190482111561109b5761109b611064565b808516156110a857918102915b93841c939080029061107f565b509250929050565b6000826110cc5750600161052b565b816110d95750600061052b565b81600181146110ef57600281146110f957611115565b600191505061052b565b60ff84111561110a5761110a611064565b50506001821b61052b565b5060208310610133831016604e8410600b8410161715611138575081810a61052b565b611142838361107a565b806000190482111561115657611156611064565b029392505050565b60006105b483836110bd565b60008261118757634e487b7160e01b600052601260045260246000fd5b500690565b600060ff821660ff81036111a2576111a2611064565b60010192915050565b8082018082111561052b5761052b61106456fea2646970667358221220f13b7c5fb64b6a4dd36c865b47f19a7e898f85d1c9a2f7a4951fa579bf67297164736f6c63430008110033",
    "linkReferences": {}
  },
  "methodIdentifiers": {
    "POSEIDON_T3_ADDR()": "a64863a2",
    "POSEIDON_T6_ADDR()": "f163536b",
    "VERIFIER_ADDR()": "7bb885be",
    "_hashLeaf(((bytes32,bytes32),(bytes32,bytes32),uint256))": "2e5ca4d3",
    "_hashLeftRight(uint256,uint256)": "3728abae",
    "create((bytes32,bytes32),string)": "ec74f590",
    "deposit((bytes32,bytes32),(bytes32,bytes32))": "ca3e9ecf",
    "directory(uint256)": "7d611a26",
    "getDirectoryLength()": "9fdc0ea6",
    "getNumDeposits()": "d37ad4be",
    "root()": "ebf0c717",
    "withdraw(uint256[2],uint256[2][2],uint256[2],uint256[3])": "2d2fbf30"
  },
  "id": 8
}