{
  "abi": [
    {
      "anonymous": false,
      "inputs": [
        {
          "components": [
            {
              "components": [
                {
                  "internalType": "bytes32",
                  "name": "x",
                  "type": "bytes32"
                },
                {
                  "internalType": "bytes32",
                  "name": "y",
                  "type": "bytes32"
                }
              ],
              "internalType": "struct PrivateTreasury.Point",
              "name": "P",
              "type": "tuple"
            },
            {
              "components": [
                {
                  "internalType": "bytes32",
                  "name": "x",
                  "type": "bytes32"
                },
                {
                  "internalType": "bytes32",
                  "name": "y",
                  "type": "bytes32"
                }
              ],
              "internalType": "struct PrivateTreasury.Point",
              "name": "Q",
              "type": "tuple"
            },
            {
              "internalType": "uint256",
              "name": "v",
              "type": "uint256"
            },
            {
              "internalType": "bool",
              "name": "spent",
              "type": "bool"
            }
          ],
          "indexed": false,
          "internalType": "struct PrivateTreasury.Leaf",
          "name": "lf",
          "type": "tuple"
        }
      ],
      "name": "NewLeaf",
      "type": "event"
    },
    {
      "inputs": [],
      "name": "POSEIDON_T3_ADDR",
      "outputs": [
        {
          "internalType": "address",
          "name": "",
          "type": "address"
        }
      ],
      "stateMutability": "view",
      "type": "function"
    },
    {
      "inputs": [],
      "name": "POSEIDON_T6_ADDR",
      "outputs": [
        {
          "internalType": "address",
          "name": "",
          "type": "address"
        }
      ],
      "stateMutability": "view",
      "type": "function"
    },
    {
      "inputs": [],
      "name": "VERIFIER_ADDR",
      "outputs": [
        {
          "internalType": "address",
          "name": "",
          "type": "address"
        }
      ],
      "stateMutability": "view",
      "type": "function"
    },
    {
      "inputs": [
        {
          "components": [
            {
              "internalType": "bytes32",
              "name": "x",
              "type": "bytes32"
            },
            {
              "internalType": "bytes32",
              "name": "y",
              "type": "bytes32"
            }
          ],
          "internalType": "struct PrivateTreasury.Point",
          "name": "pk",
          "type": "tuple"
        },
        {
          "internalType": "string",
          "name": "label",
          "type": "string"
        }
      ],
      "name": "create",
      "outputs": [],
      "stateMutability": "nonpayable",
      "type": "function"
    },
    {
      "inputs": [
        {
          "components": [
            {
              "internalType": "bytes32",
              "name": "x",
              "type": "bytes32"
            },
            {
              "internalType": "bytes32",
              "name": "y",
              "type": "bytes32"
            }
          ],
          "internalType": "struct PrivateTreasury.Point",
          "name": "P",
          "type": "tuple"
        },
        {
          "components": [
            {
              "internalType": "bytes32",
              "name": "x",
              "type": "bytes32"
            },
            {
              "internalType": "bytes32",
              "name": "y",
              "type": "bytes32"
            }
          ],
          "internalType": "struct PrivateTreasury.Point",
          "name": "Q",
          "type": "tuple"
        }
      ],
      "name": "deposit",
      "outputs": [],
      "stateMutability": "payable",
      "type": "function"
    },
    {
      "inputs": [
        {
          "internalType": "uint256",
          "name": "",
          "type": "uint256"
        }
      ],
      "name": "deposits",
      "outputs": [
        {
          "components": [
            {
              "internalType": "bytes32",
              "name": "x",
              "type": "bytes32"
            },
            {
              "internalType": "bytes32",
              "name": "y",
              "type": "bytes32"
            }
          ],
          "internalType": "struct PrivateTreasury.Point",
          "name": "P",
          "type": "tuple"
        },
        {
          "components": [
            {
              "internalType": "bytes32",
              "name": "x",
              "type": "bytes32"
            },
            {
              "internalType": "bytes32",
              "name": "y",
              "type": "bytes32"
            }
          ],
          "internalType": "struct PrivateTreasury.Point",
          "name": "Q",
          "type": "tuple"
        },
        {
          "internalType": "uint256",
          "name": "v",
          "type": "uint256"
        },
        {
          "internalType": "bool",
          "name": "spent",
          "type": "bool"
        }
      ],
      "stateMutability": "view",
      "type": "function"
    },
    {
      "inputs": [
        {
          "internalType": "uint256",
          "name": "",
          "type": "uint256"
        }
      ],
      "name": "directory",
      "outputs": [
        {
          "components": [
            {
              "internalType": "bytes32",
              "name": "x",
              "type": "bytes32"
            },
            {
              "internalType": "bytes32",
              "name": "y",
              "type": "bytes32"
            }
          ],
          "internalType": "struct PrivateTreasury.Point",
          "name": "pk",
          "type": "tuple"
        },
        {
          "internalType": "string",
          "name": "label",
          "type": "string"
        }
      ],
      "stateMutability": "view",
      "type": "function"
    },
    {
      "inputs": [],
      "name": "getDirectoryLength",
      "outputs": [
        {
          "internalType": "uint256",
          "name": "",
          "type": "uint256"
        }
      ],
      "stateMutability": "view",
      "type": "function"
    },
    {
      "inputs": [],
      "name": "getNumDeposits",
      "outputs": [
        {
          "internalType": "uint256",
          "name": "",
          "type": "uint256"
        }
      ],
      "stateMutability": "view",
      "type": "function"
    },
    {
      "inputs": [
        {
          "internalType": "uint256",
          "name": "leafIdx",
          "type": "uint256"
        },
        {
          "internalType": "uint256[2]",
          "name": "a",
          "type": "uint256[2]"
        },
        {
          "internalType": "uint256[2][2]",
          "name": "b",
          "type": "uint256[2][2]"
        },
        {
          "internalType": "uint256[2]",
          "name": "c",
          "type": "uint256[2]"
        },
        {
          "internalType": "uint256[4]",
          "name": "publicSignals",
          "type": "uint256[4]"
        }
      ],
      "name": "withdraw",
      "outputs": [],
      "stateMutability": "payable",
      "type": "function"
    }
  ],
  "bytecode": {
    "object": "0x6080604052600080546001600160a01b0319908116735fbdb2315678afecb367f032d93f642f64180aa317909155600180548216738464135c8f25da09e49bc8782676a84730c318bc179055600280549091167371c95911e9a5d330f4d621842ec243ee1343292e17905534801561007657600080fd5b50610ee2806100866000396000f3fe6080604052600436106100915760003560e01c8063b02c43d011610059578063b02c43d014610165578063ca3e9ecf146101be578063d37ad4be146101d1578063ec74f590146101e6578063f163536b1461020657600080fd5b806310bfb87a146100965780637bb885be146100ab5780637d611a26146100f05780639fdc0ea61461011e578063a64863a21461013d575b600080fd5b6100a96100a4366004610946565b61022e565b005b3480156100b757600080fd5b506100d3735fbdb2315678afecb367f032d93f642f64180aa381565b6040516001600160a01b0390911681526020015b60405180910390f35b3480156100fc57600080fd5b5061011061010b366004610a2e565b610498565b6040516100e7929190610a47565b34801561012a57600080fd5b506003545b6040519081526020016100e7565b34801561014957600080fd5b506100d3738464135c8f25da09e49bc8782676a84730c318bc81565b34801561017157600080fd5b50610185610180366004610a2e565b610569565b604080518551815260209586015186820152845191810191909152939092015160608401526080830152151560a082015260c0016100e7565b6100a96101cc366004610abf565b6105d3565b3480156101dd57600080fd5b5060045461012f565b3480156101f257600080fd5b506100a9610201366004610af4565b6107f0565b34801561021257600080fd5b506100d37371c95911e9a5d330f4d621842ec243ee1343292e81565b600054604051635fe8c13b60e01b81526001600160a01b0390911690635fe8c13b90610264908790879087908790600401610ba1565b602060405180830381865afa158015610281573d6000803e3d6000fd5b505050506040513d601f19601f820116820180604052508101906102a59190610c25565b6102f65760405162461bcd60e51b815260206004820152601860248201527f496e76616c6964207769746864726177616c2070726f6f66000000000000000060448201526064015b60405180910390fd5b60045485106103475760405162461bcd60e51b815260206004820152601f60248201527f496e76616c696420726571756573746564206465706f73697420696e6465780060448201526064016102ed565b60006004868154811061035c5761035c610c4e565b60009182526020909120600690910201600581015490915060ff16156103bc5760405162461bcd60e51b815260206004820152601560248201527411195c1bdcda5d08185b1c9958591e481cdc195b9d605a1b60448201526064016102ed565b80548251146103dd5760405162461bcd60e51b81526004016102ed90610c64565b60018101546020830151146104045760405162461bcd60e51b81526004016102ed90610c64565b600281015460408301511461042b5760405162461bcd60e51b81526004016102ed90610cc1565b60038101546060830151146104525760405162461bcd60e51b81526004016102ed90610cc1565b6004810154604051339180156108fc02916000818181858888f19350505050158015610482573d6000803e3d6000fd5b50600501805460ff191660011790555050505050565b600381815481106104a857600080fd5b60009182526020918290206040805180820190915260039092020180548252600181015492820192909252600282018054919350906104e690610d1e565b80601f016020809104026020016040519081016040528092919081815260200182805461051290610d1e565b801561055f5780601f106105345761010080835404028352916020019161055f565b820191906000526020600020905b81548152906001019060200180831161054257829003601f168201915b5050505050905082565b6004818154811061057957600080fd5b60009182526020918290206040805180820182526006909302909101805483526001810154838501528151808301909252600281015482526003810154938201939093526004830154600590930154919350919060ff1684565b6000341161062e5760405162461bcd60e51b815260206004820152602260248201527f4465706f73697465642065746865722076616c7565206d757374206265203e20604482015261181760f11b60648201526084016102ed565b600060405180608001604052808480360381019061064c9190610d52565b815260200161066036859003850185610d52565b81523460208083019190915260006040928301819052600480546001810182559152835180517f8a35acfbc15ff81a39ae7d344fd709f28e8600b4aa8c65c6b64bfe7fe36bd19b600690930292830181905590830180517f8a35acfbc15ff81a39ae7d344fd709f28e8600b4aa8c65c6b64bfe7fe36bd19c840155858401805180517f8a35acfbc15ff81a39ae7d344fd709f28e8600b4aa8c65c6b64bfe7fe36bd19d8601558501517f8a35acfbc15ff81a39ae7d344fd709f28e8600b4aa8c65c6b64bfe7fe36bd19e85015586860180517f8a35acfbc15ff81a39ae7d344fd709f28e8600b4aa8c65c6b64bfe7fe36bd19f860155606080890180517f8a35acfbc15ff81a39ae7d344fd709f28e8600b4aa8c65c6b64bfe7fe36bd1a0909701805460ff1916971515979097179096558751948552925184870152905180518488015290940151908201529151608083015251151560a082015290519192507f137ef2dd26724feaf5f7fbb4dac309c055df5c2bbdb3c05a9972afd23d3fd79e919081900360c00190a1505050565b600360405180604001604052808580360381019061080e9190610d52565b815260200184848080601f01602080910402602001604051908101604052809392919081815260200183838082843760009201829052509390945250508354600181810186559482526020918290208451805160039093029091019182558201519481019490945582015191929160028301915061088c9082610dec565b505050505050565b634e487b7160e01b600052604160045260246000fd5b6040805190810167ffffffffffffffff811182821017156108cd576108cd610894565b60405290565b6040516080810167ffffffffffffffff811182821017156108cd576108cd610894565b600082601f83011261090757600080fd5b61090f6108aa565b80604084018581111561092157600080fd5b845b8181101561093b578035845260209384019301610923565b509095945050505050565b60008060008060006101a080878903121561096057600080fd5b86359550602061097289828a016108f6565b955088607f89011261098357600080fd5b61098b6108aa565b8060e08a018b81111561099d57600080fd5b60608b015b818110156109c2576109b48d826108f6565b8452928401926040016109a2565b508197506109d08c826108f6565b96505050508861013f8901126109e557600080fd5b6109ed6108d3565b91880191808a8411156109ff57600080fd5b6101208a015b84811015610a1c5780358352918301918301610a05565b50809450505050509295509295909350565b600060208284031215610a4057600080fd5b5035919050565b8251815260208084015190820152606060408201526000825180606084015260005b81811015610a865760208186018101516080868401015201610a69565b506000608082850101526080601f19601f8301168401019150509392505050565b600060408284031215610ab957600080fd5b50919050565b60008060808385031215610ad257600080fd5b610adc8484610aa7565b9150610aeb8460408501610aa7565b90509250929050565b600080600060608486031215610b0957600080fd5b610b138585610aa7565b9250604084013567ffffffffffffffff80821115610b3057600080fd5b818601915086601f830112610b4457600080fd5b813581811115610b5357600080fd5b876020828501011115610b6557600080fd5b6020830194508093505050509250925092565b8060005b6002811015610b9b578151845260209384019390910190600101610b7c565b50505050565b6101808101610bb08287610b78565b60408083018660005b6002811015610be057610bcd838351610b78565b9183019160209190910190600101610bb9565b50505050610bf160c0830185610b78565b61010082018360005b6004811015610c19578151835260209283019290910190600101610bfa565b50505095945050505050565b600060208284031215610c3757600080fd5b81518015158114610c4757600080fd5b9392505050565b634e487b7160e01b600052603260045260246000fd5b6020808252603d908201527f5075626c6963207369676e616c7320666f722070726f6f6620646f6e2774206d60408201527f61746368205020666f722074686520746172676574206465706f736974000000606082015260800190565b6020808252603d908201527f5075626c6963207369676e616c7320666f722070726f6f6620646f6e2774206d60408201527f61746368205120666f722074686520746172676574206465706f736974000000606082015260800190565b600181811c90821680610d3257607f821691505b602082108103610ab957634e487b7160e01b600052602260045260246000fd5b600060408284031215610d6457600080fd5b6040516040810181811067ffffffffffffffff82111715610d8757610d87610894565b604052823581526020928301359281019290925250919050565b601f821115610de757600081815260208120601f850160051c81016020861015610dc85750805b601f850160051c820191505b8181101561088c57828155600101610dd4565b505050565b815167ffffffffffffffff811115610e0657610e06610894565b610e1a81610e148454610d1e565b84610da1565b602080601f831160018114610e4f5760008415610e375750858301515b600019600386901b1c1916600185901b17855561088c565b600085815260208120601f198616915b82811015610e7e57888601518255948401946001909101908401610e5f565b5085821015610e9c5787850151600019600388901b60f8161c191681555b5050505050600190811b0190555056fea26469706673582212209208f8b870b45e1504cf90ef618965067545ac9271b5921b715001ee6eceba4364736f6c63430008110033",
    "linkReferences": {}
  },
  "methodIdentifiers": {
    "POSEIDON_T3_ADDR()": "a64863a2",
    "POSEIDON_T6_ADDR()": "f163536b",
    "VERIFIER_ADDR()": "7bb885be",
    "create((bytes32,bytes32),string)": "ec74f590",
    "deposit((bytes32,bytes32),(bytes32,bytes32))": "ca3e9ecf",
    "deposits(uint256)": "b02c43d0",
    "directory(uint256)": "7d611a26",
    "getDirectoryLength()": "9fdc0ea6",
    "getNumDeposits()": "d37ad4be",
    "withdraw(uint256,uint256[2],uint256[2][2],uint256[2],uint256[4])": "10bfb87a"
  },
  "id": 7
}