{
  "abi": [
    {
      "inputs": [
        {
          "internalType": "bytes32",
          "name": "pkX",
          "type": "bytes32"
        },
        {
          "internalType": "bytes32",
          "name": "pkY",
          "type": "bytes32"
        },
        {
          "internalType": "string",
          "name": "label",
          "type": "string"
        }
      ],
      "name": "create",
      "outputs": [],
      "stateMutability": "nonpayable",
      "type": "function"
    },
    {
      "inputs": [
        {
          "internalType": "uint256",
          "name": "",
          "type": "uint256"
        }
      ],
      "name": "directory",
      "outputs": [
        {
          "components": [
            {
              "internalType": "bytes32",
              "name": "x",
              "type": "bytes32"
            },
            {
              "internalType": "bytes32",
              "name": "y",
              "type": "bytes32"
            }
          ],
          "internalType": "struct PrivateTreasury.Point",
          "name": "pk",
          "type": "tuple"
        },
        {
          "internalType": "string",
          "name": "label",
          "type": "string"
        }
      ],
      "stateMutability": "view",
      "type": "function"
    },
    {
      "inputs": [],
      "name": "getDirectoryLength",
      "outputs": [
        {
          "internalType": "uint256",
          "name": "dirLength",
          "type": "uint256"
        }
      ],
      "stateMutability": "view",
      "type": "function"
    }
  ],
  "bytecode": {
    "object": "0x608060405234801561001057600080fd5b50610493806100206000396000f3fe608060405234801561001057600080fd5b50600436106100415760003560e01c806355509386146100465780637d611a261461005b5780639fdc0ea614610085575b600080fd5b610059610054366004610205565b610096565b005b61006e610069366004610285565b610134565b60405161007c92919061029e565b60405180910390f35b60005460405190815260200161007c565b6040805160808101825280820186815260608201869052815281516020601f85018190048102820181019093528381526000928083019190869086908190840183828082843760009201829052509390945250508354600181810186559482526020918290208451805160039093029091019182558201519481019490945582015191929160028301915061012b908261039d565b50505050505050565b6000818154811061014457600080fd5b600091825260209182902060408051808201909152600390920201805482526001810154928201929092526002820180549193509061018290610314565b80601f01602080910402602001604051908101604052809291908181526020018280546101ae90610314565b80156101fb5780601f106101d0576101008083540402835291602001916101fb565b820191906000526020600020905b8154815290600101906020018083116101de57829003601f168201915b5050505050905082565b6000806000806060858703121561021b57600080fd5b8435935060208501359250604085013567ffffffffffffffff8082111561024157600080fd5b818701915087601f83011261025557600080fd5b81358181111561026457600080fd5b88602082850101111561027657600080fd5b95989497505060200194505050565b60006020828403121561029757600080fd5b5035919050565b8251815260006020808501518184015260606040840152835180606085015260005b818110156102dc578581018301518582016080015282016102c0565b506000608082860101526080601f19601f830116850101925050509392505050565b634e487b7160e01b600052604160045260246000fd5b600181811c9082168061032857607f821691505b60208210810361034857634e487b7160e01b600052602260045260246000fd5b50919050565b601f82111561039857600081815260208120601f850160051c810160208610156103755750805b601f850160051c820191505b8181101561039457828155600101610381565b5050505b505050565b815167ffffffffffffffff8111156103b7576103b76102fe565b6103cb816103c58454610314565b8461034e565b602080601f83116001811461040057600084156103e85750858301515b600019600386901b1c1916600185901b178555610394565b600085815260208120601f198616915b8281101561042f57888601518255948401946001909101908401610410565b508582101561044d5787850151600019600388901b60f8161c191681555b5050505050600190811b0190555056fea26469706673582212205aa1f480dce586ed7d05382b472143659b3fbc78f3b34e9b974c8f6a86066d7764736f6c63430008100033",
    "linkReferences": {}
  },
  "methodIdentifiers": {
    "create(bytes32,bytes32,string)": "55509386",
    "directory(uint256)": "7d611a26",
    "getDirectoryLength()": "9fdc0ea6"
  },
  "id": 7
}