{
  "abi": [
    {
      "anonymous": false,
      "inputs": [
        {
          "components": [
            {
              "components": [
                {
                  "internalType": "bytes32",
                  "name": "x",
                  "type": "bytes32"
                },
                {
                  "internalType": "bytes32",
                  "name": "y",
                  "type": "bytes32"
                }
              ],
              "internalType": "struct PrivateTreasury.Point",
              "name": "P",
              "type": "tuple"
            },
            {
              "components": [
                {
                  "internalType": "bytes32",
                  "name": "x",
                  "type": "bytes32"
                },
                {
                  "internalType": "bytes32",
                  "name": "y",
                  "type": "bytes32"
                }
              ],
              "internalType": "struct PrivateTreasury.Point",
              "name": "Q",
              "type": "tuple"
            },
            {
              "internalType": "uint256",
              "name": "v",
              "type": "uint256"
            },
            {
              "internalType": "bool",
              "name": "spent",
              "type": "bool"
            }
          ],
          "indexed": false,
          "internalType": "struct PrivateTreasury.Leaf",
          "name": "lf",
          "type": "tuple"
        }
      ],
      "name": "NewLeaf",
      "type": "event"
    },
    {
      "inputs": [],
      "name": "POSEIDON_T3_ADDR",
      "outputs": [
        {
          "internalType": "address",
          "name": "",
          "type": "address"
        }
      ],
      "stateMutability": "view",
      "type": "function"
    },
    {
      "inputs": [],
      "name": "POSEIDON_T6_ADDR",
      "outputs": [
        {
          "internalType": "address",
          "name": "",
          "type": "address"
        }
      ],
      "stateMutability": "view",
      "type": "function"
    },
    {
      "inputs": [],
      "name": "VERIFIER_ADDR",
      "outputs": [
        {
          "internalType": "address",
          "name": "",
          "type": "address"
        }
      ],
      "stateMutability": "view",
      "type": "function"
    },
    {
      "inputs": [
        {
          "components": [
            {
              "components": [
                {
                  "internalType": "bytes32",
                  "name": "x",
                  "type": "bytes32"
                },
                {
                  "internalType": "bytes32",
                  "name": "y",
                  "type": "bytes32"
                }
              ],
              "internalType": "struct PrivateTreasury.Point",
              "name": "P",
              "type": "tuple"
            },
            {
              "components": [
                {
                  "internalType": "bytes32",
                  "name": "x",
                  "type": "bytes32"
                },
                {
                  "internalType": "bytes32",
                  "name": "y",
                  "type": "bytes32"
                }
              ],
              "internalType": "struct PrivateTreasury.Point",
              "name": "Q",
              "type": "tuple"
            },
            {
              "internalType": "uint256",
              "name": "v",
              "type": "uint256"
            },
            {
              "internalType": "bool",
              "name": "spent",
              "type": "bool"
            }
          ],
          "internalType": "struct PrivateTreasury.Leaf",
          "name": "lf",
          "type": "tuple"
        }
      ],
      "name": "_hashLeaf",
      "outputs": [
        {
          "internalType": "uint256",
          "name": "",
          "type": "uint256"
        }
      ],
      "stateMutability": "view",
      "type": "function"
    },
    {
      "inputs": [
        {
          "internalType": "uint256",
          "name": "l",
          "type": "uint256"
        },
        {
          "internalType": "uint256",
          "name": "r",
          "type": "uint256"
        }
      ],
      "name": "_hashLeftRight",
      "outputs": [
        {
          "internalType": "uint256",
          "name": "",
          "type": "uint256"
        }
      ],
      "stateMutability": "view",
      "type": "function"
    },
    {
      "inputs": [
        {
          "components": [
            {
              "internalType": "bytes32",
              "name": "x",
              "type": "bytes32"
            },
            {
              "internalType": "bytes32",
              "name": "y",
              "type": "bytes32"
            }
          ],
          "internalType": "struct PrivateTreasury.Point",
          "name": "pk",
          "type": "tuple"
        },
        {
          "internalType": "string",
          "name": "label",
          "type": "string"
        }
      ],
      "name": "create",
      "outputs": [],
      "stateMutability": "nonpayable",
      "type": "function"
    },
    {
      "inputs": [
        {
          "components": [
            {
              "internalType": "bytes32",
              "name": "x",
              "type": "bytes32"
            },
            {
              "internalType": "bytes32",
              "name": "y",
              "type": "bytes32"
            }
          ],
          "internalType": "struct PrivateTreasury.Point",
          "name": "P",
          "type": "tuple"
        },
        {
          "components": [
            {
              "internalType": "bytes32",
              "name": "x",
              "type": "bytes32"
            },
            {
              "internalType": "bytes32",
              "name": "y",
              "type": "bytes32"
            }
          ],
          "internalType": "struct PrivateTreasury.Point",
          "name": "Q",
          "type": "tuple"
        }
      ],
      "name": "deposit",
      "outputs": [],
      "stateMutability": "payable",
      "type": "function"
    },
    {
      "inputs": [
        {
          "internalType": "uint256",
          "name": "",
          "type": "uint256"
        }
      ],
      "name": "deposits",
      "outputs": [
        {
          "components": [
            {
              "internalType": "bytes32",
              "name": "x",
              "type": "bytes32"
            },
            {
              "internalType": "bytes32",
              "name": "y",
              "type": "bytes32"
            }
          ],
          "internalType": "struct PrivateTreasury.Point",
          "name": "P",
          "type": "tuple"
        },
        {
          "components": [
            {
              "internalType": "bytes32",
              "name": "x",
              "type": "bytes32"
            },
            {
              "internalType": "bytes32",
              "name": "y",
              "type": "bytes32"
            }
          ],
          "internalType": "struct PrivateTreasury.Point",
          "name": "Q",
          "type": "tuple"
        },
        {
          "internalType": "uint256",
          "name": "v",
          "type": "uint256"
        },
        {
          "internalType": "bool",
          "name": "spent",
          "type": "bool"
        }
      ],
      "stateMutability": "view",
      "type": "function"
    },
    {
      "inputs": [
        {
          "internalType": "uint256",
          "name": "",
          "type": "uint256"
        }
      ],
      "name": "directory",
      "outputs": [
        {
          "components": [
            {
              "internalType": "bytes32",
              "name": "x",
              "type": "bytes32"
            },
            {
              "internalType": "bytes32",
              "name": "y",
              "type": "bytes32"
            }
          ],
          "internalType": "struct PrivateTreasury.Point",
          "name": "pk",
          "type": "tuple"
        },
        {
          "internalType": "string",
          "name": "label",
          "type": "string"
        }
      ],
      "stateMutability": "view",
      "type": "function"
    },
    {
      "inputs": [],
      "name": "getDirectoryLength",
      "outputs": [
        {
          "internalType": "uint256",
          "name": "",
          "type": "uint256"
        }
      ],
      "stateMutability": "view",
      "type": "function"
    },
    {
      "inputs": [],
      "name": "getNumDeposits",
      "outputs": [
        {
          "internalType": "uint256",
          "name": "",
          "type": "uint256"
        }
      ],
      "stateMutability": "view",
      "type": "function"
    },
    {
      "inputs": [
        {
          "internalType": "uint256",
          "name": "leafIdx",
          "type": "uint256"
        },
        {
          "internalType": "uint256[2]",
          "name": "a",
          "type": "uint256[2]"
        },
        {
          "internalType": "uint256[2][2]",
          "name": "b",
          "type": "uint256[2][2]"
        },
        {
          "internalType": "uint256[2]",
          "name": "c",
          "type": "uint256[2]"
        },
        {
          "internalType": "uint256[4]",
          "name": "publicSignals",
          "type": "uint256[4]"
        }
      ],
      "name": "withdraw",
      "outputs": [],
      "stateMutability": "payable",
      "type": "function"
    }
  ],
  "bytecode": {
    "object": "0x6080604052600080546001600160a01b0319908116735fbdb2315678afecb367f032d93f642f64180aa31790915560018054821673bcf26943c0197d2ee0e5d05c716be60cc2761508179055600280549091167359f2f1fcfe2474fd5f0b9ba1e73ca90b143eb8d017905534801561007657600080fd5b506110f5806100866000396000f3fe6080604052600436106100a75760003560e01c8063a64863a211610064578063a64863a214610197578063b02c43d0146101bf578063ca3e9ecf14610218578063d37ad4be1461022b578063ec74f59014610240578063f163536b1461026057600080fd5b806310bfb87a146100ac57806326d619a2146100c15780633728abae146100f45780637bb885be146101145780637d611a26146101545780639fdc0ea614610182575b600080fd5b6100bf6100ba366004610ad4565b610288565b005b3480156100cd57600080fd5b506100e16100dc366004610bbc565b6104f2565b6040519081526020015b60405180910390f35b34801561010057600080fd5b506100e161010f366004610bd4565b61059c565b34801561012057600080fd5b5061013c735fbdb2315678afecb367f032d93f642f64180aa381565b6040516001600160a01b0390911681526020016100eb565b34801561016057600080fd5b5061017461016f366004610bf6565b610626565b6040516100eb929190610c0f565b34801561018e57600080fd5b506003546100e1565b3480156101a357600080fd5b5061013c73bcf26943c0197d2ee0e5d05c716be60cc276150881565b3480156101cb57600080fd5b506101df6101da366004610bf6565b6106f7565b604080518551815260209586015186820152845191810191909152939092015160608401526080830152151560a082015260c0016100eb565b6100bf610226366004610c81565b610761565b34801561023757600080fd5b506004546100e1565b34801561024c57600080fd5b506100bf61025b366004610cb6565b61097e565b34801561026c57600080fd5b5061013c7359f2f1fcfe2474fd5f0b9ba1e73ca90b143eb8d081565b600054604051635fe8c13b60e01b81526001600160a01b0390911690635fe8c13b906102be908790879087908790600401610d63565b602060405180830381865afa1580156102db573d6000803e3d6000fd5b505050506040513d601f19601f820116820180604052508101906102ff9190610de7565b6103505760405162461bcd60e51b815260206004820152601860248201527f496e76616c6964207769746864726177616c2070726f6f66000000000000000060448201526064015b60405180910390fd5b60045485106103a15760405162461bcd60e51b815260206004820152601f60248201527f496e76616c696420726571756573746564206465706f73697420696e646578006044820152606401610347565b6000600486815481106103b6576103b6610e09565b60009182526020909120600690910201600581015490915060ff16156104165760405162461bcd60e51b815260206004820152601560248201527411195c1bdcda5d08185b1c9958591e481cdc195b9d605a1b6044820152606401610347565b80548251146104375760405162461bcd60e51b815260040161034790610e1f565b600181015460208301511461045e5760405162461bcd60e51b815260040161034790610e1f565b60028101546040830151146104855760405162461bcd60e51b815260040161034790610e7c565b60038101546060830151146104ac5760405162461bcd60e51b815260040161034790610e7c565b6004810154604051339180156108fc02916000818181858888f193505050501580156104dc573d6000803e3d6000fd5b50600501805460ff191660011790555050505050565b6002546040805160a0810182528335815260208085013590820152838201358183015260608085013590820152608080850135908201529051630926f44b60e31b81526000926001600160a01b031691634937a258916105559190600401610ed9565b602060405180830381865afa158015610572573d6000803e3d6000fd5b505050506040513d601f19601f820116820180604052508101906105969190610f0a565b92915050565b6001546040805180820182528481526020810184905290516314d2f97b60e11b81526000926001600160a01b0316916329a5f2f6916105de9190600401610f23565b602060405180830381865afa1580156105fb573d6000803e3d6000fd5b505050506040513d601f19601f8201168201806040525081019061061f9190610f0a565b9392505050565b6003818154811061063657600080fd5b600091825260209182902060408051808201909152600390920201805482526001810154928201929092526002820180549193509061067490610f31565b80601f01602080910402602001604051908101604052809291908181526020018280546106a090610f31565b80156106ed5780601f106106c2576101008083540402835291602001916106ed565b820191906000526020600020905b8154815290600101906020018083116106d057829003601f168201915b5050505050905082565b6004818154811061070757600080fd5b60009182526020918290206040805180820182526006909302909101805483526001810154838501528151808301909252600281015482526003810154938201939093526004830154600590930154919350919060ff1684565b600034116107bc5760405162461bcd60e51b815260206004820152602260248201527f4465706f73697465642065746865722076616c7565206d757374206265203e20604482015261181760f11b6064820152608401610347565b60006040518060800160405280848036038101906107da9190610f65565b81526020016107ee36859003850185610f65565b81523460208083019190915260006040928301819052600480546001810182559152835180517f8a35acfbc15ff81a39ae7d344fd709f28e8600b4aa8c65c6b64bfe7fe36bd19b600690930292830181905590830180517f8a35acfbc15ff81a39ae7d344fd709f28e8600b4aa8c65c6b64bfe7fe36bd19c840155858401805180517f8a35acfbc15ff81a39ae7d344fd709f28e8600b4aa8c65c6b64bfe7fe36bd19d8601558501517f8a35acfbc15ff81a39ae7d344fd709f28e8600b4aa8c65c6b64bfe7fe36bd19e85015586860180517f8a35acfbc15ff81a39ae7d344fd709f28e8600b4aa8c65c6b64bfe7fe36bd19f860155606080890180517f8a35acfbc15ff81a39ae7d344fd709f28e8600b4aa8c65c6b64bfe7fe36bd1a0909701805460ff1916971515979097179096558751948552925184870152905180518488015290940151908201529151608083015251151560a082015290519192507f137ef2dd26724feaf5f7fbb4dac309c055df5c2bbdb3c05a9972afd23d3fd79e919081900360c00190a1505050565b600360405180604001604052808580360381019061099c9190610f65565b815260200184848080601f016020809104026020016040519081016040528093929190818152602001838380828437600092018290525093909452505083546001818101865594825260209182902084518051600390930290910191825582015194810194909455820151919291600283019150610a1a9082610fff565b505050505050565b634e487b7160e01b600052604160045260246000fd5b6040805190810167ffffffffffffffff81118282101715610a5b57610a5b610a22565b60405290565b6040516080810167ffffffffffffffff81118282101715610a5b57610a5b610a22565b600082601f830112610a9557600080fd5b610a9d610a38565b806040840185811115610aaf57600080fd5b845b81811015610ac9578035845260209384019301610ab1565b509095945050505050565b60008060008060006101a0808789031215610aee57600080fd5b863595506020610b0089828a01610a84565b955088607f890112610b1157600080fd5b610b19610a38565b8060e08a018b811115610b2b57600080fd5b60608b015b81811015610b5057610b428d82610a84565b845292840192604001610b30565b50819750610b5e8c82610a84565b96505050508861013f890112610b7357600080fd5b610b7b610a61565b91880191808a841115610b8d57600080fd5b6101208a015b84811015610baa5780358352918301918301610b93565b50809450505050509295509295909350565b600060c08284031215610bce57600080fd5b50919050565b60008060408385031215610be757600080fd5b50508035926020909101359150565b600060208284031215610c0857600080fd5b5035919050565b8251815260208084015190820152606060408201526000825180606084015260005b81811015610c4e5760208186018101516080868401015201610c31565b506000608082850101526080601f19601f8301168401019150509392505050565b600060408284031215610bce57600080fd5b60008060808385031215610c9457600080fd5b610c9e8484610c6f565b9150610cad8460408501610c6f565b90509250929050565b600080600060608486031215610ccb57600080fd5b610cd58585610c6f565b9250604084013567ffffffffffffffff80821115610cf257600080fd5b818601915086601f830112610d0657600080fd5b813581811115610d1557600080fd5b876020828501011115610d2757600080fd5b6020830194508093505050509250925092565b8060005b6002811015610d5d578151845260209384019390910190600101610d3e565b50505050565b6101808101610d728287610d3a565b60408083018660005b6002811015610da257610d8f838351610d3a565b9183019160209190910190600101610d7b565b50505050610db360c0830185610d3a565b61010082018360005b6004811015610ddb578151835260209283019290910190600101610dbc565b50505095945050505050565b600060208284031215610df957600080fd5b8151801515811461061f57600080fd5b634e487b7160e01b600052603260045260246000fd5b6020808252603d908201527f5075626c6963207369676e616c7320666f722070726f6f6620646f6e2774206d60408201527f61746368205020666f722074686520746172676574206465706f736974000000606082015260800190565b6020808252603d908201527f5075626c6963207369676e616c7320666f722070726f6f6620646f6e2774206d60408201527f61746368205120666f722074686520746172676574206465706f736974000000606082015260800190565b60a08101818360005b6005811015610f01578151835260209283019290910190600101610ee2565b50505092915050565b600060208284031215610f1c57600080fd5b5051919050565b604081016105968284610d3a565b600181811c90821680610f4557607f821691505b602082108103610bce57634e487b7160e01b600052602260045260246000fd5b600060408284031215610f7757600080fd5b6040516040810181811067ffffffffffffffff82111715610f9a57610f9a610a22565b604052823581526020928301359281019290925250919050565b601f821115610ffa57600081815260208120601f850160051c81016020861015610fdb5750805b601f850160051c820191505b81811015610a1a57828155600101610fe7565b505050565b815167ffffffffffffffff81111561101957611019610a22565b61102d816110278454610f31565b84610fb4565b602080601f831160018114611062576000841561104a5750858301515b600019600386901b1c1916600185901b178555610a1a565b600085815260208120601f198616915b8281101561109157888601518255948401946001909101908401611072565b50858210156110af5787850151600019600388901b60f8161c191681555b5050505050600190811b0190555056fea264697066735822122058af3352b538610a1485185ce543f62e2bce7c50e7927c114fe0d2b70463810464736f6c63430008110033",
    "linkReferences": {}
  },
  "methodIdentifiers": {
    "POSEIDON_T3_ADDR()": "a64863a2",
    "POSEIDON_T6_ADDR()": "f163536b",
    "VERIFIER_ADDR()": "7bb885be",
    "_hashLeaf(((bytes32,bytes32),(bytes32,bytes32),uint256,bool))": "26d619a2",
    "_hashLeftRight(uint256,uint256)": "3728abae",
    "create((bytes32,bytes32),string)": "ec74f590",
    "deposit((bytes32,bytes32),(bytes32,bytes32))": "ca3e9ecf",
    "deposits(uint256)": "b02c43d0",
    "directory(uint256)": "7d611a26",
    "getDirectoryLength()": "9fdc0ea6",
    "getNumDeposits()": "d37ad4be",
    "withdraw(uint256,uint256[2],uint256[2][2],uint256[2],uint256[4])": "10bfb87a"
  },
  "id": 7
}