{
  "abi": [
    {
      "anonymous": false,
      "inputs": [
        {
          "components": [
            {
              "components": [
                {
                  "internalType": "bytes32",
                  "name": "x",
                  "type": "bytes32"
                },
                {
                  "internalType": "bytes32",
                  "name": "y",
                  "type": "bytes32"
                }
              ],
              "internalType": "struct PrivateTreasury.Point",
              "name": "P",
              "type": "tuple"
            },
            {
              "components": [
                {
                  "internalType": "bytes32",
                  "name": "x",
                  "type": "bytes32"
                },
                {
                  "internalType": "bytes32",
                  "name": "y",
                  "type": "bytes32"
                }
              ],
              "internalType": "struct PrivateTreasury.Point",
              "name": "Q",
              "type": "tuple"
            },
            {
              "internalType": "uint256",
              "name": "v",
              "type": "uint256"
            },
            {
              "internalType": "bool",
              "name": "spent",
              "type": "bool"
            }
          ],
          "indexed": false,
          "internalType": "struct PrivateTreasury.Deposit",
          "name": "dep",
          "type": "tuple"
        }
      ],
      "name": "NewDeposit",
      "type": "event"
    },
    {
      "inputs": [],
      "name": "VERIFIER_ADDR",
      "outputs": [
        {
          "internalType": "address",
          "name": "",
          "type": "address"
        }
      ],
      "stateMutability": "view",
      "type": "function"
    },
    {
      "inputs": [
        {
          "components": [
            {
              "internalType": "bytes32",
              "name": "x",
              "type": "bytes32"
            },
            {
              "internalType": "bytes32",
              "name": "y",
              "type": "bytes32"
            }
          ],
          "internalType": "struct PrivateTreasury.Point",
          "name": "pk",
          "type": "tuple"
        },
        {
          "internalType": "string",
          "name": "label",
          "type": "string"
        }
      ],
      "name": "create",
      "outputs": [],
      "stateMutability": "nonpayable",
      "type": "function"
    },
    {
      "inputs": [
        {
          "components": [
            {
              "internalType": "bytes32",
              "name": "x",
              "type": "bytes32"
            },
            {
              "internalType": "bytes32",
              "name": "y",
              "type": "bytes32"
            }
          ],
          "internalType": "struct PrivateTreasury.Point",
          "name": "P",
          "type": "tuple"
        },
        {
          "components": [
            {
              "internalType": "bytes32",
              "name": "x",
              "type": "bytes32"
            },
            {
              "internalType": "bytes32",
              "name": "y",
              "type": "bytes32"
            }
          ],
          "internalType": "struct PrivateTreasury.Point",
          "name": "Q",
          "type": "tuple"
        }
      ],
      "name": "deposit",
      "outputs": [],
      "stateMutability": "payable",
      "type": "function"
    },
    {
      "inputs": [
        {
          "internalType": "uint256",
          "name": "",
          "type": "uint256"
        }
      ],
      "name": "deposits",
      "outputs": [
        {
          "components": [
            {
              "internalType": "bytes32",
              "name": "x",
              "type": "bytes32"
            },
            {
              "internalType": "bytes32",
              "name": "y",
              "type": "bytes32"
            }
          ],
          "internalType": "struct PrivateTreasury.Point",
          "name": "P",
          "type": "tuple"
        },
        {
          "components": [
            {
              "internalType": "bytes32",
              "name": "x",
              "type": "bytes32"
            },
            {
              "internalType": "bytes32",
              "name": "y",
              "type": "bytes32"
            }
          ],
          "internalType": "struct PrivateTreasury.Point",
          "name": "Q",
          "type": "tuple"
        },
        {
          "internalType": "uint256",
          "name": "v",
          "type": "uint256"
        },
        {
          "internalType": "bool",
          "name": "spent",
          "type": "bool"
        }
      ],
      "stateMutability": "view",
      "type": "function"
    },
    {
      "inputs": [
        {
          "internalType": "uint256",
          "name": "",
          "type": "uint256"
        }
      ],
      "name": "directory",
      "outputs": [
        {
          "components": [
            {
              "internalType": "bytes32",
              "name": "x",
              "type": "bytes32"
            },
            {
              "internalType": "bytes32",
              "name": "y",
              "type": "bytes32"
            }
          ],
          "internalType": "struct PrivateTreasury.Point",
          "name": "pk",
          "type": "tuple"
        },
        {
          "internalType": "string",
          "name": "label",
          "type": "string"
        }
      ],
      "stateMutability": "view",
      "type": "function"
    },
    {
      "inputs": [],
      "name": "getDirectoryLength",
      "outputs": [
        {
          "internalType": "uint256",
          "name": "",
          "type": "uint256"
        }
      ],
      "stateMutability": "view",
      "type": "function"
    },
    {
      "inputs": [],
      "name": "getNumDeposits",
      "outputs": [
        {
          "internalType": "uint256",
          "name": "",
          "type": "uint256"
        }
      ],
      "stateMutability": "view",
      "type": "function"
    },
    {
      "inputs": [
        {
          "internalType": "uint256",
          "name": "depIdx",
          "type": "uint256"
        },
        {
          "internalType": "uint256[2]",
          "name": "a",
          "type": "uint256[2]"
        },
        {
          "internalType": "uint256[2][2]",
          "name": "b",
          "type": "uint256[2][2]"
        },
        {
          "internalType": "uint256[2]",
          "name": "c",
          "type": "uint256[2]"
        },
        {
          "internalType": "uint256[4]",
          "name": "publicSignals",
          "type": "uint256[4]"
        }
      ],
      "name": "withdraw",
      "outputs": [],
      "stateMutability": "payable",
      "type": "function"
    }
  ],
  "bytecode": {
    "object": "0x6080604052600080546001600160a01b031916735fbdb2315678afecb367f032d93f642f64180aa317905534801561003657600080fd5b50610e7c806100466000396000f3fe60806040526004361061007b5760003560e01c8063b02c43d01161004e578063b02c43d014610127578063ca3e9ecf14610180578063d37ad4be14610193578063ec74f590146101a857600080fd5b806310bfb87a146100805780637bb885be146100955780637d611a26146100da5780639fdc0ea614610108575b600080fd5b61009361008e3660046108e0565b6101c8565b005b3480156100a157600080fd5b506100bd735fbdb2315678afecb367f032d93f642f64180aa381565b6040516001600160a01b0390911681526020015b60405180910390f35b3480156100e657600080fd5b506100fa6100f53660046109c8565b610432565b6040516100d19291906109e1565b34801561011457600080fd5b506001545b6040519081526020016100d1565b34801561013357600080fd5b506101476101423660046109c8565b610503565b604080518551815260209586015186820152845191810191909152939092015160608401526080830152151560a082015260c0016100d1565b61009361018e366004610a59565b61056d565b34801561019f57600080fd5b50600254610119565b3480156101b457600080fd5b506100936101c3366004610a8e565b61078a565b600054604051635fe8c13b60e01b81526001600160a01b0390911690635fe8c13b906101fe908790879087908790600401610b3b565b602060405180830381865afa15801561021b573d6000803e3d6000fd5b505050506040513d601f19601f8201168201806040525081019061023f9190610bbf565b6102905760405162461bcd60e51b815260206004820152601860248201527f496e76616c6964207769746864726177616c2070726f6f66000000000000000060448201526064015b60405180910390fd5b60025485106102e15760405162461bcd60e51b815260206004820152601f60248201527f496e76616c696420726571756573746564206465706f73697420696e646578006044820152606401610287565b6000600286815481106102f6576102f6610be8565b60009182526020909120600690910201600581015490915060ff16156103565760405162461bcd60e51b815260206004820152601560248201527411195c1bdcda5d08185b1c9958591e481cdc195b9d605a1b6044820152606401610287565b80548251146103775760405162461bcd60e51b815260040161028790610bfe565b600181015460208301511461039e5760405162461bcd60e51b815260040161028790610bfe565b60028101546040830151146103c55760405162461bcd60e51b815260040161028790610c5b565b60038101546060830151146103ec5760405162461bcd60e51b815260040161028790610c5b565b6004810154604051339180156108fc02916000818181858888f1935050505015801561041c573d6000803e3d6000fd5b50600501805460ff191660011790555050505050565b6001818154811061044257600080fd5b600091825260209182902060408051808201909152600390920201805482526001810154928201929092526002820180549193509061048090610cb8565b80601f01602080910402602001604051908101604052809291908181526020018280546104ac90610cb8565b80156104f95780601f106104ce576101008083540402835291602001916104f9565b820191906000526020600020905b8154815290600101906020018083116104dc57829003601f168201915b5050505050905082565b6002818154811061051357600080fd5b60009182526020918290206040805180820182526006909302909101805483526001810154838501528151808301909252600281015482526003810154938201939093526004830154600590930154919350919060ff1684565b600034116105c85760405162461bcd60e51b815260206004820152602260248201527f4465706f73697465642065746865722076616c7565206d757374206265203e20604482015261181760f11b6064820152608401610287565b60006040518060800160405280848036038101906105e69190610cec565b81526020016105fa36859003850185610cec565b81523460208083019190915260006040928301819052600280546001810182559152835180517f405787fa12a823e0f2b7631cc41b3ba8828b3321ca811111fa75cd3aa3bb5ace600690930292830181905590830180517f405787fa12a823e0f2b7631cc41b3ba8828b3321ca811111fa75cd3aa3bb5acf840155858401805180517f405787fa12a823e0f2b7631cc41b3ba8828b3321ca811111fa75cd3aa3bb5ad08601558501517f405787fa12a823e0f2b7631cc41b3ba8828b3321ca811111fa75cd3aa3bb5ad185015586860180517f405787fa12a823e0f2b7631cc41b3ba8828b3321ca811111fa75cd3aa3bb5ad2860155606080890180517f405787fa12a823e0f2b7631cc41b3ba8828b3321ca811111fa75cd3aa3bb5ad3909701805460ff1916971515979097179096558751948552925184870152905180518488015290940151908201529151608083015251151560a082015290519192507ff9d149d4ed7c888bdcd97349d3e991aba91a83c8feb2f67bab67b00fdd8818b0919081900360c00190a1505050565b60016040518060400160405280858036038101906107a89190610cec565b815260200184848080601f0160208091040260200160405190810160405280939291908181526020018383808284376000920182905250939094525050835460018181018655948252602091829020845180516003909302909101918255820151948101949094558201519192916002830191506108269082610d86565b505050505050565b634e487b7160e01b600052604160045260246000fd5b6040805190810167ffffffffffffffff811182821017156108675761086761082e565b60405290565b6040516080810167ffffffffffffffff811182821017156108675761086761082e565b600082601f8301126108a157600080fd5b6108a9610844565b8060408401858111156108bb57600080fd5b845b818110156108d55780358452602093840193016108bd565b509095945050505050565b60008060008060006101a08087890312156108fa57600080fd5b86359550602061090c89828a01610890565b955088607f89011261091d57600080fd5b610925610844565b8060e08a018b81111561093757600080fd5b60608b015b8181101561095c5761094e8d82610890565b84529284019260400161093c565b5081975061096a8c82610890565b96505050508861013f89011261097f57600080fd5b61098761086d565b91880191808a84111561099957600080fd5b6101208a015b848110156109b6578035835291830191830161099f565b50809450505050509295509295909350565b6000602082840312156109da57600080fd5b5035919050565b8251815260208084015190820152606060408201526000825180606084015260005b81811015610a205760208186018101516080868401015201610a03565b506000608082850101526080601f19601f8301168401019150509392505050565b600060408284031215610a5357600080fd5b50919050565b60008060808385031215610a6c57600080fd5b610a768484610a41565b9150610a858460408501610a41565b90509250929050565b600080600060608486031215610aa357600080fd5b610aad8585610a41565b9250604084013567ffffffffffffffff80821115610aca57600080fd5b818601915086601f830112610ade57600080fd5b813581811115610aed57600080fd5b876020828501011115610aff57600080fd5b6020830194508093505050509250925092565b8060005b6002811015610b35578151845260209384019390910190600101610b16565b50505050565b6101808101610b4a8287610b12565b60408083018660005b6002811015610b7a57610b67838351610b12565b9183019160209190910190600101610b53565b50505050610b8b60c0830185610b12565b61010082018360005b6004811015610bb3578151835260209283019290910190600101610b94565b50505095945050505050565b600060208284031215610bd157600080fd5b81518015158114610be157600080fd5b9392505050565b634e487b7160e01b600052603260045260246000fd5b6020808252603d908201527f5075626c6963207369676e616c7320666f722070726f6f6620646f6e2774206d60408201527f61746368205020666f722074686520746172676574206465706f736974000000606082015260800190565b6020808252603d908201527f5075626c6963207369676e616c7320666f722070726f6f6620646f6e2774206d60408201527f61746368205120666f722074686520746172676574206465706f736974000000606082015260800190565b600181811c90821680610ccc57607f821691505b602082108103610a5357634e487b7160e01b600052602260045260246000fd5b600060408284031215610cfe57600080fd5b6040516040810181811067ffffffffffffffff82111715610d2157610d2161082e565b604052823581526020928301359281019290925250919050565b601f821115610d8157600081815260208120601f850160051c81016020861015610d625750805b601f850160051c820191505b8181101561082657828155600101610d6e565b505050565b815167ffffffffffffffff811115610da057610da061082e565b610db481610dae8454610cb8565b84610d3b565b602080601f831160018114610de95760008415610dd15750858301515b600019600386901b1c1916600185901b178555610826565b600085815260208120601f198616915b82811015610e1857888601518255948401946001909101908401610df9565b5085821015610e365787850151600019600388901b60f8161c191681555b5050505050600190811b0190555056fea264697066735822122011db1720536acb496b07c7e5478f087532e7e751723be172ac5dc36d2a195bf764736f6c63430008110033",
    "linkReferences": {}
  },
  "methodIdentifiers": {
    "VERIFIER_ADDR()": "7bb885be",
    "create((bytes32,bytes32),string)": "ec74f590",
    "deposit((bytes32,bytes32),(bytes32,bytes32))": "ca3e9ecf",
    "deposits(uint256)": "b02c43d0",
    "directory(uint256)": "7d611a26",
    "getDirectoryLength()": "9fdc0ea6",
    "getNumDeposits()": "d37ad4be",
    "withdraw(uint256,uint256[2],uint256[2][2],uint256[2],uint256[4])": "10bfb87a"
  },
  "id": 7
}