{
  "abi": [
    {
      "inputs": [],
      "name": "VERIFIER_ADDR",
      "outputs": [
        {
          "internalType": "address",
          "name": "",
          "type": "address"
        }
      ],
      "stateMutability": "view",
      "type": "function"
    },
    {
      "inputs": [
        {
          "components": [
            {
              "internalType": "bytes32",
              "name": "x",
              "type": "bytes32"
            },
            {
              "internalType": "bytes32",
              "name": "y",
              "type": "bytes32"
            }
          ],
          "internalType": "struct PrivateTreasury.Point",
          "name": "pk",
          "type": "tuple"
        },
        {
          "internalType": "string",
          "name": "label",
          "type": "string"
        }
      ],
      "name": "create",
      "outputs": [],
      "stateMutability": "nonpayable",
      "type": "function"
    },
    {
      "inputs": [
        {
          "components": [
            {
              "internalType": "bytes32",
              "name": "x",
              "type": "bytes32"
            },
            {
              "internalType": "bytes32",
              "name": "y",
              "type": "bytes32"
            }
          ],
          "internalType": "struct PrivateTreasury.Point",
          "name": "P",
          "type": "tuple"
        },
        {
          "components": [
            {
              "internalType": "bytes32",
              "name": "x",
              "type": "bytes32"
            },
            {
              "internalType": "bytes32",
              "name": "y",
              "type": "bytes32"
            }
          ],
          "internalType": "struct PrivateTreasury.Point",
          "name": "Q",
          "type": "tuple"
        }
      ],
      "name": "deposit",
      "outputs": [],
      "stateMutability": "payable",
      "type": "function"
    },
    {
      "inputs": [
        {
          "internalType": "uint256",
          "name": "",
          "type": "uint256"
        }
      ],
      "name": "deposits",
      "outputs": [
        {
          "components": [
            {
              "internalType": "bytes32",
              "name": "x",
              "type": "bytes32"
            },
            {
              "internalType": "bytes32",
              "name": "y",
              "type": "bytes32"
            }
          ],
          "internalType": "struct PrivateTreasury.Point",
          "name": "P",
          "type": "tuple"
        },
        {
          "components": [
            {
              "internalType": "bytes32",
              "name": "x",
              "type": "bytes32"
            },
            {
              "internalType": "bytes32",
              "name": "y",
              "type": "bytes32"
            }
          ],
          "internalType": "struct PrivateTreasury.Point",
          "name": "Q",
          "type": "tuple"
        },
        {
          "internalType": "uint256",
          "name": "v",
          "type": "uint256"
        },
        {
          "internalType": "bool",
          "name": "spent",
          "type": "bool"
        }
      ],
      "stateMutability": "view",
      "type": "function"
    },
    {
      "inputs": [
        {
          "internalType": "uint256",
          "name": "",
          "type": "uint256"
        }
      ],
      "name": "directory",
      "outputs": [
        {
          "components": [
            {
              "internalType": "bytes32",
              "name": "x",
              "type": "bytes32"
            },
            {
              "internalType": "bytes32",
              "name": "y",
              "type": "bytes32"
            }
          ],
          "internalType": "struct PrivateTreasury.Point",
          "name": "pk",
          "type": "tuple"
        },
        {
          "internalType": "string",
          "name": "label",
          "type": "string"
        }
      ],
      "stateMutability": "view",
      "type": "function"
    },
    {
      "inputs": [],
      "name": "getDirectoryLength",
      "outputs": [
        {
          "internalType": "uint256",
          "name": "",
          "type": "uint256"
        }
      ],
      "stateMutability": "view",
      "type": "function"
    },
    {
      "inputs": [],
      "name": "getNumDeposits",
      "outputs": [
        {
          "internalType": "uint256",
          "name": "",
          "type": "uint256"
        }
      ],
      "stateMutability": "view",
      "type": "function"
    },
    {
      "inputs": [
        {
          "internalType": "uint256",
          "name": "depIdx",
          "type": "uint256"
        },
        {
          "internalType": "uint256[2]",
          "name": "a",
          "type": "uint256[2]"
        },
        {
          "internalType": "uint256[2][2]",
          "name": "b",
          "type": "uint256[2][2]"
        },
        {
          "internalType": "uint256[2]",
          "name": "c",
          "type": "uint256[2]"
        },
        {
          "internalType": "uint256[4]",
          "name": "publicSignals",
          "type": "uint256[4]"
        }
      ],
      "name": "withdraw",
      "outputs": [],
      "stateMutability": "payable",
      "type": "function"
    }
  ],
  "bytecode": {
    "object": "0x6080604052600080546001600160a01b0319167370f1d626bc30de8379636b3eae8981298796e92817905534801561003657600080fd5b50610d61806100466000396000f3fe60806040526004361061007b5760003560e01c8063b02c43d01161004e578063b02c43d014610127578063ca3e9ecf14610180578063d37ad4be14610193578063ec74f590146101a857600080fd5b806310bfb87a146100805780637bb885be146100955780637d611a26146100da5780639fdc0ea614610108575b600080fd5b61009361008e3660046107c5565b6101c8565b005b3480156100a157600080fd5b506100bd7370f1d626bc30de8379636b3eae8981298796e92881565b6040516001600160a01b0390911681526020015b60405180910390f35b3480156100e657600080fd5b506100fa6100f53660046108ad565b610432565b6040516100d19291906108c6565b34801561011457600080fd5b506001545b6040519081526020016100d1565b34801561013357600080fd5b506101476101423660046108ad565b610503565b604080518551815260209586015186820152845191810191909152939092015160608401526080830152151560a082015260c0016100d1565b61009361018e36600461093e565b61056d565b34801561019f57600080fd5b50600254610119565b3480156101b457600080fd5b506100936101c3366004610973565b61066f565b600054604051635fe8c13b60e01b81526001600160a01b0390911690635fe8c13b906101fe908790879087908790600401610a20565b602060405180830381865afa15801561021b573d6000803e3d6000fd5b505050506040513d601f19601f8201168201806040525081019061023f9190610aa4565b6102905760405162461bcd60e51b815260206004820152601860248201527f496e76616c6964207769746864726177616c2070726f6f66000000000000000060448201526064015b60405180910390fd5b60025485106102e15760405162461bcd60e51b815260206004820152601f60248201527f496e76616c696420726571756573746564206465706f73697420696e646578006044820152606401610287565b6000600286815481106102f6576102f6610acd565b60009182526020909120600690910201600581015490915060ff16156103565760405162461bcd60e51b815260206004820152601560248201527411195c1bdcda5d08185b1c9958591e481cdc195b9d605a1b6044820152606401610287565b80548251146103775760405162461bcd60e51b815260040161028790610ae3565b600181015460208301511461039e5760405162461bcd60e51b815260040161028790610ae3565b60028101546040830151146103c55760405162461bcd60e51b815260040161028790610b40565b60038101546060830151146103ec5760405162461bcd60e51b815260040161028790610b40565b6004810154604051339180156108fc02916000818181858888f1935050505015801561041c573d6000803e3d6000fd5b50600501805460ff191660011790555050505050565b6001818154811061044257600080fd5b600091825260209182902060408051808201909152600390920201805482526001810154928201929092526002820180549193509061048090610b9d565b80601f01602080910402602001604051908101604052809291908181526020018280546104ac90610b9d565b80156104f95780601f106104ce576101008083540402835291602001916104f9565b820191906000526020600020905b8154815290600101906020018083116104dc57829003601f168201915b5050505050905082565b6002818154811061051357600080fd5b60009182526020918290206040805180820182526006909302909101805483526001810154838501528151808301909252600281015482526003810154938201939093526004830154600590930154919350919060ff1684565b600034116105c85760405162461bcd60e51b815260206004820152602260248201527f4465706f73697465642065746865722076616c7565206d757374206265203e20604482015261181760f11b6064820152608401610287565b60026040518060800160405280848036038101906105e69190610bd1565b81526020016105fa36859003850185610bd1565b8152346020808301919091526000604092830181905284546001808201875595825290829020845180516006909302909101918255820151948101949094558281015180516002860155015160038401558101516004830155606001516005909101805460ff19169115159190911790555050565b600160405180604001604052808580360381019061068d9190610bd1565b815260200184848080601f01602080910402602001604051908101604052809392919081815260200183838082843760009201829052509390945250508354600181810186559482526020918290208451805160039093029091019182558201519481019490945582015191929160028301915061070b9082610c6b565b505050505050565b634e487b7160e01b600052604160045260246000fd5b6040805190810167ffffffffffffffff8111828210171561074c5761074c610713565b60405290565b6040516080810167ffffffffffffffff8111828210171561074c5761074c610713565b600082601f83011261078657600080fd5b61078e610729565b8060408401858111156107a057600080fd5b845b818110156107ba5780358452602093840193016107a2565b509095945050505050565b60008060008060006101a08087890312156107df57600080fd5b8635955060206107f189828a01610775565b955088607f89011261080257600080fd5b61080a610729565b8060e08a018b81111561081c57600080fd5b60608b015b81811015610841576108338d82610775565b845292840192604001610821565b5081975061084f8c82610775565b96505050508861013f89011261086457600080fd5b61086c610752565b91880191808a84111561087e57600080fd5b6101208a015b8481101561089b5780358352918301918301610884565b50809450505050509295509295909350565b6000602082840312156108bf57600080fd5b5035919050565b8251815260208084015190820152606060408201526000825180606084015260005b8181101561090557602081860181015160808684010152016108e8565b506000608082850101526080601f19601f8301168401019150509392505050565b60006040828403121561093857600080fd5b50919050565b6000806080838503121561095157600080fd5b61095b8484610926565b915061096a8460408501610926565b90509250929050565b60008060006060848603121561098857600080fd5b6109928585610926565b9250604084013567ffffffffffffffff808211156109af57600080fd5b818601915086601f8301126109c357600080fd5b8135818111156109d257600080fd5b8760208285010111156109e457600080fd5b6020830194508093505050509250925092565b8060005b6002811015610a1a5781518452602093840193909101906001016109fb565b50505050565b6101808101610a2f82876109f7565b60408083018660005b6002811015610a5f57610a4c8383516109f7565b9183019160209190910190600101610a38565b50505050610a7060c08301856109f7565b61010082018360005b6004811015610a98578151835260209283019290910190600101610a79565b50505095945050505050565b600060208284031215610ab657600080fd5b81518015158114610ac657600080fd5b9392505050565b634e487b7160e01b600052603260045260246000fd5b6020808252603d908201527f5075626c6963207369676e616c7320666f722070726f6f6620646f6e2774206d60408201527f61746368205020666f722074686520746172676574206465706f736974000000606082015260800190565b6020808252603d908201527f5075626c6963207369676e616c7320666f722070726f6f6620646f6e2774206d60408201527f61746368205120666f722074686520746172676574206465706f736974000000606082015260800190565b600181811c90821680610bb157607f821691505b60208210810361093857634e487b7160e01b600052602260045260246000fd5b600060408284031215610be357600080fd5b6040516040810181811067ffffffffffffffff82111715610c0657610c06610713565b604052823581526020928301359281019290925250919050565b601f821115610c6657600081815260208120601f850160051c81016020861015610c475750805b601f850160051c820191505b8181101561070b57828155600101610c53565b505050565b815167ffffffffffffffff811115610c8557610c85610713565b610c9981610c938454610b9d565b84610c20565b602080601f831160018114610cce5760008415610cb65750858301515b600019600386901b1c1916600185901b17855561070b565b600085815260208120601f198616915b82811015610cfd57888601518255948401946001909101908401610cde565b5085821015610d1b5787850151600019600388901b60f8161c191681555b5050505050600190811b0190555056fea26469706673582212202c9a7d89614691666a416c48ddc7238f52e67dd052de93a3d796ef2cb9ee5de564736f6c63430008110033",
    "linkReferences": {}
  },
  "methodIdentifiers": {
    "VERIFIER_ADDR()": "7bb885be",
    "create((bytes32,bytes32),string)": "ec74f590",
    "deposit((bytes32,bytes32),(bytes32,bytes32))": "ca3e9ecf",
    "deposits(uint256)": "b02c43d0",
    "directory(uint256)": "7d611a26",
    "getDirectoryLength()": "9fdc0ea6",
    "getNumDeposits()": "d37ad4be",
    "withdraw(uint256,uint256[2],uint256[2][2],uint256[2],uint256[4])": "10bfb87a"
  },
  "id": 7
}