{
  "abi": [
    {
      "inputs": [],
      "stateMutability": "nonpayable",
      "type": "constructor"
    },
    {
      "anonymous": false,
      "inputs": [
        {
          "components": [
            {
              "components": [
                {
                  "internalType": "bytes32",
                  "name": "x",
                  "type": "bytes32"
                },
                {
                  "internalType": "bytes32",
                  "name": "y",
                  "type": "bytes32"
                }
              ],
              "internalType": "struct PrivateTreasury.Point",
              "name": "P",
              "type": "tuple"
            },
            {
              "components": [
                {
                  "internalType": "bytes32",
                  "name": "x",
                  "type": "bytes32"
                },
                {
                  "internalType": "bytes32",
                  "name": "y",
                  "type": "bytes32"
                }
              ],
              "internalType": "struct PrivateTreasury.Point",
              "name": "Q",
              "type": "tuple"
            },
            {
              "internalType": "uint256",
              "name": "v",
              "type": "uint256"
            }
          ],
          "indexed": false,
          "internalType": "struct PrivateTreasury.Leaf",
          "name": "lf",
          "type": "tuple"
        }
      ],
      "name": "NewLeaf",
      "type": "event"
    },
    {
      "inputs": [],
      "name": "POSEIDON_T3_ADDR",
      "outputs": [
        {
          "internalType": "address",
          "name": "",
          "type": "address"
        }
      ],
      "stateMutability": "view",
      "type": "function"
    },
    {
      "inputs": [],
      "name": "POSEIDON_T6_ADDR",
      "outputs": [
        {
          "internalType": "address",
          "name": "",
          "type": "address"
        }
      ],
      "stateMutability": "view",
      "type": "function"
    },
    {
      "inputs": [],
      "name": "VERIFIER_ADDR",
      "outputs": [
        {
          "internalType": "address",
          "name": "",
          "type": "address"
        }
      ],
      "stateMutability": "view",
      "type": "function"
    },
    {
      "inputs": [
        {
          "components": [
            {
              "components": [
                {
                  "internalType": "bytes32",
                  "name": "x",
                  "type": "bytes32"
                },
                {
                  "internalType": "bytes32",
                  "name": "y",
                  "type": "bytes32"
                }
              ],
              "internalType": "struct PrivateTreasury.Point",
              "name": "P",
              "type": "tuple"
            },
            {
              "components": [
                {
                  "internalType": "bytes32",
                  "name": "x",
                  "type": "bytes32"
                },
                {
                  "internalType": "bytes32",
                  "name": "y",
                  "type": "bytes32"
                }
              ],
              "internalType": "struct PrivateTreasury.Point",
              "name": "Q",
              "type": "tuple"
            },
            {
              "internalType": "uint256",
              "name": "v",
              "type": "uint256"
            }
          ],
          "internalType": "struct PrivateTreasury.Leaf",
          "name": "lf",
          "type": "tuple"
        }
      ],
      "name": "_hashLeaf",
      "outputs": [
        {
          "internalType": "uint256",
          "name": "",
          "type": "uint256"
        }
      ],
      "stateMutability": "view",
      "type": "function"
    },
    {
      "inputs": [
        {
          "internalType": "uint256",
          "name": "l",
          "type": "uint256"
        },
        {
          "internalType": "uint256",
          "name": "r",
          "type": "uint256"
        }
      ],
      "name": "_hashLeftRight",
      "outputs": [
        {
          "internalType": "uint256",
          "name": "",
          "type": "uint256"
        }
      ],
      "stateMutability": "view",
      "type": "function"
    },
    {
      "inputs": [
        {
          "components": [
            {
              "internalType": "bytes32",
              "name": "x",
              "type": "bytes32"
            },
            {
              "internalType": "bytes32",
              "name": "y",
              "type": "bytes32"
            }
          ],
          "internalType": "struct PrivateTreasury.Point",
          "name": "pk",
          "type": "tuple"
        },
        {
          "internalType": "string",
          "name": "label",
          "type": "string"
        }
      ],
      "name": "create",
      "outputs": [],
      "stateMutability": "nonpayable",
      "type": "function"
    },
    {
      "inputs": [
        {
          "components": [
            {
              "internalType": "bytes32",
              "name": "x",
              "type": "bytes32"
            },
            {
              "internalType": "bytes32",
              "name": "y",
              "type": "bytes32"
            }
          ],
          "internalType": "struct PrivateTreasury.Point",
          "name": "P",
          "type": "tuple"
        },
        {
          "components": [
            {
              "internalType": "bytes32",
              "name": "x",
              "type": "bytes32"
            },
            {
              "internalType": "bytes32",
              "name": "y",
              "type": "bytes32"
            }
          ],
          "internalType": "struct PrivateTreasury.Point",
          "name": "Q",
          "type": "tuple"
        }
      ],
      "name": "deposit",
      "outputs": [],
      "stateMutability": "payable",
      "type": "function"
    },
    {
      "inputs": [
        {
          "internalType": "uint256",
          "name": "",
          "type": "uint256"
        }
      ],
      "name": "directory",
      "outputs": [
        {
          "components": [
            {
              "internalType": "bytes32",
              "name": "x",
              "type": "bytes32"
            },
            {
              "internalType": "bytes32",
              "name": "y",
              "type": "bytes32"
            }
          ],
          "internalType": "struct PrivateTreasury.Point",
          "name": "pk",
          "type": "tuple"
        },
        {
          "internalType": "string",
          "name": "label",
          "type": "string"
        }
      ],
      "stateMutability": "view",
      "type": "function"
    },
    {
      "inputs": [],
      "name": "getDirectoryLength",
      "outputs": [
        {
          "internalType": "uint256",
          "name": "",
          "type": "uint256"
        }
      ],
      "stateMutability": "view",
      "type": "function"
    },
    {
      "inputs": [],
      "name": "getNumDeposits",
      "outputs": [
        {
          "internalType": "uint256",
          "name": "",
          "type": "uint256"
        }
      ],
      "stateMutability": "view",
      "type": "function"
    },
    {
      "inputs": [],
      "name": "root",
      "outputs": [
        {
          "internalType": "uint256",
          "name": "",
          "type": "uint256"
        }
      ],
      "stateMutability": "view",
      "type": "function"
    },
    {
      "inputs": [
        {
          "internalType": "uint256",
          "name": "amount",
          "type": "uint256"
        },
        {
          "components": [
            {
              "internalType": "bytes32",
              "name": "x",
              "type": "bytes32"
            },
            {
              "internalType": "bytes32",
              "name": "y",
              "type": "bytes32"
            }
          ],
          "internalType": "struct PrivateTreasury.Point",
          "name": "changeP",
          "type": "tuple"
        },
        {
          "components": [
            {
              "internalType": "bytes32",
              "name": "x",
              "type": "bytes32"
            },
            {
              "internalType": "bytes32",
              "name": "y",
              "type": "bytes32"
            }
          ],
          "internalType": "struct PrivateTreasury.Point",
          "name": "changeQ",
          "type": "tuple"
        },
        {
          "internalType": "uint256[2]",
          "name": "a",
          "type": "uint256[2]"
        },
        {
          "internalType": "uint256[2][2]",
          "name": "b",
          "type": "uint256[2][2]"
        },
        {
          "internalType": "uint256[2]",
          "name": "c",
          "type": "uint256[2]"
        },
        {
          "internalType": "uint256[11]",
          "name": "publicSignals",
          "type": "uint256[11]"
        }
      ],
      "name": "withdraw",
      "outputs": [],
      "stateMutability": "payable",
      "type": "function"
    }
  ],
  "bytecode": {
    "object": "0x60806040526000600155604380546001600160a01b0319908116735fbdb2315678afecb367f032d93f642f64180aa317909155604480548216738464135c8f25da09e49bc8782676a84730c318bc179055604580549091167371c95911e9a5d330f4d621842ec243ee1343292e1790553480156200007c57600080fd5b506000805460ff191660209081179091557f12817f4161f2f5ded33f26c55735a77e80e4f8975483c8c2704745128417f71160038190558060015b8360ff168160ff16101562000125576000620000d483806200013f565b90508060038360ff1660208110620000f057620000f0620001ce565b015580602360ff8416602081106200010c576200010c620001ce565b01559150806200011c81620001e4565b915050620000b7565b506200013281806200013f565b600255506200025f915050565b6044546040805180820182528481526020810184905290516314d2f97b60e11b81526000926001600160a01b0316916329a5f2f69162000183919060040162000212565b602060405180830381865afa158015620001a1573d6000803e3d6000fd5b505050506040513d601f19601f82011682018060405250810190620001c7919062000245565b9392505050565b634e487b7160e01b600052603260045260246000fd5b600060ff821660ff81036200020957634e487b7160e01b600052601160045260246000fd5b60010192915050565b60408101818360005b60028110156200023c5781518352602092830192909101906001016200021b565b50505092915050565b6000602082840312156200025857600080fd5b5051919050565b61134e806200026f6000396000f3fe6080604052600436106100a75760003560e01c8063a64863a211610064578063a64863a214610197578063ca3e9ecf146101bf578063d37ad4be146101d2578063ebf0c717146101e7578063ec74f590146101fd578063f163536b1461021d57600080fd5b80632e5ca4d3146100ac5780633728abae146100df5780636502b6cb146100ff5780637bb885be146101145780637d611a26146101545780639fdc0ea614610182575b600080fd5b3480156100b857600080fd5b506100cc6100c7366004610b9b565b610245565b6040519081526020015b60405180910390f35b3480156100eb57600080fd5b506100cc6100fa366004610c03565b6102f1565b61011261010d366004610cfb565b61037b565b005b34801561012057600080fd5b5061013c735fbdb2315678afecb367f032d93f642f64180aa381565b6040516001600160a01b0390911681526020016100d6565b34801561016057600080fd5b5061017461016f366004610dc8565b610698565b6040516100d6929190610de1565b34801561018e57600080fd5b506046546100cc565b3480156101a357600080fd5b5061013c738464135c8f25da09e49bc8782676a84730c318bc81565b6101126101cd366004610e41565b610769565b3480156101de57600080fd5b506001546100cc565b3480156101f357600080fd5b506100cc60025481565b34801561020957600080fd5b50610112610218366004610e76565b6107d3565b34801561022957600080fd5b5061013c7371c95911e9a5d330f4d621842ec243ee1343292e81565b6045546040805160a08101825283515181528351602090810151818301528085018051518385015251015160608201528382015160808201529051630926f44b60e31b81526000926001600160a01b031691634937a258916102aa9190600401610efa565b602060405180830381865afa1580156102c7573d6000803e3d6000fd5b505050506040513d601f19601f820116820180604052508101906102eb9190610f2b565b92915050565b6044546040805180820182528481526020810184905290516314d2f97b60e11b81526000926001600160a01b0316916329a5f2f6916103339190600401610f6d565b602060405180830381865afa158015610350573d6000803e3d6000fd5b505050506040513d601f19601f820116820180604052508101906103749190610f2b565b9392505050565b6002548151146103f85760405162461bcd60e51b815260206004820152603c60248201527f4d65726b6c6520726f6f74206173736f63696174656420772f2070726f6f662060448201527f646f65736e2774206d61746368206f6e2d636861696e20726f6f742e0000000060648201526084015b60405180910390fd5b60435460405163b9c6ea8760e01b81526001600160a01b039091169063b9c6ea879061042e908790879087908790600401610f91565b602060405180830381865afa15801561044b573d6000803e3d6000fd5b505050506040513d601f19601f8201168201806040525081019061046f9190611015565b6104bb5760405162461bcd60e51b815260206004820152601860248201527f496e76616c6964207769746864726177616c2070726f6f66000000000000000060448201526064016103ef565b600060015b600581116105d55760008382600b81106104dc576104dc610f7b565b602002015190506000846104f160058561104d565b600b811061050157610501610f7b565b602002015190506001831180156105385750846105206005600161104d565b600b811061053057610530610f7b565b602002015181145b156105445750506105d5565b60008181526047602052604090205460ff161561059b5760405162461bcd60e51b815260206004820152601560248201527411195c1bdcda5d08185b1c9958591e481cdc195b9d605a1b60448201526064016103ef565b6000818152604760205260409020805460ff191660011790556105be828561104d565b9350505080806105cd90611060565b9150506104c0565b508781101561064c5760405162461bcd60e51b815260206004820152603760248201527f576974686472617720616d6f756e74203e2076616c75652073746f726564206960448201527f6e2074686520737065636966696564206c65617665732e00000000000000000060648201526084016103ef565b610660878761065b8b85611079565b610877565b604051339089156108fc02908a906000818181858888f1935050505015801561068d573d6000803e3d6000fd5b505050505050505050565b604681815481106106a857600080fd5b60009182526020918290206040805180820190915260039092020180548252600181015492820192909252600282018054919350906106e69061108c565b80601f01602080910402602001604051908101604052809291908181526020018280546107129061108c565b801561075f5780601f106107345761010080835404028352916020019161075f565b820191906000526020600020905b81548152906001019060200180831161074257829003601f168201915b5050505050905082565b600034116107c45760405162461bcd60e51b815260206004820152602260248201527f4465706f73697465642065746865722076616c7565206d757374206265203e20604482015261181760f11b60648201526084016103ef565b6107cf828234610877565b5050565b60466040518060400160405280858036038101906107f191906110c0565b815260200184848080601f01602080910402602001604051908101604052809392919081815260200183838082843760009201829052509390945250508354600181810186559482526020918290208451805160039093029091019182558201519481019490945582015191929160028301915061086f9082611127565b505050505050565b600060405180606001604052808580360381019061089591906110c0565b81526020016108a9368690038601866110c0565b8152602090810184905260408051835180518252830151818401528383015180518284015290920151606083015282015160808201529091507f0570a54f1916569668bb02c5d54e6e6faaf265f1cfeb92ab6b712c9ce9661bd39060a00160405180910390a161092061091b82610245565b610927565b5050505050565b60007f30644e72e131a029b85045b68181585d2833e84879b9709143e1f593f000000182106109ce5760405162461bcd60e51b815260206004820152604760248201527f496e6372656d656e74616c4d65726b6c65547265653a20696e736572744c656160448201527f6620617267756d656e74206d757374206265203c20534e41524b5f5343414c416064820152661497d19251531160ca1b608482015260a4016103ef565b60015460005460ff166109e28160026112cb565b8210610a3c5760405162461bcd60e51b815260206004820152602360248201527f496e6372656d656e74616c4d65726b6c65547265653a207472656520697320666044820152621d5b1b60ea1b60648201526084016103ef565b83600080805b60005460ff9081169082161015610ae357610a5e6002876112d7565b600003610aa05783925060038160ff1660208110610a7e57610a7e610f7b565b015491508360238260ff1660208110610a9957610a99610f7b565b0155610abe565b60238160ff1660208110610ab657610ab6610f7b565b015492508391505b610ac883836102f1565b60019690961c95935080610adb816112f9565b915050610a42565b50826002819055506001806000828254610afd919061104d565b9091555094979650505050505050565b634e487b7160e01b600052604160045260246000fd5b6040805190810167ffffffffffffffff81118282101715610b4657610b46610b0d565b60405290565b600060408284031215610b5e57600080fd5b6040516040810181811067ffffffffffffffff82111715610b8157610b81610b0d565b604052823581526020928301359281019290925250919050565b600060a08284031215610bad57600080fd5b6040516060810181811067ffffffffffffffff82111715610bd057610bd0610b0d565b604052610bdd8484610b4c565b8152610bec8460408501610b4c565b602082015260809290920135604083015250919050565b60008060408385031215610c1657600080fd5b50508035926020909101359150565b600060408284031215610c3757600080fd5b50919050565b600082601f830112610c4e57600080fd5b610c56610b23565b806040840185811115610c6857600080fd5b845b81811015610c82578035845260209384019301610c6a565b509095945050505050565b600082601f830112610c9e57600080fd5b60405161016080820182811067ffffffffffffffff82111715610cc357610cc3610b0d565b60405283018185821115610cd657600080fd5b845b82811015610cf0578035825260209182019101610cd8565b509195945050505050565b6000806000806000806000610300888a031215610d1757600080fd5b873596506020610d298a828b01610c25565b9650610d388a60608b01610c25565b9550610d478a60a08b01610c3d565b94508960ff8a0112610d5857600080fd5b610d60610b23565b806101608b018c811115610d7357600080fd5b60e08c015b81811015610d9857610d8a8e82610c3d565b845292840192604001610d78565b50819650610da68d82610c3d565b955050505050610dba896101a08a01610c8d565b905092959891949750929550565b600060208284031215610dda57600080fd5b5035919050565b8251815260208084015190820152606060408201526000825180606084015260005b81811015610e205760208186018101516080868401015201610e03565b506000608082850101526080601f19601f8301168401019150509392505050565b60008060808385031215610e5457600080fd5b610e5e8484610c25565b9150610e6d8460408501610c25565b90509250929050565b600080600060608486031215610e8b57600080fd5b610e958585610c25565b9250604084013567ffffffffffffffff80821115610eb257600080fd5b818601915086601f830112610ec657600080fd5b813581811115610ed557600080fd5b876020828501011115610ee757600080fd5b6020830194508093505050509250925092565b60a08101818360005b6005811015610f22578151835260209283019290910190600101610f03565b50505092915050565b600060208284031215610f3d57600080fd5b5051919050565b8060005b6002811015610f67578151845260209384019390910190600101610f48565b50505050565b604081016102eb8284610f44565b634e487b7160e01b600052603260045260246000fd5b6102608101610fa08287610f44565b60408083018660005b6002811015610fd057610fbd838351610f44565b9183019160209190910190600101610fa9565b50505050610fe160c0830185610f44565b61010082018360005b600b811015611009578151835260209283019290910190600101610fea565b50505095945050505050565b60006020828403121561102757600080fd5b8151801515811461037457600080fd5b634e487b7160e01b600052601160045260246000fd5b808201808211156102eb576102eb611037565b60006001820161107257611072611037565b5060010190565b818103818111156102eb576102eb611037565b600181811c908216806110a057607f821691505b602082108103610c3757634e487b7160e01b600052602260045260246000fd5b6000604082840312156110d257600080fd5b6103748383610b4c565b601f82111561112257600081815260208120601f850160051c810160208610156111035750805b601f850160051c820191505b8181101561086f5782815560010161110f565b505050565b815167ffffffffffffffff81111561114157611141610b0d565b6111558161114f845461108c565b846110dc565b602080601f83116001811461118a57600084156111725750858301515b600019600386901b1c1916600185901b17855561086f565b600085815260208120601f198616915b828110156111b95788860151825594840194600190910190840161119a565b50858210156111d75787850151600019600388901b60f8161c191681555b5050505050600190811b01905550565b600181815b8085111561122257816000190482111561120857611208611037565b8085161561121557918102915b93841c93908002906111ec565b509250929050565b600082611239575060016102eb565b81611246575060006102eb565b816001811461125c576002811461126657611282565b60019150506102eb565b60ff84111561127757611277611037565b50506001821b6102eb565b5060208310610133831016604e8410600b84101617156112a5575081810a6102eb565b6112af83836111e7565b80600019048211156112c3576112c3611037565b029392505050565b6000610374838361122a565b6000826112f457634e487b7160e01b600052601260045260246000fd5b500690565b600060ff821660ff810361130f5761130f611037565b6001019291505056fea2646970667358221220b6030ad5ee2f562993e96b93130a8088aa3b40e197f45c4ba6d8f216c2837c7464736f6c63430008110033",
    "linkReferences": {}
  },
  "methodIdentifiers": {
    "POSEIDON_T3_ADDR()": "a64863a2",
    "POSEIDON_T6_ADDR()": "f163536b",
    "VERIFIER_ADDR()": "7bb885be",
    "_hashLeaf(((bytes32,bytes32),(bytes32,bytes32),uint256))": "2e5ca4d3",
    "_hashLeftRight(uint256,uint256)": "3728abae",
    "create((bytes32,bytes32),string)": "ec74f590",
    "deposit((bytes32,bytes32),(bytes32,bytes32))": "ca3e9ecf",
    "directory(uint256)": "7d611a26",
    "getDirectoryLength()": "9fdc0ea6",
    "getNumDeposits()": "d37ad4be",
    "root()": "ebf0c717",
    "withdraw(uint256,(bytes32,bytes32),(bytes32,bytes32),uint256[2],uint256[2][2],uint256[2],uint256[11])": "6502b6cb"
  },
  "id": 8
}