{
  "abi": [
    {
      "inputs": [
        {
          "components": [
            {
              "internalType": "bytes32",
              "name": "x",
              "type": "bytes32"
            },
            {
              "internalType": "bytes32",
              "name": "y",
              "type": "bytes32"
            }
          ],
          "internalType": "struct PrivateTreasury.Point",
          "name": "pk",
          "type": "tuple"
        },
        {
          "internalType": "string",
          "name": "label",
          "type": "string"
        }
      ],
      "name": "create",
      "outputs": [],
      "stateMutability": "nonpayable",
      "type": "function"
    },
    {
      "inputs": [
        {
          "components": [
            {
              "internalType": "bytes32",
              "name": "x",
              "type": "bytes32"
            },
            {
              "internalType": "bytes32",
              "name": "y",
              "type": "bytes32"
            }
          ],
          "internalType": "struct PrivateTreasury.Point",
          "name": "P",
          "type": "tuple"
        },
        {
          "components": [
            {
              "internalType": "bytes32",
              "name": "x",
              "type": "bytes32"
            },
            {
              "internalType": "bytes32",
              "name": "y",
              "type": "bytes32"
            }
          ],
          "internalType": "struct PrivateTreasury.Point",
          "name": "Q",
          "type": "tuple"
        }
      ],
      "name": "deposit",
      "outputs": [],
      "stateMutability": "payable",
      "type": "function"
    },
    {
      "inputs": [
        {
          "internalType": "uint256",
          "name": "",
          "type": "uint256"
        }
      ],
      "name": "deposits",
      "outputs": [
        {
          "components": [
            {
              "internalType": "bytes32",
              "name": "x",
              "type": "bytes32"
            },
            {
              "internalType": "bytes32",
              "name": "y",
              "type": "bytes32"
            }
          ],
          "internalType": "struct PrivateTreasury.Point",
          "name": "P",
          "type": "tuple"
        },
        {
          "components": [
            {
              "internalType": "bytes32",
              "name": "x",
              "type": "bytes32"
            },
            {
              "internalType": "bytes32",
              "name": "y",
              "type": "bytes32"
            }
          ],
          "internalType": "struct PrivateTreasury.Point",
          "name": "Q",
          "type": "tuple"
        },
        {
          "internalType": "uint256",
          "name": "v",
          "type": "uint256"
        }
      ],
      "stateMutability": "view",
      "type": "function"
    },
    {
      "inputs": [
        {
          "internalType": "uint256",
          "name": "",
          "type": "uint256"
        }
      ],
      "name": "directory",
      "outputs": [
        {
          "components": [
            {
              "internalType": "bytes32",
              "name": "x",
              "type": "bytes32"
            },
            {
              "internalType": "bytes32",
              "name": "y",
              "type": "bytes32"
            }
          ],
          "internalType": "struct PrivateTreasury.Point",
          "name": "pk",
          "type": "tuple"
        },
        {
          "internalType": "string",
          "name": "label",
          "type": "string"
        }
      ],
      "stateMutability": "view",
      "type": "function"
    },
    {
      "inputs": [],
      "name": "getDirectoryLength",
      "outputs": [
        {
          "internalType": "uint256",
          "name": "",
          "type": "uint256"
        }
      ],
      "stateMutability": "view",
      "type": "function"
    },
    {
      "inputs": [],
      "name": "getNumDeposits",
      "outputs": [
        {
          "internalType": "uint256",
          "name": "",
          "type": "uint256"
        }
      ],
      "stateMutability": "view",
      "type": "function"
    }
  ],
  "bytecode": {
    "object": "0x608060405234801561001057600080fd5b5061072a806100206000396000f3fe6080604052600436106100555760003560e01c80637d611a261461005a5780639fdc0ea614610091578063b02c43d0146100b0578063ca3e9ecf14610102578063d37ad4be14610117578063ec74f5901461012c575b600080fd5b34801561006657600080fd5b5061007a610075366004610406565b61014c565b60405161008892919061041f565b60405180910390f35b34801561009d57600080fd5b506000545b604051908152602001610088565b3480156100bc57600080fd5b506100d06100cb366004610406565b61021d565b60408051845181526020948501518582015283519181019190915292909101516060830152608082015260a001610088565b610115610110366004610497565b61027d565b005b34801561012357600080fd5b506001546100a2565b34801561013857600080fd5b506101156101473660046104cc565b610362565b6000818154811061015c57600080fd5b600091825260209182902060408051808201909152600390920201805482526001810154928201929092526002820180549193509061019a90610550565b80601f01602080910402602001604051908101604052809291908181526020018280546101c690610550565b80156102135780601f106101e857610100808354040283529160200191610213565b820191906000526020600020905b8154815290600101906020018083116101f657829003601f168201915b5050505050905082565b6001818154811061022d57600080fd5b600091825260209182902060408051808201825260059093029091018054835260018101548385015281518083019092526002810154825260038101549382019390935260049092015490925083565b600034116102dc5760405162461bcd60e51b815260206004820152602260248201527f4465706f73697465642065746865722076616c7565206d757374206265203e20604482015261181760f11b606482015260840160405180910390fd5b60016040518060600160405280848036038101906102fa919061059a565b815260200161030e3685900385018561059a565b81523460209182015282546001818101855560009485529382902083518051600590930290910191825582015193810193909355818101518051600285015501516003830155604001516004909101555050565b6000604051806040016040528085803603810190610380919061059a565b815260200184848080601f0160208091040260200160405190810160405280939291908181526020018383808284376000920182905250939094525050835460018181018655948252602091829020845180516003909302909101918255820151948101949094558201519192916002830191506103fe9082610634565b505050505050565b60006020828403121561041857600080fd5b5035919050565b8251815260208084015190820152606060408201526000825180606084015260005b8181101561045e5760208186018101516080868401015201610441565b506000608082850101526080601f19601f8301168401019150509392505050565b60006040828403121561049157600080fd5b50919050565b600080608083850312156104aa57600080fd5b6104b4848461047f565b91506104c3846040850161047f565b90509250929050565b6000806000606084860312156104e157600080fd5b6104eb858561047f565b9250604084013567ffffffffffffffff8082111561050857600080fd5b818601915086601f83011261051c57600080fd5b81358181111561052b57600080fd5b87602082850101111561053d57600080fd5b6020830194508093505050509250925092565b600181811c9082168061056457607f821691505b60208210810361049157634e487b7160e01b600052602260045260246000fd5b634e487b7160e01b600052604160045260246000fd5b6000604082840312156105ac57600080fd5b6040516040810181811067ffffffffffffffff821117156105cf576105cf610584565b604052823581526020928301359281019290925250919050565b601f82111561062f57600081815260208120601f850160051c810160208610156106105750805b601f850160051c820191505b818110156103fe5782815560010161061c565b505050565b815167ffffffffffffffff81111561064e5761064e610584565b6106628161065c8454610550565b846105e9565b602080601f831160018114610697576000841561067f5750858301515b600019600386901b1c1916600185901b1785556103fe565b600085815260208120601f198616915b828110156106c6578886015182559484019460019091019084016106a7565b50858210156106e45787850151600019600388901b60f8161c191681555b5050505050600190811b0190555056fea26469706673582212208cc2a21f595182dbde47da76e12c3025a1b379c3aae4e344eccdf4683ac4acb264736f6c63430008100033",
    "linkReferences": {}
  },
  "methodIdentifiers": {
    "create((bytes32,bytes32),string)": "ec74f590",
    "deposit((bytes32,bytes32),(bytes32,bytes32))": "ca3e9ecf",
    "deposits(uint256)": "b02c43d0",
    "directory(uint256)": "7d611a26",
    "getDirectoryLength()": "9fdc0ea6",
    "getNumDeposits()": "d37ad4be"
  },
  "id": 7
}