{
  "abi": [
    {
      "inputs": [
        {
          "internalType": "uint8",
          "name": "treeDepth",
          "type": "uint8"
        },
        {
          "internalType": "uint256",
          "name": "nothingUpMySleeve",
          "type": "uint256"
        },
        {
          "internalType": "uint256",
          "name": "nMaxWithdraw",
          "type": "uint256"
        },
        {
          "internalType": "address",
          "name": "verifier",
          "type": "address"
        }
      ],
      "stateMutability": "nonpayable",
      "type": "constructor"
    },
    {
      "anonymous": false,
      "inputs": [
        {
          "components": [
            {
              "components": [
                {
                  "internalType": "bytes32",
                  "name": "x",
                  "type": "bytes32"
                },
                {
                  "internalType": "bytes32",
                  "name": "y",
                  "type": "bytes32"
                }
              ],
              "internalType": "struct PrivateTreasury.Point",
              "name": "P",
              "type": "tuple"
            },
            {
              "components": [
                {
                  "internalType": "bytes32",
                  "name": "x",
                  "type": "bytes32"
                },
                {
                  "internalType": "bytes32",
                  "name": "y",
                  "type": "bytes32"
                }
              ],
              "internalType": "struct PrivateTreasury.Point",
              "name": "Q",
              "type": "tuple"
            },
            {
              "internalType": "uint256",
              "name": "v",
              "type": "uint256"
            }
          ],
          "indexed": false,
          "internalType": "struct PrivateTreasury.Leaf",
          "name": "lf",
          "type": "tuple"
        }
      ],
      "name": "NewLeaf",
      "type": "event"
    },
    {
      "inputs": [
        {
          "components": [
            {
              "components": [
                {
                  "internalType": "bytes32",
                  "name": "x",
                  "type": "bytes32"
                },
                {
                  "internalType": "bytes32",
                  "name": "y",
                  "type": "bytes32"
                }
              ],
              "internalType": "struct PrivateTreasury.Point",
              "name": "P",
              "type": "tuple"
            },
            {
              "components": [
                {
                  "internalType": "bytes32",
                  "name": "x",
                  "type": "bytes32"
                },
                {
                  "internalType": "bytes32",
                  "name": "y",
                  "type": "bytes32"
                }
              ],
              "internalType": "struct PrivateTreasury.Point",
              "name": "Q",
              "type": "tuple"
            },
            {
              "internalType": "uint256",
              "name": "v",
              "type": "uint256"
            }
          ],
          "internalType": "struct PrivateTreasury.Leaf",
          "name": "lf",
          "type": "tuple"
        }
      ],
      "name": "_hashLeaf",
      "outputs": [
        {
          "internalType": "uint256",
          "name": "",
          "type": "uint256"
        }
      ],
      "stateMutability": "view",
      "type": "function"
    },
    {
      "inputs": [
        {
          "internalType": "uint256",
          "name": "l",
          "type": "uint256"
        },
        {
          "internalType": "uint256",
          "name": "r",
          "type": "uint256"
        }
      ],
      "name": "_hashLeftRight",
      "outputs": [
        {
          "internalType": "uint256",
          "name": "",
          "type": "uint256"
        }
      ],
      "stateMutability": "view",
      "type": "function"
    },
    {
      "inputs": [
        {
          "components": [
            {
              "internalType": "bytes32",
              "name": "x",
              "type": "bytes32"
            },
            {
              "internalType": "bytes32",
              "name": "y",
              "type": "bytes32"
            }
          ],
          "internalType": "struct PrivateTreasury.Point",
          "name": "pk",
          "type": "tuple"
        },
        {
          "internalType": "string",
          "name": "label",
          "type": "string"
        }
      ],
      "name": "create",
      "outputs": [],
      "stateMutability": "nonpayable",
      "type": "function"
    },
    {
      "inputs": [
        {
          "components": [
            {
              "internalType": "bytes32",
              "name": "x",
              "type": "bytes32"
            },
            {
              "internalType": "bytes32",
              "name": "y",
              "type": "bytes32"
            }
          ],
          "internalType": "struct PrivateTreasury.Point",
          "name": "P",
          "type": "tuple"
        },
        {
          "components": [
            {
              "internalType": "bytes32",
              "name": "x",
              "type": "bytes32"
            },
            {
              "internalType": "bytes32",
              "name": "y",
              "type": "bytes32"
            }
          ],
          "internalType": "struct PrivateTreasury.Point",
          "name": "Q",
          "type": "tuple"
        }
      ],
      "name": "deposit",
      "outputs": [],
      "stateMutability": "payable",
      "type": "function"
    },
    {
      "inputs": [
        {
          "internalType": "uint256",
          "name": "",
          "type": "uint256"
        }
      ],
      "name": "directory",
      "outputs": [
        {
          "components": [
            {
              "internalType": "bytes32",
              "name": "x",
              "type": "bytes32"
            },
            {
              "internalType": "bytes32",
              "name": "y",
              "type": "bytes32"
            }
          ],
          "internalType": "struct PrivateTreasury.Point",
          "name": "pk",
          "type": "tuple"
        },
        {
          "internalType": "string",
          "name": "label",
          "type": "string"
        }
      ],
      "stateMutability": "view",
      "type": "function"
    },
    {
      "inputs": [],
      "name": "getDirectoryLength",
      "outputs": [
        {
          "internalType": "uint256",
          "name": "",
          "type": "uint256"
        }
      ],
      "stateMutability": "view",
      "type": "function"
    },
    {
      "inputs": [],
      "name": "getNumDeposits",
      "outputs": [
        {
          "internalType": "uint256",
          "name": "",
          "type": "uint256"
        }
      ],
      "stateMutability": "view",
      "type": "function"
    },
    {
      "inputs": [],
      "name": "root",
      "outputs": [
        {
          "internalType": "uint256",
          "name": "",
          "type": "uint256"
        }
      ],
      "stateMutability": "view",
      "type": "function"
    },
    {
      "inputs": [
        {
          "internalType": "uint256",
          "name": "",
          "type": "uint256"
        }
      ],
      "name": "spentLeaves",
      "outputs": [
        {
          "internalType": "bool",
          "name": "",
          "type": "bool"
        }
      ],
      "stateMutability": "view",
      "type": "function"
    },
    {
      "inputs": [
        {
          "internalType": "uint256",
          "name": "amount",
          "type": "uint256"
        },
        {
          "components": [
            {
              "internalType": "bytes32",
              "name": "x",
              "type": "bytes32"
            },
            {
              "internalType": "bytes32",
              "name": "y",
              "type": "bytes32"
            }
          ],
          "internalType": "struct PrivateTreasury.Point",
          "name": "changeP",
          "type": "tuple"
        },
        {
          "components": [
            {
              "internalType": "bytes32",
              "name": "x",
              "type": "bytes32"
            },
            {
              "internalType": "bytes32",
              "name": "y",
              "type": "bytes32"
            }
          ],
          "internalType": "struct PrivateTreasury.Point",
          "name": "changeQ",
          "type": "tuple"
        },
        {
          "internalType": "uint256[2]",
          "name": "a",
          "type": "uint256[2]"
        },
        {
          "internalType": "uint256[2][2]",
          "name": "b",
          "type": "uint256[2][2]"
        },
        {
          "internalType": "uint256[2]",
          "name": "c",
          "type": "uint256[2]"
        },
        {
          "internalType": "uint256[11]",
          "name": "publicSignals",
          "type": "uint256[11]"
        }
      ],
      "name": "withdraw",
      "outputs": [],
      "stateMutability": "payable",
      "type": "function"
    }
  ],
  "bytecode": {
    "object": "0x60806040526000600155604580546001600160a01b0319908116738464135c8f25da09e49bc8782676a84730c318bc17909155604680549091167371c95911e9a5d330f4d621842ec243ee1343292e1790553480156200005e57600080fd5b506040516200165a3803806200165a833981016040819052620000819162000269565b838360008260ff161180156200009b5750602060ff831611155b620001125760405162461bcd60e51b815260206004820152603b60248201527f496e6372656d656e74616c4d65726b6c65547265653a205f747265654c65766560448201527f6c73206d757374206265206265747765656e203020616e642033330000000000606482015260840160405180910390fd5b6000805460ff191660ff84161781558190600301558060015b8360ff168160ff16101562000199576000620001488380620001da565b90508060038360ff1660208110620001645762000164620002ca565b015580602360ff841660208110620001805762000180620002ca565b01559150806200019081620002e0565b9150506200012b565b50620001a68180620001da565b600255505050604391909155604480546001600160a01b0319166001600160a01b03909216919091179055506200035b9050565b6045546040805180820182528481526020810184905290516314d2f97b60e11b81526000926001600160a01b0316916329a5f2f6916200021e91906004016200030e565b602060405180830381865afa1580156200023c573d6000803e3d6000fd5b505050506040513d601f19601f8201168201806040525081019062000262919062000341565b9392505050565b600080600080608085870312156200028057600080fd5b845160ff811681146200029257600080fd5b60208601516040870151606088015192965090945092506001600160a01b0381168114620002bf57600080fd5b939692955090935050565b634e487b7160e01b600052603260045260246000fd5b600060ff821660ff81036200030557634e487b7160e01b600052601160045260246000fd5b60010192915050565b60408101818360005b60028110156200033857815183526020928301929091019060010162000317565b50505092915050565b6000602082840312156200035457600080fd5b5051919050565b6112ef806200036b6000396000f3fe6080604052600436106100915760003560e01c80639fdc0ea6116100595780639fdc0ea61461016c578063ca3e9ecf14610181578063d37ad4be14610194578063ebf0c717146101a9578063ec74f590146101bf57600080fd5b80632e5ca4d3146100965780633728abae146100c95780633f42bf66146100e95780636502b6cb146101295780637d611a261461013e575b600080fd5b3480156100a257600080fd5b506100b66100b1366004610b3c565b6101df565b6040519081526020015b60405180910390f35b3480156100d557600080fd5b506100b66100e4366004610ba4565b61028b565b3480156100f557600080fd5b50610119610104366004610bc6565b60486020526000908152604090205460ff1681565b60405190151581526020016100c0565b61013c610137366004610cb5565b610315565b005b34801561014a57600080fd5b5061015e610159366004610bc6565b610639565b6040516100c0929190610d82565b34801561017857600080fd5b506047546100b6565b61013c61018f366004610de2565b61070a565b3480156101a057600080fd5b506001546100b6565b3480156101b557600080fd5b506100b660025481565b3480156101cb57600080fd5b5061013c6101da366004610e17565b610774565b6046546040805160a08101825283515181528351602090810151818301528085018051518385015251015160608201528382015160808201529051630926f44b60e31b81526000926001600160a01b031691634937a258916102449190600401610e9b565b602060405180830381865afa158015610261573d6000803e3d6000fd5b505050506040513d601f19601f820116820180604052508101906102859190610ecc565b92915050565b6045546040805180820182528481526020810184905290516314d2f97b60e11b81526000926001600160a01b0316916329a5f2f6916102cd9190600401610f0e565b602060405180830381865afa1580156102ea573d6000803e3d6000fd5b505050506040513d601f19601f8201168201806040525081019061030e9190610ecc565b9392505050565b6002548151146103925760405162461bcd60e51b815260206004820152603c60248201527f4d65726b6c6520726f6f74206173736f63696174656420772f2070726f6f662060448201527f646f65736e2774206d61746368206f6e2d636861696e20726f6f742e0000000060648201526084015b60405180910390fd5b60445460405163b9c6ea8760e01b81526001600160a01b039091169063b9c6ea87906103c8908790879087908790600401610f32565b602060405180830381865afa1580156103e5573d6000803e3d6000fd5b505050506040513d601f19601f820116820180604052508101906104099190610fb6565b6104555760405162461bcd60e51b815260206004820152601860248201527f496e76616c6964207769746864726177616c2070726f6f6600000000000000006044820152606401610389565b600060015b60435481116105765760008382600b811061047757610477610f1c565b602002015190506000846043548461048f9190610fee565b600b811061049f5761049f610f1c565b602002015190506001831180156104d957508460435460016104c19190610fee565b600b81106104d1576104d1610f1c565b602002015181145b156104e5575050610576565b60008181526048602052604090205460ff161561053c5760405162461bcd60e51b815260206004820152601560248201527411195c1bdcda5d08185b1c9958591e481cdc195b9d605a1b6044820152606401610389565b6000818152604860205260409020805460ff1916600117905561055f8285610fee565b93505050808061056e90611001565b91505061045a565b50878110156105ed5760405162461bcd60e51b815260206004820152603760248201527f576974686472617720616d6f756e74203e2076616c75652073746f726564206960448201527f6e2074686520737065636966696564206c65617665732e0000000000000000006064820152608401610389565b61060187876105fc8b8561101a565b610818565b604051339089156108fc02908a906000818181858888f1935050505015801561062e573d6000803e3d6000fd5b505050505050505050565b6047818154811061064957600080fd5b60009182526020918290206040805180820190915260039092020180548252600181015492820192909252600282018054919350906106879061102d565b80601f01602080910402602001604051908101604052809291908181526020018280546106b39061102d565b80156107005780601f106106d557610100808354040283529160200191610700565b820191906000526020600020905b8154815290600101906020018083116106e357829003601f168201915b5050505050905082565b600034116107655760405162461bcd60e51b815260206004820152602260248201527f4465706f73697465642065746865722076616c7565206d757374206265203e20604482015261181760f11b6064820152608401610389565b610770828234610818565b5050565b60476040518060400160405280858036038101906107929190611061565b815260200184848080601f01602080910402602001604051908101604052809392919081815260200183838082843760009201829052509390945250508354600181810186559482526020918290208451805160039093029091019182558201519481019490945582015191929160028301915061081090826110c8565b505050505050565b60006040518060600160405280858036038101906108369190611061565b815260200161084a36869003860186611061565b8152602090810184905260408051835180518252830151818401528383015180518284015290920151606083015282015160808201529091507f0570a54f1916569668bb02c5d54e6e6faaf265f1cfeb92ab6b712c9ce9661bd39060a00160405180910390a16108c16108bc826101df565b6108c8565b5050505050565b60007f30644e72e131a029b85045b68181585d2833e84879b9709143e1f593f0000001821061096f5760405162461bcd60e51b815260206004820152604760248201527f496e6372656d656e74616c4d65726b6c65547265653a20696e736572744c656160448201527f6620617267756d656e74206d757374206265203c20534e41524b5f5343414c416064820152661497d19251531160ca1b608482015260a401610389565b60015460005460ff1661098381600261126c565b82106109dd5760405162461bcd60e51b815260206004820152602360248201527f496e6372656d656e74616c4d65726b6c65547265653a207472656520697320666044820152621d5b1b60ea1b6064820152608401610389565b83600080805b60005460ff9081169082161015610a84576109ff600287611278565b600003610a415783925060038160ff1660208110610a1f57610a1f610f1c565b015491508360238260ff1660208110610a3a57610a3a610f1c565b0155610a5f565b60238160ff1660208110610a5757610a57610f1c565b015492508391505b610a69838361028b565b60019690961c95935080610a7c8161129a565b9150506109e3565b50826002819055506001806000828254610a9e9190610fee565b9091555094979650505050505050565b634e487b7160e01b600052604160045260246000fd5b6040805190810167ffffffffffffffff81118282101715610ae757610ae7610aae565b60405290565b600060408284031215610aff57600080fd5b6040516040810181811067ffffffffffffffff82111715610b2257610b22610aae565b604052823581526020928301359281019290925250919050565b600060a08284031215610b4e57600080fd5b6040516060810181811067ffffffffffffffff82111715610b7157610b71610aae565b604052610b7e8484610aed565b8152610b8d8460408501610aed565b602082015260809290920135604083015250919050565b60008060408385031215610bb757600080fd5b50508035926020909101359150565b600060208284031215610bd857600080fd5b5035919050565b600060408284031215610bf157600080fd5b50919050565b600082601f830112610c0857600080fd5b610c10610ac4565b806040840185811115610c2257600080fd5b845b81811015610c3c578035845260209384019301610c24565b509095945050505050565b600082601f830112610c5857600080fd5b60405161016080820182811067ffffffffffffffff82111715610c7d57610c7d610aae565b60405283018185821115610c9057600080fd5b845b82811015610caa578035825260209182019101610c92565b509195945050505050565b6000806000806000806000610300888a031215610cd157600080fd5b873596506020610ce38a828b01610bdf565b9650610cf28a60608b01610bdf565b9550610d018a60a08b01610bf7565b94508960ff8a0112610d1257600080fd5b610d1a610ac4565b806101608b018c811115610d2d57600080fd5b60e08c015b81811015610d5257610d448e82610bf7565b845292840192604001610d32565b50819650610d608d82610bf7565b955050505050610d74896101a08a01610c47565b905092959891949750929550565b8251815260208084015190820152606060408201526000825180606084015260005b81811015610dc15760208186018101516080868401015201610da4565b506000608082850101526080601f19601f8301168401019150509392505050565b60008060808385031215610df557600080fd5b610dff8484610bdf565b9150610e0e8460408501610bdf565b90509250929050565b600080600060608486031215610e2c57600080fd5b610e368585610bdf565b9250604084013567ffffffffffffffff80821115610e5357600080fd5b818601915086601f830112610e6757600080fd5b813581811115610e7657600080fd5b876020828501011115610e8857600080fd5b6020830194508093505050509250925092565b60a08101818360005b6005811015610ec3578151835260209283019290910190600101610ea4565b50505092915050565b600060208284031215610ede57600080fd5b5051919050565b8060005b6002811015610f08578151845260209384019390910190600101610ee9565b50505050565b604081016102858284610ee5565b634e487b7160e01b600052603260045260246000fd5b6102608101610f418287610ee5565b60408083018660005b6002811015610f7157610f5e838351610ee5565b9183019160209190910190600101610f4a565b50505050610f8260c0830185610ee5565b61010082018360005b600b811015610faa578151835260209283019290910190600101610f8b565b50505095945050505050565b600060208284031215610fc857600080fd5b8151801515811461030e57600080fd5b634e487b7160e01b600052601160045260246000fd5b8082018082111561028557610285610fd8565b60006001820161101357611013610fd8565b5060010190565b8181038181111561028557610285610fd8565b600181811c9082168061104157607f821691505b602082108103610bf157634e487b7160e01b600052602260045260246000fd5b60006040828403121561107357600080fd5b61030e8383610aed565b601f8211156110c357600081815260208120601f850160051c810160208610156110a45750805b601f850160051c820191505b81811015610810578281556001016110b0565b505050565b815167ffffffffffffffff8111156110e2576110e2610aae565b6110f6816110f0845461102d565b8461107d565b602080601f83116001811461112b57600084156111135750858301515b600019600386901b1c1916600185901b178555610810565b600085815260208120601f198616915b8281101561115a5788860151825594840194600190910190840161113b565b50858210156111785787850151600019600388901b60f8161c191681555b5050505050600190811b01905550565b600181815b808511156111c35781600019048211156111a9576111a9610fd8565b808516156111b657918102915b93841c939080029061118d565b509250929050565b6000826111da57506001610285565b816111e757506000610285565b81600181146111fd576002811461120757611223565b6001915050610285565b60ff84111561121857611218610fd8565b50506001821b610285565b5060208310610133831016604e8410600b8410161715611246575081810a610285565b6112508383611188565b806000190482111561126457611264610fd8565b029392505050565b600061030e83836111cb565b60008261129557634e487b7160e01b600052601260045260246000fd5b500690565b600060ff821660ff81036112b0576112b0610fd8565b6001019291505056fea2646970667358221220504af55141fd7c09b559a8d5025983e2c7862d20d83074c202f3f05508dfd50b64736f6c63430008110033",
    "linkReferences": {}
  },
  "methodIdentifiers": {
    "_hashLeaf(((bytes32,bytes32),(bytes32,bytes32),uint256))": "2e5ca4d3",
    "_hashLeftRight(uint256,uint256)": "3728abae",
    "create((bytes32,bytes32),string)": "ec74f590",
    "deposit((bytes32,bytes32),(bytes32,bytes32))": "ca3e9ecf",
    "directory(uint256)": "7d611a26",
    "getDirectoryLength()": "9fdc0ea6",
    "getNumDeposits()": "d37ad4be",
    "root()": "ebf0c717",
    "spentLeaves(uint256)": "3f42bf66",
    "withdraw(uint256,(bytes32,bytes32),(bytes32,bytes32),uint256[2],uint256[2][2],uint256[2],uint256[11])": "6502b6cb"
  },
  "id": 8
}