{
  "abi": [
    {
      "inputs": [
        {
          "internalType": "uint256[2]",
          "name": "a",
          "type": "uint256[2]"
        },
        {
          "internalType": "uint256[2][2]",
          "name": "b",
          "type": "uint256[2][2]"
        },
        {
          "internalType": "uint256[2]",
          "name": "c",
          "type": "uint256[2]"
        },
        {
          "internalType": "uint256[11]",
          "name": "input",
          "type": "uint256[11]"
        }
      ],
      "name": "verifyProof",
      "outputs": [
        {
          "internalType": "bool",
          "name": "r",
          "type": "bool"
        }
      ],
      "stateMutability": "view",
      "type": "function"
    }
  ],
  "bytecode": {
    "object": "0x608060405234801561001057600080fd5b5061158b806100206000396000f3fe608060405234801561001057600080fd5b506004361061002b5760003560e01c8063b9c6ea8714610030575b600080fd5b61004361003e3660046113d3565b610057565b604051901515815260200160405180910390f35b60006100616111e6565b604080518082018252875181526020808901518183015290835281516080810183528751518184019081528851830151606083015281528251808401845288830180515182525183015181840152818301528382015281518083018352865181528682015181830152838301528151600b8082526101808201909352600092909182016101608036833701905050905060005b600b811015610143578481600b811061010f5761010f6114b1565b6020020151828281518110610126576101266114b1565b60209081029190910101528061013b816114dd565b9150506100f4565b5061014e818361016f565b60000361016057600192505050610167565b6000925050505b949350505050565b60007f30644e72e131a029b85045b68181585d2833e84879b9709143e1f593f00000018161019b610366565b9050806080015151855160016101b191906114f6565b146101f85760405162461bcd60e51b81526020600482015260126024820152711d995c9a599a595c8b5898590b5a5b9c1d5d60721b60448201526064015b60405180910390fd5b604080518082019091526000808252602082018190525b86518110156102e9578387828151811061022b5761022b6114b1565b6020026020010151106102805760405162461bcd60e51b815260206004820152601f60248201527f76657269666965722d6774652d736e61726b2d7363616c61722d6669656c640060448201526064016101ef565b6102d5826102d0856080015184600161029991906114f6565b815181106102a9576102a96114b1565b60200260200101518a85815181106102c3576102c36114b1565b6020026020010151610b35565b610bcb565b9150806102e1816114dd565b91505061020f565b50610312818360800151600081518110610305576103056114b1565b6020026020010151610bcb565b90506103486103248660000151610c64565b8660200151846000015185602001518587604001518b604001518960600151610d03565b6103585760019350505050610360565b600093505050505b92915050565b61036e611237565b6040805180820182527f2d4d9aa7e302d9df41749d5507949d05dbea33fbb16c643b22f599a2be6df2e281527f14bedd503c37ceb061d8ec60209fe345ce89830a19230301f076caff004d19266020808301919091529083528151608080820184527f0967032fcbf776d1afc985f88877f182d38480a653f2decaa9794cbc3bf3060c8285019081527f0e187847ad4c798374d0d6732bf501847dd68bc0e071241e0213bc7fc13db7ab606080850191909152908352845180860186527f304cfbd1e08a704a99f5e847d93f8c3caafddec46b7a0d379da69a4d112346a781527f1739c1b1a457a8c7313123d24d2f9192f896b7c63eea05a9d57f06547ad0cec8818601528385015285840192909252835180820185527f198e9393920d483a7260bfb731fb5d25f1aa493335a9e71297e485b7aef312c28186018181527f1800deef121f1e76426a00665e5c4479674322d4f75edadd46debd5cd992f6ed838601819052908352865180880188527f090689d0585ff075ec9e99ad690c3395bc4b313370b38ef355acdadcd122975b8082527f12c85ea5db8c6deb4aab71808dcb408fe3d1e7690c43d37b4ce6cc0166fa7daa82890181905285890192909252898901949094528751948501885284880192835284860191909152908352855180870187529182528185015281840152908401528151600c8082526101a08201909352919082015b604080518082019091526000808252602082015281526020019060019003908161057757505060808201908152604080518082019091527f09e83d6053c76ac95c36f3f43eebfb7a644326ae5a0bcfb5e6c20f699b820f4281527f2cdce5b653dad3aa76fe7761c2a379637dbd87649748f3707bf4038f144b780260208201529051805160009061060a5761060a6114b1565b602002602001018190525060405180604001604052807f0e199416143d7c98ba5929060fec35eb7641fb816014a99516edcf6c498148fd81526020017f0b99e33b9342a299d1a65c565e25d7de5646bb29b96985796456cea36d5aa3c28152508160800151600181518110610681576106816114b1565b602002602001018190525060405180604001604052807f231d28248657a613a3741019fb08456addfe4632cda138da4998419c5a52ba5b81526020017f2febded3e4080467eea89b3a1a2710573203769a88176765c0fa709db9e4d59381525081608001516002815181106106f8576106f86114b1565b602002602001018190525060405180604001604052807f19bb7d526106f6814d8a70d50e94b075406681a036ff6cb23b16eba40c505fc781526020017f049d06caa3748e54831461a57cbcaaf1a8dd0aaaf25d8d6d048d84a07cb2e743815250816080015160038151811061076f5761076f6114b1565b602002602001018190525060405180604001604052807f1785b783ee9c83065a4e3bd5eef29552476120f8ac4148c4ba8af423e2060f1b81526020017f115f16a591ffe6508327cec9bb2a50953b1c7fdc10402a198a72321bd6f0ce6a81525081608001516004815181106107e6576107e66114b1565b602002602001018190525060405180604001604052807f1ab382ff0239b9f0071bfc45a63d9d678f6c24ab7fb4453f8aa2e915f33a228a81526020017f0d2299d87af9d9a237a07fc2c99da8777482d91442da0a57abc533a487dea3c0815250816080015160058151811061085d5761085d6114b1565b602002602001018190525060405180604001604052807f304a79928c1d89f5950442491a28e44157e17afd08a5477a6295168235c6db3181526020017f06155f930beeb452aaff4121f16f049bf03259c3cb9277a596761062328734f681525081608001516006815181106108d4576108d46114b1565b602002602001018190525060405180604001604052807f104f8a73d0cd3c123d0aba9f17605a276889130f084466d3431f44e7d61466be81526020017f23f77fa52a3fd7bde855bc9fd34efc6b6f8171b956ca8c5cfc2769da602f5746815250816080015160078151811061094b5761094b6114b1565b602002602001018190525060405180604001604052807f28819537539c9bd4afaf947cbc39abf4d6c6e268e267c80af1425badc1af0cf881526020017f27b234d0a57c9bbdacd1ace2b5c0626d9e126f62c84a31a1d82e833ceabc680581525081608001516008815181106109c2576109c26114b1565b602002602001018190525060405180604001604052807f0bcec261ebe2ceeb399c1d7b0859579c7a3ea5c4781afc7c22ca154ff286805b81526020017f07bb658c84ca75251c9cd53d398898f0b3394722dc18be796be4900ef76f47038152508160800151600981518110610a3957610a396114b1565b602002602001018190525060405180604001604052807f28d3873cf69059ccac87da3c26a1a99e6f40124405c1cf144c6b79fbdf81f5c681526020017f24a8859e66308c4bd8314217fa229f6e77a43179b75b53aa96bb5fa77e028d708152508160800151600a81518110610ab057610ab06114b1565b602002602001018190525060405180604001604052807f225cf19c133c2ab51e99e9e8652b489608d35a5dc7c1314d5be4a5046df6c9d081526020017f1c67ed4a9fbddabe5f4e5a847cc49c4f1b50774a8f7e7aa7459e902284eb6ad38152508160800151600b81518110610b2757610b276114b1565b602002602001018190525090565b6040805180820190915260008082526020820152610b51611288565b835181526020808501519082015260408101839052600060608360808460076107d05a03fa90508080610b8057fe5b5080610bc35760405162461bcd60e51b81526020600482015260126024820152711c185a5c9a5b99cb5b5d5b0b59985a5b195960721b60448201526064016101ef565b505092915050565b6040805180820190915260008082526020820152610be76112a6565b8351815260208085015181830152835160408301528301516060808301919091526000908360c08460066107d05a03fa90508080610c2157fe5b5080610bc35760405162461bcd60e51b81526020600482015260126024820152711c185a5c9a5b99cb5859190b59985a5b195960721b60448201526064016101ef565b604080518082019091526000808252602082015281517f30644e72e131a029b85045b68181585d97816a916871ca8d3c208c16d87cfd4790158015610cab57506020830151155b15610ccb5750506040805180820190915260008082526020820152919050565b604051806040016040528084600001518152602001828560200151610cf09190611509565b610cfa908461152b565b90529392505050565b60408051600480825260a08201909252600091829190816020015b6040805180820190915260008082526020820152815260200190600190039081610d1e57505060408051600480825260a0820190925291925060009190602082015b610d686112c4565b815260200190600190039081610d605790505090508a82600081518110610d9157610d916114b1565b60200260200101819052508882600181518110610db057610db06114b1565b60200260200101819052508682600281518110610dcf57610dcf6114b1565b60200260200101819052508482600381518110610dee57610dee6114b1565b60200260200101819052508981600081518110610e0d57610e0d6114b1565b60200260200101819052508781600181518110610e2c57610e2c6114b1565b60200260200101819052508581600281518110610e4b57610e4b6114b1565b60200260200101819052508381600381518110610e6a57610e6a6114b1565b6020026020010181905250610e7f8282610e8e565b9b9a5050505050505050505050565b60008151835114610eda5760405162461bcd60e51b81526020600482015260166024820152751c185a5c9a5b99cb5b195b99dd1a1ccb59985a5b195960521b60448201526064016101ef565b82516000610ee982600661153e565b905060008167ffffffffffffffff811115610f0657610f06611320565b604051908082528060200260200182016040528015610f2f578160200160208202803683370190505b50905060005b8381101561116a57868181518110610f4f57610f4f6114b1565b60200260200101516000015182826006610f69919061153e565b610f749060006114f6565b81518110610f8457610f846114b1565b602002602001018181525050868181518110610fa257610fa26114b1565b60200260200101516020015182826006610fbc919061153e565b610fc79060016114f6565b81518110610fd757610fd76114b1565b602002602001018181525050858181518110610ff557610ff56114b1565b602090810291909101015151518261100e83600661153e565b6110199060026114f6565b81518110611029576110296114b1565b602002602001018181525050858181518110611047576110476114b1565b6020908102919091018101515101518261106283600661153e565b61106d9060036114f6565b8151811061107d5761107d6114b1565b60200260200101818152505085818151811061109b5761109b6114b1565b6020026020010151602001516000600281106110b9576110b96114b1565b6020020151826110ca83600661153e565b6110d59060046114f6565b815181106110e5576110e56114b1565b602002602001018181525050858181518110611103576111036114b1565b602002602001015160200151600160028110611121576111216114b1565b60200201518261113283600661153e565b61113d9060056114f6565b8151811061114d5761114d6114b1565b602090810291909101015280611162816114dd565b915050610f35565b506111736112e4565b6000602082602086026020860160086107d05a03fa9050808061119257fe5b50806111d85760405162461bcd60e51b81526020600482015260156024820152741c185a5c9a5b99cb5bdc18dbd9194b59985a5b1959605a1b60448201526064016101ef565b505115159695505050505050565b6040805160a0810190915260006060820181815260808301919091528152602081016112106112c4565b8152602001611232604051806040016040528060008152602001600081525090565b905290565b6040805160e08101909152600060a0820181815260c08301919091528152602081016112616112c4565b815260200161126e6112c4565b815260200161127b6112c4565b8152602001606081525090565b60405180606001604052806003906020820280368337509192915050565b60405180608001604052806004906020820280368337509192915050565b60405180604001604052806112d7611302565b8152602001611232611302565b60405180602001604052806001906020820280368337509192915050565b60405180604001604052806002906020820280368337509192915050565b634e487b7160e01b600052604160045260246000fd5b6040805190810167ffffffffffffffff8111828210171561135957611359611320565b60405290565b604051610160810167ffffffffffffffff8111828210171561135957611359611320565b600082601f83011261139457600080fd5b61139c611336565b8060408401858111156113ae57600080fd5b845b818110156113c85780358452602093840193016113b0565b509095945050505050565b6000806000806102608086880312156113eb57600080fd5b6113f58787611383565b9450604087605f88011261140857600080fd5b611410611336565b8060c089018a81111561142257600080fd5b838a015b81811015611447576114388c82611383565b84526020909301928401611426565b508197506114558b82611383565b9650505050508661011f87011261146b57600080fd5b61147361135f565b90860190808883111561148557600080fd5b61010088015b838110156114a357803583526020928301920161148b565b509598949750929550505050565b634e487b7160e01b600052603260045260246000fd5b634e487b7160e01b600052601160045260246000fd5b6000600182016114ef576114ef6114c7565b5060010190565b80820180821115610360576103606114c7565b60008261152657634e487b7160e01b600052601260045260246000fd5b500690565b81810381811115610360576103606114c7565b8082028115828204841417610360576103606114c756fea2646970667358221220626b10aabe697a8e3ca339c8812c454f446115f8f4912007da83acc38b4d6a0e64736f6c63430008110033",
    "linkReferences": {}
  },
  "methodIdentifiers": {
    "verifyProof(uint256[2],uint256[2][2],uint256[2],uint256[11])": "b9c6ea87"
  },
  "id": 8
}